{
  "contracts/cryptopunksmarket.sol": {
    "CryptoPunksMarket": {
      "abi": [
        {
          "constant": true,
          "inputs": [],
          "name": "name",
          "outputs": [
            {
              "name": "",
              "type": "string"
            }
          ],
          "payable": false,
          "type": "function"
        },
        {
          "constant": true,
          "inputs": [
            {
              "name": "",
              "type": "uint256"
            }
          ],
          "name": "punksOfferedForSale",
          "outputs": [
            {
              "name": "isForSale",
              "type": "bool"
            },
            {
              "name": "punkIndex",
              "type": "uint256"
            },
            {
              "name": "seller",
              "type": "address"
            },
            {
              "name": "minValue",
              "type": "uint256"
            },
            {
              "name": "onlySellTo",
              "type": "address"
            }
          ],
          "payable": false,
          "type": "function"
        },
        {
          "constant": false,
          "inputs": [
            {
              "name": "punkIndex",
              "type": "uint256"
            }
          ],
          "name": "enterBidForPunk",
          "outputs": [],
          "payable": true,
          "type": "function"
        },
        {
          "constant": true,
          "inputs": [],
          "name": "totalSupply",
          "outputs": [
            {
              "name": "",
              "type": "uint256"
            }
          ],
          "payable": false,
          "type": "function"
        },
        {
          "constant": false,
          "inputs": [
            {
              "name": "punkIndex",
              "type": "uint256"
            },
            {
              "name": "minPrice",
              "type": "uint256"
            }
          ],
          "name": "acceptBidForPunk",
          "outputs": [],
          "payable": false,
          "type": "function"
        },
        {
          "constant": true,
          "inputs": [],
          "name": "decimals",
          "outputs": [
            {
              "name": "",
              "type": "uint8"
            }
          ],
          "payable": false,
          "type": "function"
        },
        {
          "constant": false,
          "inputs": [
            {
              "name": "addresses",
              "type": "address[]"
            },
            {
              "name": "indices",
              "type": "uint256[]"
            }
          ],
          "name": "setInitialOwners",
          "outputs": [],
          "payable": false,
          "type": "function"
        },
        {
          "constant": false,
          "inputs": [],
          "name": "withdraw",
          "outputs": [],
          "payable": false,
          "type": "function"
        },
        {
          "constant": true,
          "inputs": [],
          "name": "imageHash",
          "outputs": [
            {
              "name": "",
              "type": "string"
            }
          ],
          "payable": false,
          "type": "function"
        },
        {
          "constant": true,
          "inputs": [],
          "name": "nextPunkIndexToAssign",
          "outputs": [
            {
              "name": "",
              "type": "uint256"
            }
          ],
          "payable": false,
          "type": "function"
        },
        {
          "constant": true,
          "inputs": [
            {
              "name": "",
              "type": "uint256"
            }
          ],
          "name": "punkIndexToAddress",
          "outputs": [
            {
              "name": "",
              "type": "address"
            }
          ],
          "payable": false,
          "type": "function"
        },
        {
          "constant": true,
          "inputs": [],
          "name": "standard",
          "outputs": [
            {
              "name": "",
              "type": "string"
            }
          ],
          "payable": false,
          "type": "function"
        },
        {
          "constant": true,
          "inputs": [
            {
              "name": "",
              "type": "uint256"
            }
          ],
          "name": "punkBids",
          "outputs": [
            {
              "name": "hasBid",
              "type": "bool"
            },
            {
              "name": "punkIndex",
              "type": "uint256"
            },
            {
              "name": "bidder",
              "type": "address"
            },
            {
              "name": "value",
              "type": "uint256"
            }
          ],
          "payable": false,
          "type": "function"
        },
        {
          "constant": true,
          "inputs": [
            {
              "name": "",
              "type": "address"
            }
          ],
          "name": "balanceOf",
          "outputs": [
            {
              "name": "",
              "type": "uint256"
            }
          ],
          "payable": false,
          "type": "function"
        },
        {
          "constant": false,
          "inputs": [],
          "name": "allInitialOwnersAssigned",
          "outputs": [],
          "payable": false,
          "type": "function"
        },
        {
          "constant": true,
          "inputs": [],
          "name": "allPunksAssigned",
          "outputs": [
            {
              "name": "",
              "type": "bool"
            }
          ],
          "payable": false,
          "type": "function"
        },
        {
          "constant": false,
          "inputs": [
            {
              "name": "punkIndex",
              "type": "uint256"
            }
          ],
          "name": "buyPunk",
          "outputs": [],
          "payable": true,
          "type": "function"
        },
        {
          "constant": false,
          "inputs": [
            {
              "name": "to",
              "type": "address"
            },
            {
              "name": "punkIndex",
              "type": "uint256"
            }
          ],
          "name": "transferPunk",
          "outputs": [],
          "payable": false,
          "type": "function"
        },
        {
          "constant": true,
          "inputs": [],
          "name": "symbol",
          "outputs": [
            {
              "name": "",
              "type": "string"
            }
          ],
          "payable": false,
          "type": "function"
        },
        {
          "constant": false,
          "inputs": [
            {
              "name": "punkIndex",
              "type": "uint256"
            }
          ],
          "name": "withdrawBidForPunk",
          "outputs": [],
          "payable": false,
          "type": "function"
        },
        {
          "constant": false,
          "inputs": [
            {
              "name": "to",
              "type": "address"
            },
            {
              "name": "punkIndex",
              "type": "uint256"
            }
          ],
          "name": "setInitialOwner",
          "outputs": [],
          "payable": false,
          "type": "function"
        },
        {
          "constant": false,
          "inputs": [
            {
              "name": "punkIndex",
              "type": "uint256"
            },
            {
              "name": "minSalePriceInWei",
              "type": "uint256"
            },
            {
              "name": "toAddress",
              "type": "address"
            }
          ],
          "name": "offerPunkForSaleToAddress",
          "outputs": [],
          "payable": false,
          "type": "function"
        },
        {
          "constant": true,
          "inputs": [],
          "name": "punksRemainingToAssign",
          "outputs": [
            {
              "name": "",
              "type": "uint256"
            }
          ],
          "payable": false,
          "type": "function"
        },
        {
          "constant": false,
          "inputs": [
            {
              "name": "punkIndex",
              "type": "uint256"
            },
            {
              "name": "minSalePriceInWei",
              "type": "uint256"
            }
          ],
          "name": "offerPunkForSale",
          "outputs": [],
          "payable": false,
          "type": "function"
        },
        {
          "constant": false,
          "inputs": [
            {
              "name": "punkIndex",
              "type": "uint256"
            }
          ],
          "name": "getPunk",
          "outputs": [],
          "payable": false,
          "type": "function"
        },
        {
          "constant": true,
          "inputs": [
            {
              "name": "",
              "type": "address"
            }
          ],
          "name": "pendingWithdrawals",
          "outputs": [
            {
              "name": "",
              "type": "uint256"
            }
          ],
          "payable": false,
          "type": "function"
        },
        {
          "constant": false,
          "inputs": [
            {
              "name": "punkIndex",
              "type": "uint256"
            }
          ],
          "name": "punkNoLongerForSale",
          "outputs": [],
          "payable": false,
          "type": "function"
        },
        {
          "inputs": [],
          "payable": true,
          "type": "constructor"
        },
        {
          "anonymous": false,
          "inputs": [
            {
              "indexed": true,
              "name": "to",
              "type": "address"
            },
            {
              "indexed": false,
              "name": "punkIndex",
              "type": "uint256"
            }
          ],
          "name": "Assign",
          "type": "event"
        },
        {
          "anonymous": false,
          "inputs": [
            {
              "indexed": true,
              "name": "from",
              "type": "address"
            },
            {
              "indexed": true,
              "name": "to",
              "type": "address"
            },
            {
              "indexed": false,
              "name": "value",
              "type": "uint256"
            }
          ],
          "name": "Transfer",
          "type": "event"
        },
        {
          "anonymous": false,
          "inputs": [
            {
              "indexed": true,
              "name": "from",
              "type": "address"
            },
            {
              "indexed": true,
              "name": "to",
              "type": "address"
            },
            {
              "indexed": false,
              "name": "punkIndex",
              "type": "uint256"
            }
          ],
          "name": "PunkTransfer",
          "type": "event"
        },
        {
          "anonymous": false,
          "inputs": [
            {
              "indexed": true,
              "name": "punkIndex",
              "type": "uint256"
            },
            {
              "indexed": false,
              "name": "minValue",
              "type": "uint256"
            },
            {
              "indexed": true,
              "name": "toAddress",
              "type": "address"
            }
          ],
          "name": "PunkOffered",
          "type": "event"
        },
        {
          "anonymous": false,
          "inputs": [
            {
              "indexed": true,
              "name": "punkIndex",
              "type": "uint256"
            },
            {
              "indexed": false,
              "name": "value",
              "type": "uint256"
            },
            {
              "indexed": true,
              "name": "fromAddress",
              "type": "address"
            }
          ],
          "name": "PunkBidEntered",
          "type": "event"
        },
        {
          "anonymous": false,
          "inputs": [
            {
              "indexed": true,
              "name": "punkIndex",
              "type": "uint256"
            },
            {
              "indexed": false,
              "name": "value",
              "type": "uint256"
            },
            {
              "indexed": true,
              "name": "fromAddress",
              "type": "address"
            }
          ],
          "name": "PunkBidWithdrawn",
          "type": "event"
        },
        {
          "anonymous": false,
          "inputs": [
            {
              "indexed": true,
              "name": "punkIndex",
              "type": "uint256"
            },
            {
              "indexed": false,
              "name": "value",
              "type": "uint256"
            },
            {
              "indexed": true,
              "name": "fromAddress",
              "type": "address"
            },
            {
              "indexed": true,
              "name": "toAddress",
              "type": "address"
            }
          ],
          "name": "PunkBought",
          "type": "event"
        },
        {
          "anonymous": false,
          "inputs": [
            {
              "indexed": true,
              "name": "punkIndex",
              "type": "uint256"
            }
          ],
          "name": "PunkNoLongerForSale",
          "type": "event"
        }
      ],
      "devdoc": {
        "methods": {}
      },
      "evm": {
        "assembly": "    /* \"contracts/cryptopunksmarket.sol\":91:9894  contract CryptoPunksMarket {... */\n  mstore(0x40, 0x60)\n    /* \"contracts/cryptopunksmarket.sol\":204:296  string public imageHash = \"ac39af4793119ee46bbff351d8cb6b5f23da60222126add4268e261199a2921b\" */\n  0x60\n  mload(0x40)\n  swap1\n  dup2\n  add\n  0x40\n  mstore\n  dup1\n  0x40\n  dup2\n  mstore\n  0x20\n  add\n  0x6163333961663437393331313965653436626266663335316438636236623566\n  dup2\n  mstore\n  0x20\n  add\n  0x3233646136303232323132366164643432363865323631313939613239323162\n  dup2\n  mstore\n  pop\n  0x0\n  swap1\n  dup1\n  mload\n  swap1\n  0x20\n  add\n  swap1\n  tag_1\n  swap3\n  swap2\n  swap1\n  jump\t// in(tag_2)\ntag_1:\n  pop\n    /* \"contracts/cryptopunksmarket.sol\":323:361  string public standard = 'CryptoPunks' */\n  0x40\n  mload(0x40)\n  swap1\n  dup2\n  add\n  0x40\n  mstore\n  dup1\n  0xb\n  dup2\n  mstore\n  0x20\n  add\n  0x43727970746f50756e6b73000000000000000000000000000000000000000000\n  dup2\n  mstore\n  pop\n  0x2\n  swap1\n  dup1\n  mload\n  swap1\n  0x20\n  add\n  swap1\n  tag_3\n  swap3\n  swap2\n  swap1\n  jump\t// in(tag_2)\ntag_3:\n  pop\n    /* \"contracts/cryptopunksmarket.sol\":513:514  0 */\n  0x0\n    /* \"contracts/cryptopunksmarket.sol\":477:514  uint public nextPunkIndexToAssign = 0 */\n  0x7\n  sstore\n    /* \"contracts/cryptopunksmarket.sol\":552:557  false */\n  0x0\n    /* \"contracts/cryptopunksmarket.sol\":521:557  bool public allPunksAssigned = false */\n  0x8\n  exp(0x100, 0x0)\n  dup2\n  sload\n  dup2\n  0xff\n  mul\n  not\n  and\n  swap1\n  dup4\n  iszero\n  iszero\n  mul\n  or\n  swap1\n  sstore\n  pop\n    /* \"contracts/cryptopunksmarket.sol\":600:601  0 */\n  0x0\n    /* \"contracts/cryptopunksmarket.sol\":563:601  uint public punksRemainingToAssign = 0 */\n  0x9\n  sstore\n    /* \"contracts/cryptopunksmarket.sol\":2222:2820  function CryptoPunksMarket() payable {... */\ntag_4:\n    /* \"contracts/cryptopunksmarket.sol\":2386:2396  msg.sender */\n  caller\n    /* \"contracts/cryptopunksmarket.sol\":2378:2383  owner */\n  0x1\n  0x0\n    /* \"contracts/cryptopunksmarket.sol\":2378:2396  owner = msg.sender */\n  0x100\n  exp\n  dup2\n  sload\n  dup2\n  0xffffffffffffffffffffffffffffffffffffffff\n  mul\n  not\n  and\n  swap1\n  dup4\n  0xffffffffffffffffffffffffffffffffffffffff\n  and\n  mul\n  or\n  swap1\n  sstore\n  pop\n    /* \"contracts/cryptopunksmarket.sol\":2420:2425  10000 */\n  0x2710\n    /* \"contracts/cryptopunksmarket.sol\":2406:2417  totalSupply */\n  0x6\n    /* \"contracts/cryptopunksmarket.sol\":2406:2425  totalSupply = 10000 */\n  dup2\n  swap1\n  sstore\n  pop\n    /* \"contracts/cryptopunksmarket.sol\":2506:2517  totalSupply */\n  sload(0x6)\n    /* \"contracts/cryptopunksmarket.sol\":2481:2503  punksRemainingToAssign */\n  0x9\n    /* \"contracts/cryptopunksmarket.sol\":2481:2517  punksRemainingToAssign = totalSupply */\n  dup2\n  swap1\n  sstore\n  pop\n    /* \"contracts/cryptopunksmarket.sol\":2527:2547  name = \"CRYPTOPUNKS\" */\n  0x40\n  mload(0x40)\n  swap1\n  dup2\n  add\n  0x40\n  mstore\n  dup1\n  0xb\n  dup2\n  mstore\n  0x20\n  add\n  0x43525950544f50554e4b53000000000000000000000000000000000000000000\n  dup2\n  mstore\n  pop\n    /* \"contracts/cryptopunksmarket.sol\":2527:2531  name */\n  0x3\n    /* \"contracts/cryptopunksmarket.sol\":2527:2547  name = \"CRYPTOPUNKS\" */\n  swap1\n  dup1\n  mload\n  swap1\n  0x20\n  add\n  swap1\n  tag_6\n  swap3\n  swap2\n  swap1\n  jump\t// in(tag_2)\ntag_6:\n  pop\n    /* \"contracts/cryptopunksmarket.sol\":2628:2641  symbol = \"Ͼ\" */\n  0x40\n  mload(0x40)\n  swap1\n  dup2\n  add\n  0x40\n  mstore\n  dup1\n  0x2\n  dup2\n  mstore\n  0x20\n  add\n  0xcfbe000000000000000000000000000000000000000000000000000000000000\n  dup2\n  mstore\n  pop\n    /* \"contracts/cryptopunksmarket.sol\":2628:2634  symbol */\n  0x4\n    /* \"contracts/cryptopunksmarket.sol\":2628:2641  symbol = \"Ͼ\" */\n  swap1\n  dup1\n  mload\n  swap1\n  0x20\n  add\n  swap1\n  tag_7\n  swap3\n  swap2\n  swap1\n  jump\t// in(tag_2)\ntag_7:\n  pop\n    /* \"contracts/cryptopunksmarket.sol\":2731:2732  0 */\n  0x0\n    /* \"contracts/cryptopunksmarket.sol\":2720:2728  decimals */\n  0x5\n  0x0\n    /* \"contracts/cryptopunksmarket.sol\":2720:2732  decimals = 0 */\n  0x100\n  exp\n  dup2\n  sload\n  dup2\n  0xff\n  mul\n  not\n  and\n  swap1\n  dup4\n  0xff\n  and\n  mul\n  or\n  swap1\n  sstore\n  pop\n    /* \"contracts/cryptopunksmarket.sol\":2222:2820  function CryptoPunksMarket() payable {... */\ntag_5:\n    /* \"contracts/cryptopunksmarket.sol\":91:9894  contract CryptoPunksMarket {... */\n  jump(tag_8)\ntag_2:\n  dup3\n  dup1\n  sload\n  0x1\n  dup2\n  0x1\n  and\n  iszero\n  0x100\n  mul\n  sub\n  and\n  0x2\n  swap1\n  div\n  swap1\n  0x0\n  mstore\n  sha3(0x0, 0x20)\n  swap1\n  0x1f\n  add\n  0x20\n  swap1\n  div\n  dup2\n  add\n  swap3\n  dup3\n  0x1f\n  lt\n  tag_10\n  jumpi\n  dup1\n  mload\n  not(0xff)\n  and\n  dup4\n  dup1\n  add\n  or\n  dup6\n  sstore\n  jump(tag_9)\ntag_10:\n  dup3\n  dup1\n  add\n  0x1\n  add\n  dup6\n  sstore\n  dup3\n  iszero\n  tag_9\n  jumpi\n  swap2\n  dup3\n  add\ntag_11:\n  dup3\n  dup2\n  gt\n  iszero\n  tag_12\n  jumpi\n  dup3\n  mload\n  dup3\n  sstore\n  swap2\n  0x20\n  add\n  swap2\n  swap1\n  0x1\n  add\n  swap1\n  jump(tag_11)\ntag_12:\ntag_9:\n  pop\n  swap1\n  pop\n  tag_13\n  swap2\n  swap1\n  jump\t// in(tag_14)\ntag_13:\n  pop\n  swap1\n  jump\t// out\ntag_14:\n  tag_15\n  swap2\n  swap1\ntag_16:\n  dup1\n  dup3\n  gt\n  iszero\n  tag_17\n  jumpi\n  0x0\n  dup2\n  0x0\n  swap1\n  sstore\n  pop\n  0x1\n  add\n  jump(tag_16)\ntag_17:\n  pop\n  swap1\n  jump\ntag_15:\n  swap1\n  jump\t// out\ntag_8:\n  dataSize(sub_0)\n  dup1\n  dataOffset(sub_0)\n  0x0\n  codecopy\n  0x0\n  return\nstop\n\nsub_0: assembly {\n        /* \"contracts/cryptopunksmarket.sol\":91:9894  contract CryptoPunksMarket {... */\n      mstore(0x40, 0x60)\n      jumpi(tag_1, iszero(calldatasize))\n      calldataload(0x0)\n      0x100000000000000000000000000000000000000000000000000000000\n      swap1\n      div\n      0xffffffff\n      and\n      dup1\n      0x6fdde03\n      eq\n      tag_2\n      jumpi\n      dup1\n      0x88f11f3\n      eq\n      tag_3\n      jumpi\n      dup1\n      0x91dbfd2\n      eq\n      tag_4\n      jumpi\n      dup1\n      0x18160ddd\n      eq\n      tag_5\n      jumpi\n      dup1\n      0x23165b75\n      eq\n      tag_6\n      jumpi\n      dup1\n      0x313ce567\n      eq\n      tag_7\n      jumpi\n      dup1\n      0x39c5dde6\n      eq\n      tag_8\n      jumpi\n      dup1\n      0x3ccfd60b\n      eq\n      tag_9\n      jumpi\n      dup1\n      0x51605d80\n      eq\n      tag_10\n      jumpi\n      dup1\n      0x52f29a25\n      eq\n      tag_11\n      jumpi\n      dup1\n      0x58178168\n      eq\n      tag_12\n      jumpi\n      dup1\n      0x5a3b7e42\n      eq\n      tag_13\n      jumpi\n      dup1\n      0x6e743fa9\n      eq\n      tag_14\n      jumpi\n      dup1\n      0x70a08231\n      eq\n      tag_15\n      jumpi\n      dup1\n      0x7ecedac9\n      eq\n      tag_16\n      jumpi\n      dup1\n      0x8126c38a\n      eq\n      tag_17\n      jumpi\n      dup1\n      0x8264fe98\n      eq\n      tag_18\n      jumpi\n      dup1\n      0x8b72a2ec\n      eq\n      tag_19\n      jumpi\n      dup1\n      0x95d89b41\n      eq\n      tag_20\n      jumpi\n      dup1\n      0x979bc638\n      eq\n      tag_21\n      jumpi\n      dup1\n      0xa75a9049\n      eq\n      tag_22\n      jumpi\n      dup1\n      0xbf31196f\n      eq\n      tag_23\n      jumpi\n      dup1\n      0xc0d6ce63\n      eq\n      tag_24\n      jumpi\n      dup1\n      0xc44193c3\n      eq\n      tag_25\n      jumpi\n      dup1\n      0xc81d1d5b\n      eq\n      tag_26\n      jumpi\n      dup1\n      0xf3f43703\n      eq\n      tag_27\n      jumpi\n      dup1\n      0xf6eeff1e\n      eq\n      tag_28\n      jumpi\n    tag_1:\n      invalid\n        /* \"contracts/cryptopunksmarket.sol\":367:385  string public name */\n    tag_2:\n      jumpi(tag_29, iszero(callvalue))\n      invalid\n    tag_29:\n      tag_30\n      jump(tag_31)\n    tag_30:\n      mload(0x40)\n      dup1\n      dup1\n      0x20\n      add\n      dup3\n      dup2\n      sub\n      dup3\n      mstore\n      dup4\n      dup2\n      dup2\n      mload\n      dup2\n      mstore\n      0x20\n      add\n      swap2\n      pop\n      dup1\n      mload\n      swap1\n      0x20\n      add\n      swap1\n      dup1\n      dup4\n      dup4\n        /* \"--CODEGEN--\":26:27   */\n      0x0\n        /* \"--CODEGEN--\":21:24   */\n      dup4\n        /* \"--CODEGEN--\":18:20   */\n      eq\n        /* \"--CODEGEN--\":13:16   */\n      tag_32\n        /* \"--CODEGEN--\":7:12   */\n      jumpi\n        /* \"--CODEGEN--\":32:37   */\n    tag_33:\n        /* \"--CODEGEN--\":59:62   */\n      dup1\n        /* \"--CODEGEN--\":53:58   */\n      mload\n        /* \"--CODEGEN--\":48:51   */\n      dup3\n        /* \"--CODEGEN--\":41:47   */\n      mstore\n        /* \"--CODEGEN--\":93:95   */\n      0x20\n        /* \"--CODEGEN--\":88:91   */\n      dup4\n        /* \"--CODEGEN--\":85:87   */\n      gt\n        /* \"--CODEGEN--\":78:84   */\n      iszero\n        /* \"--CODEGEN--\":73:76   */\n      tag_32\n        /* \"--CODEGEN--\":67:72   */\n      jumpi\n        /* \"--CODEGEN--\":117:119   */\n      0x20\n        /* \"--CODEGEN--\":112:115   */\n      dup3\n        /* \"--CODEGEN--\":108:111   */\n      add\n        /* \"--CODEGEN--\":101:120   */\n      swap2\n      pop\n        /* \"--CODEGEN--\":139:141   */\n      0x20\n        /* \"--CODEGEN--\":134:137   */\n      dup2\n        /* \"--CODEGEN--\":130:133   */\n      add\n        /* \"--CODEGEN--\":123:142   */\n      swap1\n      pop\n        /* \"--CODEGEN--\":161:163   */\n      0x20\n        /* \"--CODEGEN--\":156:159   */\n      dup4\n        /* \"--CODEGEN--\":152:155   */\n      sub\n        /* \"--CODEGEN--\":145:164   */\n      swap3\n      pop\n        /* \"--CODEGEN--\":172:177   */\n      tag_33\n        /* \"--CODEGEN--\":167:171   */\n      jump\n        /* \"--CODEGEN--\":181:184   */\n    tag_32:\n        /* \"--CODEGEN--\":3:189   */\n      pop\n      pop\n      pop\n      swap1\n      pop\n      swap1\n      dup2\n      add\n      swap1\n      0x1f\n      and\n      dup1\n      iszero\n      tag_34\n      jumpi\n      dup1\n      dup3\n      sub\n      dup1\n      mload\n      0x1\n      dup4\n      0x20\n      sub\n      0x100\n      exp\n      sub\n      not\n      and\n      dup2\n      mstore\n      0x20\n      add\n      swap2\n      pop\n    tag_34:\n      pop\n      swap3\n      pop\n      pop\n      pop\n      mload(0x40)\n      dup1\n      swap2\n      sub\n      swap1\n      return\n        /* \"contracts/cryptopunksmarket.sol\":1272:1322  mapping (uint => Offer) public punksOfferedForSale */\n    tag_3:\n      jumpi(tag_35, iszero(callvalue))\n      invalid\n    tag_35:\n      tag_36\n      0x4\n      dup1\n      dup1\n      calldataload\n      swap1\n      0x20\n      add\n      swap1\n      swap2\n      swap1\n      pop\n      pop\n      jump(tag_37)\n    tag_36:\n      mload(0x40)\n      dup1\n      dup7\n      iszero\n      iszero\n      iszero\n      iszero\n      dup2\n      mstore\n      0x20\n      add\n      dup6\n      dup2\n      mstore\n      0x20\n      add\n      dup5\n      0xffffffffffffffffffffffffffffffffffffffff\n      and\n      0xffffffffffffffffffffffffffffffffffffffff\n      and\n      dup2\n      mstore\n      0x20\n      add\n      dup4\n      dup2\n      mstore\n      0x20\n      add\n      dup3\n      0xffffffffffffffffffffffffffffffffffffffff\n      and\n      0xffffffffffffffffffffffffffffffffffffffff\n      and\n      dup2\n      mstore\n      0x20\n      add\n      swap6\n      pop\n      pop\n      pop\n      pop\n      pop\n      pop\n      mload(0x40)\n      dup1\n      swap2\n      sub\n      swap1\n      return\n        /* \"contracts/cryptopunksmarket.sol\":7810:8489  function enterBidForPunk(uint punkIndex) payable {... */\n    tag_4:\n      tag_38\n      0x4\n      dup1\n      dup1\n      calldataload\n      swap1\n      0x20\n      add\n      swap1\n      swap2\n      swap1\n      pop\n      pop\n      jump(tag_39)\n    tag_38:\n      stop\n        /* \"contracts/cryptopunksmarket.sol\":444:470  uint256 public totalSupply */\n    tag_5:\n      jumpi(tag_40, iszero(callvalue))\n      invalid\n    tag_40:\n      tag_41\n      jump(tag_42)\n    tag_41:\n      mload(0x40)\n      dup1\n      dup3\n      dup2\n      mstore\n      0x20\n      add\n      swap2\n      pop\n      pop\n      mload(0x40)\n      dup1\n      swap2\n      sub\n      swap1\n      return\n        /* \"contracts/cryptopunksmarket.sol\":8495:9313  function acceptBidForPunk(uint punkIndex, uint minPrice) {... */\n    tag_6:\n      jumpi(tag_43, iszero(callvalue))\n      invalid\n    tag_43:\n      tag_44\n      0x4\n      dup1\n      dup1\n      calldataload\n      swap1\n      0x20\n      add\n      swap1\n      swap2\n      swap1\n      dup1\n      calldataload\n      swap1\n      0x20\n      add\n      swap1\n      swap2\n      swap1\n      pop\n      pop\n      jump(tag_45)\n    tag_44:\n      stop\n        /* \"contracts/cryptopunksmarket.sol\":417:438  uint8 public decimals */\n    tag_7:\n      jumpi(tag_46, iszero(callvalue))\n      invalid\n    tag_46:\n      tag_47\n      jump(tag_48)\n    tag_47:\n      mload(0x40)\n      dup1\n      dup3\n      0xff\n      and\n      0xff\n      and\n      dup2\n      mstore\n      0x20\n      add\n      swap2\n      pop\n      pop\n      mload(0x40)\n      dup1\n      swap2\n      sub\n      swap1\n      return\n        /* \"contracts/cryptopunksmarket.sol\":3374:3623  function setInitialOwners(address[] addresses, uint[] indices) {... */\n    tag_8:\n      jumpi(tag_49, iszero(callvalue))\n      invalid\n    tag_49:\n      tag_50\n      0x4\n      dup1\n      dup1\n      calldataload\n      swap1\n      0x20\n      add\n      swap1\n      dup3\n      add\n      dup1\n      calldataload\n      swap1\n      0x20\n      add\n      swap1\n      dup1\n      dup1\n      0x20\n      mul\n      0x20\n      add\n      mload(0x40)\n      swap1\n      dup2\n      add\n      0x40\n      mstore\n      dup1\n      swap4\n      swap3\n      swap2\n      swap1\n      dup2\n      dup2\n      mstore\n      0x20\n      add\n      dup4\n      dup4\n      0x20\n      mul\n      dup1\n      dup3\n      dup5\n      calldatacopy\n      dup3\n      add\n      swap2\n      pop\n      pop\n      pop\n      pop\n      pop\n      pop\n      swap2\n      swap1\n      dup1\n      calldataload\n      swap1\n      0x20\n      add\n      swap1\n      dup3\n      add\n      dup1\n      calldataload\n      swap1\n      0x20\n      add\n      swap1\n      dup1\n      dup1\n      0x20\n      mul\n      0x20\n      add\n      mload(0x40)\n      swap1\n      dup2\n      add\n      0x40\n      mstore\n      dup1\n      swap4\n      swap3\n      swap2\n      swap1\n      dup2\n      dup2\n      mstore\n      0x20\n      add\n      dup4\n      dup4\n      0x20\n      mul\n      dup1\n      dup3\n      dup5\n      calldatacopy\n      dup3\n      add\n      swap2\n      pop\n      pop\n      pop\n      pop\n      pop\n      pop\n      swap2\n      swap1\n      pop\n      pop\n      jump(tag_51)\n    tag_50:\n      stop\n        /* \"contracts/cryptopunksmarket.sol\":7500:7804  function withdraw() {... */\n    tag_9:\n      jumpi(tag_52, iszero(callvalue))\n      invalid\n    tag_52:\n      tag_53\n      jump(tag_54)\n    tag_53:\n      stop\n        /* \"contracts/cryptopunksmarket.sol\":204:296  string public imageHash = \"ac39af4793119ee46bbff351d8cb6b5f23da60222126add4268e261199a2921b\" */\n    tag_10:\n      jumpi(tag_55, iszero(callvalue))\n      invalid\n    tag_55:\n      tag_56\n      jump(tag_57)\n    tag_56:\n      mload(0x40)\n      dup1\n      dup1\n      0x20\n      add\n      dup3\n      dup2\n      sub\n      dup3\n      mstore\n      dup4\n      dup2\n      dup2\n      mload\n      dup2\n      mstore\n      0x20\n      add\n      swap2\n      pop\n      dup1\n      mload\n      swap1\n      0x20\n      add\n      swap1\n      dup1\n      dup4\n      dup4\n        /* \"--CODEGEN--\":26:27   */\n      0x0\n        /* \"--CODEGEN--\":21:24   */\n      dup4\n        /* \"--CODEGEN--\":18:20   */\n      eq\n        /* \"--CODEGEN--\":13:16   */\n      tag_58\n        /* \"--CODEGEN--\":7:12   */\n      jumpi\n        /* \"--CODEGEN--\":32:37   */\n    tag_59:\n        /* \"--CODEGEN--\":59:62   */\n      dup1\n        /* \"--CODEGEN--\":53:58   */\n      mload\n        /* \"--CODEGEN--\":48:51   */\n      dup3\n        /* \"--CODEGEN--\":41:47   */\n      mstore\n        /* \"--CODEGEN--\":93:95   */\n      0x20\n        /* \"--CODEGEN--\":88:91   */\n      dup4\n        /* \"--CODEGEN--\":85:87   */\n      gt\n        /* \"--CODEGEN--\":78:84   */\n      iszero\n        /* \"--CODEGEN--\":73:76   */\n      tag_58\n        /* \"--CODEGEN--\":67:72   */\n      jumpi\n        /* \"--CODEGEN--\":117:119   */\n      0x20\n        /* \"--CODEGEN--\":112:115   */\n      dup3\n        /* \"--CODEGEN--\":108:111   */\n      add\n        /* \"--CODEGEN--\":101:120   */\n      swap2\n      pop\n        /* \"--CODEGEN--\":139:141   */\n      0x20\n        /* \"--CODEGEN--\":134:137   */\n      dup2\n        /* \"--CODEGEN--\":130:133   */\n      add\n        /* \"--CODEGEN--\":123:142   */\n      swap1\n      pop\n        /* \"--CODEGEN--\":161:163   */\n      0x20\n        /* \"--CODEGEN--\":156:159   */\n      dup4\n        /* \"--CODEGEN--\":152:155   */\n      sub\n        /* \"--CODEGEN--\":145:164   */\n      swap3\n      pop\n        /* \"--CODEGEN--\":172:177   */\n      tag_59\n        /* \"--CODEGEN--\":167:171   */\n      jump\n        /* \"--CODEGEN--\":181:184   */\n    tag_58:\n        /* \"--CODEGEN--\":3:189   */\n      pop\n      pop\n      pop\n      swap1\n      pop\n      swap1\n      dup2\n      add\n      swap1\n      0x1f\n      and\n      dup1\n      iszero\n      tag_60\n      jumpi\n      dup1\n      dup3\n      sub\n      dup1\n      mload\n      0x1\n      dup4\n      0x20\n      sub\n      0x100\n      exp\n      sub\n      not\n      and\n      dup2\n      mstore\n      0x20\n      add\n      swap2\n      pop\n    tag_60:\n      pop\n      swap3\n      pop\n      pop\n      pop\n      mload(0x40)\n      dup1\n      swap2\n      sub\n      swap1\n      return\n        /* \"contracts/cryptopunksmarket.sol\":477:514  uint public nextPunkIndexToAssign = 0 */\n    tag_11:\n      jumpi(tag_61, iszero(callvalue))\n      invalid\n    tag_61:\n      tag_62\n      jump(tag_63)\n    tag_62:\n      mload(0x40)\n      dup1\n      dup3\n      dup2\n      mstore\n      0x20\n      add\n      swap2\n      pop\n      pop\n      mload(0x40)\n      dup1\n      swap2\n      sub\n      swap1\n      return\n        /* \"contracts/cryptopunksmarket.sol\":667:718  mapping (uint => address) public punkIndexToAddress */\n    tag_12:\n      jumpi(tag_64, iszero(callvalue))\n      invalid\n    tag_64:\n      tag_65\n      0x4\n      dup1\n      dup1\n      calldataload\n      swap1\n      0x20\n      add\n      swap1\n      swap2\n      swap1\n      pop\n      pop\n      jump(tag_66)\n    tag_65:\n      mload(0x40)\n      dup1\n      dup3\n      0xffffffffffffffffffffffffffffffffffffffff\n      and\n      0xffffffffffffffffffffffffffffffffffffffff\n      and\n      dup2\n      mstore\n      0x20\n      add\n      swap2\n      pop\n      pop\n      mload(0x40)\n      dup1\n      swap2\n      sub\n      swap1\n      return\n        /* \"contracts/cryptopunksmarket.sol\":323:361  string public standard = 'CryptoPunks' */\n    tag_13:\n      jumpi(tag_67, iszero(callvalue))\n      invalid\n    tag_67:\n      tag_68\n      jump(tag_69)\n    tag_68:\n      mload(0x40)\n      dup1\n      dup1\n      0x20\n      add\n      dup3\n      dup2\n      sub\n      dup3\n      mstore\n      dup4\n      dup2\n      dup2\n      mload\n      dup2\n      mstore\n      0x20\n      add\n      swap2\n      pop\n      dup1\n      mload\n      swap1\n      0x20\n      add\n      swap1\n      dup1\n      dup4\n      dup4\n        /* \"--CODEGEN--\":26:27   */\n      0x0\n        /* \"--CODEGEN--\":21:24   */\n      dup4\n        /* \"--CODEGEN--\":18:20   */\n      eq\n        /* \"--CODEGEN--\":13:16   */\n      tag_70\n        /* \"--CODEGEN--\":7:12   */\n      jumpi\n        /* \"--CODEGEN--\":32:37   */\n    tag_71:\n        /* \"--CODEGEN--\":59:62   */\n      dup1\n        /* \"--CODEGEN--\":53:58   */\n      mload\n        /* \"--CODEGEN--\":48:51   */\n      dup3\n        /* \"--CODEGEN--\":41:47   */\n      mstore\n        /* \"--CODEGEN--\":93:95   */\n      0x20\n        /* \"--CODEGEN--\":88:91   */\n      dup4\n        /* \"--CODEGEN--\":85:87   */\n      gt\n        /* \"--CODEGEN--\":78:84   */\n      iszero\n        /* \"--CODEGEN--\":73:76   */\n      tag_70\n        /* \"--CODEGEN--\":67:72   */\n      jumpi\n        /* \"--CODEGEN--\":117:119   */\n      0x20\n        /* \"--CODEGEN--\":112:115   */\n      dup3\n        /* \"--CODEGEN--\":108:111   */\n      add\n        /* \"--CODEGEN--\":101:120   */\n      swap2\n      pop\n        /* \"--CODEGEN--\":139:141   */\n      0x20\n        /* \"--CODEGEN--\":134:137   */\n      dup2\n        /* \"--CODEGEN--\":130:133   */\n      add\n        /* \"--CODEGEN--\":123:142   */\n      swap1\n      pop\n        /* \"--CODEGEN--\":161:163   */\n      0x20\n        /* \"--CODEGEN--\":156:159   */\n      dup4\n        /* \"--CODEGEN--\":152:155   */\n      sub\n        /* \"--CODEGEN--\":145:164   */\n      swap3\n      pop\n        /* \"--CODEGEN--\":172:177   */\n      tag_71\n        /* \"--CODEGEN--\":167:171   */\n      jump\n        /* \"--CODEGEN--\":181:184   */\n    tag_70:\n        /* \"--CODEGEN--\":3:189   */\n      pop\n      pop\n      pop\n      swap1\n      pop\n      swap1\n      dup2\n      add\n      swap1\n      0x1f\n      and\n      dup1\n      iszero\n      tag_72\n      jumpi\n      dup1\n      dup3\n      sub\n      dup1\n      mload\n      0x1\n      dup4\n      0x20\n      sub\n      0x100\n      exp\n      sub\n      not\n      and\n      dup2\n      mstore\n      0x20\n      add\n      swap2\n      pop\n    tag_72:\n      pop\n      swap3\n      pop\n      pop\n      pop\n      mload(0x40)\n      dup1\n      swap2\n      sub\n      swap1\n      return\n        /* \"contracts/cryptopunksmarket.sol\":1369:1406  mapping (uint => Bid) public punkBids */\n    tag_14:\n      jumpi(tag_73, iszero(callvalue))\n      invalid\n    tag_73:\n      tag_74\n      0x4\n      dup1\n      dup1\n      calldataload\n      swap1\n      0x20\n      add\n      swap1\n      swap2\n      swap1\n      pop\n      pop\n      jump(tag_75)\n    tag_74:\n      mload(0x40)\n      dup1\n      dup6\n      iszero\n      iszero\n      iszero\n      iszero\n      dup2\n      mstore\n      0x20\n      add\n      dup5\n      dup2\n      mstore\n      0x20\n      add\n      dup4\n      0xffffffffffffffffffffffffffffffffffffffff\n      and\n      0xffffffffffffffffffffffffffffffffffffffff\n      and\n      dup2\n      mstore\n      0x20\n      add\n      dup3\n      dup2\n      mstore\n      0x20\n      add\n      swap5\n      pop\n      pop\n      pop\n      pop\n      pop\n      mload(0x40)\n      dup1\n      swap2\n      sub\n      swap1\n      return\n        /* \"contracts/cryptopunksmarket.sol\":775:820  mapping (address => uint256) public balanceOf */\n    tag_15:\n      jumpi(tag_76, iszero(callvalue))\n      invalid\n    tag_76:\n      tag_77\n      0x4\n      dup1\n      dup1\n      calldataload\n      0xffffffffffffffffffffffffffffffffffffffff\n      and\n      swap1\n      0x20\n      add\n      swap1\n      swap2\n      swap1\n      pop\n      pop\n      jump(tag_78)\n    tag_77:\n      mload(0x40)\n      dup1\n      dup3\n      dup2\n      mstore\n      0x20\n      add\n      swap2\n      pop\n      pop\n      mload(0x40)\n      dup1\n      swap2\n      sub\n      swap1\n      return\n        /* \"contracts/cryptopunksmarket.sol\":3629:3745  function allInitialOwnersAssigned() {... */\n    tag_16:\n      jumpi(tag_79, iszero(callvalue))\n      invalid\n    tag_79:\n      tag_80\n      jump(tag_81)\n    tag_80:\n      stop\n        /* \"contracts/cryptopunksmarket.sol\":521:557  bool public allPunksAssigned = false */\n    tag_17:\n      jumpi(tag_82, iszero(callvalue))\n      invalid\n    tag_82:\n      tag_83\n      jump(tag_84)\n    tag_83:\n      mload(0x40)\n      dup1\n      dup3\n      iszero\n      iszero\n      iszero\n      iszero\n      dup2\n      mstore\n      0x20\n      add\n      swap2\n      pop\n      pop\n      mload(0x40)\n      dup1\n      swap2\n      sub\n      swap1\n      return\n        /* \"contracts/cryptopunksmarket.sol\":6201:7494  function buyPunk(uint punkIndex) payable {... */\n    tag_18:\n      tag_85\n      0x4\n      dup1\n      dup1\n      calldataload\n      swap1\n      0x20\n      add\n      swap1\n      swap2\n      swap1\n      pop\n      pop\n      jump(tag_86)\n    tag_85:\n      stop\n        /* \"contracts/cryptopunksmarket.sol\":4215:5076  function transferPunk(address to, uint punkIndex) {... */\n    tag_19:\n      jumpi(tag_87, iszero(callvalue))\n      invalid\n    tag_87:\n      tag_88\n      0x4\n      dup1\n      dup1\n      calldataload\n      0xffffffffffffffffffffffffffffffffffffffff\n      and\n      swap1\n      0x20\n      add\n      swap1\n      swap2\n      swap1\n      dup1\n      calldataload\n      swap1\n      0x20\n      add\n      swap1\n      swap2\n      swap1\n      pop\n      pop\n      jump(tag_89)\n    tag_88:\n      stop\n        /* \"contracts/cryptopunksmarket.sol\":391:411  string public symbol */\n    tag_20:\n      jumpi(tag_90, iszero(callvalue))\n      invalid\n    tag_90:\n      tag_91\n      jump(tag_92)\n    tag_91:\n      mload(0x40)\n      dup1\n      dup1\n      0x20\n      add\n      dup3\n      dup2\n      sub\n      dup3\n      mstore\n      dup4\n      dup2\n      dup2\n      mload\n      dup2\n      mstore\n      0x20\n      add\n      swap2\n      pop\n      dup1\n      mload\n      swap1\n      0x20\n      add\n      swap1\n      dup1\n      dup4\n      dup4\n        /* \"--CODEGEN--\":26:27   */\n      0x0\n        /* \"--CODEGEN--\":21:24   */\n      dup4\n        /* \"--CODEGEN--\":18:20   */\n      eq\n        /* \"--CODEGEN--\":13:16   */\n      tag_93\n        /* \"--CODEGEN--\":7:12   */\n      jumpi\n        /* \"--CODEGEN--\":32:37   */\n    tag_94:\n        /* \"--CODEGEN--\":59:62   */\n      dup1\n        /* \"--CODEGEN--\":53:58   */\n      mload\n        /* \"--CODEGEN--\":48:51   */\n      dup3\n        /* \"--CODEGEN--\":41:47   */\n      mstore\n        /* \"--CODEGEN--\":93:95   */\n      0x20\n        /* \"--CODEGEN--\":88:91   */\n      dup4\n        /* \"--CODEGEN--\":85:87   */\n      gt\n        /* \"--CODEGEN--\":78:84   */\n      iszero\n        /* \"--CODEGEN--\":73:76   */\n      tag_93\n        /* \"--CODEGEN--\":67:72   */\n      jumpi\n        /* \"--CODEGEN--\":117:119   */\n      0x20\n        /* \"--CODEGEN--\":112:115   */\n      dup3\n        /* \"--CODEGEN--\":108:111   */\n      add\n        /* \"--CODEGEN--\":101:120   */\n      swap2\n      pop\n        /* \"--CODEGEN--\":139:141   */\n      0x20\n        /* \"--CODEGEN--\":134:137   */\n      dup2\n        /* \"--CODEGEN--\":130:133   */\n      add\n        /* \"--CODEGEN--\":123:142   */\n      swap1\n      pop\n        /* \"--CODEGEN--\":161:163   */\n      0x20\n        /* \"--CODEGEN--\":156:159   */\n      dup4\n        /* \"--CODEGEN--\":152:155   */\n      sub\n        /* \"--CODEGEN--\":145:164   */\n      swap3\n      pop\n        /* \"--CODEGEN--\":172:177   */\n      tag_94\n        /* \"--CODEGEN--\":167:171   */\n      jump\n        /* \"--CODEGEN--\":181:184   */\n    tag_93:\n        /* \"--CODEGEN--\":3:189   */\n      pop\n      pop\n      pop\n      swap1\n      pop\n      swap1\n      dup2\n      add\n      swap1\n      0x1f\n      and\n      dup1\n      iszero\n      tag_95\n      jumpi\n      dup1\n      dup3\n      sub\n      dup1\n      mload\n      0x1\n      dup4\n      0x20\n      sub\n      0x100\n      exp\n      sub\n      not\n      and\n      dup2\n      mstore\n      0x20\n      add\n      swap2\n      pop\n    tag_95:\n      pop\n      swap3\n      pop\n      pop\n      pop\n      mload(0x40)\n      dup1\n      swap2\n      sub\n      swap1\n      return\n        /* \"contracts/cryptopunksmarket.sol\":9319:9891  function withdrawBidForPunk(uint punkIndex) {... */\n    tag_21:\n      jumpi(tag_96, iszero(callvalue))\n      invalid\n    tag_96:\n      tag_97\n      0x4\n      dup1\n      dup1\n      calldataload\n      swap1\n      0x20\n      add\n      swap1\n      swap2\n      swap1\n      pop\n      pop\n      jump(tag_98)\n    tag_97:\n      stop\n        /* \"contracts/cryptopunksmarket.sol\":2826:3368  function setInitialOwner(address to, uint punkIndex) {... */\n    tag_22:\n      jumpi(tag_99, iszero(callvalue))\n      invalid\n    tag_99:\n      tag_100\n      0x4\n      dup1\n      dup1\n      calldataload\n      0xffffffffffffffffffffffffffffffffffffffff\n      and\n      swap1\n      0x20\n      add\n      swap1\n      swap2\n      swap1\n      dup1\n      calldataload\n      swap1\n      0x20\n      add\n      swap1\n      swap2\n      swap1\n      pop\n      pop\n      jump(tag_101)\n    tag_100:\n      stop\n        /* \"contracts/cryptopunksmarket.sol\":5784:6195  function offerPunkForSaleToAddress(uint punkIndex, uint minSalePriceInWei, address toAddress) {... */\n    tag_23:\n      jumpi(tag_102, iszero(callvalue))\n      invalid\n    tag_102:\n      tag_103\n      0x4\n      dup1\n      dup1\n      calldataload\n      swap1\n      0x20\n      add\n      swap1\n      swap2\n      swap1\n      dup1\n      calldataload\n      swap1\n      0x20\n      add\n      swap1\n      swap2\n      swap1\n      dup1\n      calldataload\n      0xffffffffffffffffffffffffffffffffffffffff\n      and\n      swap1\n      0x20\n      add\n      swap1\n      swap2\n      swap1\n      pop\n      pop\n      jump(tag_104)\n    tag_103:\n      stop\n        /* \"contracts/cryptopunksmarket.sol\":563:601  uint public punksRemainingToAssign = 0 */\n    tag_24:\n      jumpi(tag_105, iszero(callvalue))\n      invalid\n    tag_105:\n      tag_106\n      jump(tag_107)\n    tag_106:\n      mload(0x40)\n      dup1\n      dup3\n      dup2\n      mstore\n      0x20\n      add\n      swap2\n      pop\n      pop\n      mload(0x40)\n      dup1\n      swap2\n      sub\n      swap1\n      return\n        /* \"contracts/cryptopunksmarket.sol\":5407:5778  function offerPunkForSale(uint punkIndex, uint minSalePriceInWei) {... */\n    tag_25:\n      jumpi(tag_108, iszero(callvalue))\n      invalid\n    tag_108:\n      tag_109\n      0x4\n      dup1\n      dup1\n      calldataload\n      swap1\n      0x20\n      add\n      swap1\n      swap2\n      swap1\n      dup1\n      calldataload\n      swap1\n      0x20\n      add\n      swap1\n      swap2\n      swap1\n      pop\n      pop\n      jump(tag_110)\n    tag_109:\n      stop\n        /* \"contracts/cryptopunksmarket.sol\":3751:4131  function getPunk(uint punkIndex) {... */\n    tag_26:\n      jumpi(tag_111, iszero(callvalue))\n      invalid\n    tag_111:\n      tag_112\n      0x4\n      dup1\n      dup1\n      calldataload\n      swap1\n      0x20\n      add\n      swap1\n      swap2\n      swap1\n      pop\n      pop\n      jump(tag_113)\n    tag_112:\n      stop\n        /* \"contracts/cryptopunksmarket.sol\":1413:1464  mapping (address => uint) public pendingWithdrawals */\n    tag_27:\n      jumpi(tag_114, iszero(callvalue))\n      invalid\n    tag_114:\n      tag_115\n      0x4\n      dup1\n      dup1\n      calldataload\n      0xffffffffffffffffffffffffffffffffffffffff\n      and\n      swap1\n      0x20\n      add\n      swap1\n      swap2\n      swap1\n      pop\n      pop\n      jump(tag_116)\n    tag_115:\n      mload(0x40)\n      dup1\n      dup3\n      dup2\n      mstore\n      0x20\n      add\n      swap2\n      pop\n      pop\n      mload(0x40)\n      dup1\n      swap2\n      sub\n      swap1\n      return\n        /* \"contracts/cryptopunksmarket.sol\":5082:5401  function punkNoLongerForSale(uint punkIndex) {... */\n    tag_28:\n      jumpi(tag_117, iszero(callvalue))\n      invalid\n    tag_117:\n      tag_118\n      0x4\n      dup1\n      dup1\n      calldataload\n      swap1\n      0x20\n      add\n      swap1\n      swap2\n      swap1\n      pop\n      pop\n      jump(tag_119)\n    tag_118:\n      stop\n        /* \"contracts/cryptopunksmarket.sol\":367:385  string public name */\n    tag_31:\n      0x3\n      dup1\n      sload\n      0x1\n      dup2\n      0x1\n      and\n      iszero\n      0x100\n      mul\n      sub\n      and\n      0x2\n      swap1\n      div\n      dup1\n      0x1f\n      add\n      0x20\n      dup1\n      swap2\n      div\n      mul\n      0x20\n      add\n      mload(0x40)\n      swap1\n      dup2\n      add\n      0x40\n      mstore\n      dup1\n      swap3\n      swap2\n      swap1\n      dup2\n      dup2\n      mstore\n      0x20\n      add\n      dup3\n      dup1\n      sload\n      0x1\n      dup2\n      0x1\n      and\n      iszero\n      0x100\n      mul\n      sub\n      and\n      0x2\n      swap1\n      div\n      dup1\n      iszero\n      tag_120\n      jumpi\n      dup1\n      0x1f\n      lt\n      tag_121\n      jumpi\n      0x100\n      dup1\n      dup4\n      sload\n      div\n      mul\n      dup4\n      mstore\n      swap2\n      0x20\n      add\n      swap2\n      jump(tag_120)\n    tag_121:\n      dup3\n      add\n      swap2\n      swap1\n      0x0\n      mstore\n      sha3(0x0, 0x20)\n      swap1\n    tag_122:\n      dup2\n      sload\n      dup2\n      mstore\n      swap1\n      0x1\n      add\n      swap1\n      0x20\n      add\n      dup1\n      dup4\n      gt\n      tag_122\n      jumpi\n      dup3\n      swap1\n      sub\n      0x1f\n      and\n      dup3\n      add\n      swap2\n    tag_120:\n      pop\n      pop\n      pop\n      pop\n      pop\n      dup2\n      jump\t// out\n        /* \"contracts/cryptopunksmarket.sol\":1272:1322  mapping (uint => Offer) public punksOfferedForSale */\n    tag_37:\n      mstore(0x20, 0xc)\n      dup1\n      0x0\n      mstore\n      sha3(0x0, 0x40)\n      0x0\n      swap2\n      pop\n      swap1\n      pop\n      dup1\n      0x0\n      add\n      0x0\n      swap1\n      sload\n      swap1\n      0x100\n      exp\n      swap1\n      div\n      0xff\n      and\n      swap1\n      dup1\n      0x1\n      add\n      sload\n      swap1\n      dup1\n      0x2\n      add\n      0x0\n      swap1\n      sload\n      swap1\n      0x100\n      exp\n      swap1\n      div\n      0xffffffffffffffffffffffffffffffffffffffff\n      and\n      swap1\n      dup1\n      0x3\n      add\n      sload\n      swap1\n      dup1\n      0x4\n      add\n      0x0\n      swap1\n      sload\n      swap1\n      0x100\n      exp\n      swap1\n      div\n      0xffffffffffffffffffffffffffffffffffffffff\n      and\n      swap1\n      pop\n      dup6\n      jump\t// out\n        /* \"contracts/cryptopunksmarket.sol\":7810:8489  function enterBidForPunk(uint punkIndex) payable {... */\n    tag_39:\n        /* \"contracts/cryptopunksmarket.sol\":8118:8130  Bid existing */\n      0x0\n        /* \"contracts/cryptopunksmarket.sol\":7886:7891  10000 */\n      0x2710\n        /* \"contracts/cryptopunksmarket.sol\":7873:7882  punkIndex */\n      dup3\n        /* \"contracts/cryptopunksmarket.sol\":7873:7891  punkIndex >= 10000 */\n      lt\n      iszero\n        /* \"contracts/cryptopunksmarket.sol\":7869:7898  if (punkIndex >= 10000) throw */\n      iszero\n      tag_124\n      jumpi\n        /* \"contracts/cryptopunksmarket.sol\":7893:7898  throw */\n      revert(0x0, 0x0)\n        /* \"contracts/cryptopunksmarket.sol\":7869:7898  if (punkIndex >= 10000) throw */\n    tag_124:\n        /* \"contracts/cryptopunksmarket.sol\":7913:7929  allPunksAssigned */\n      0x8\n      0x0\n      swap1\n      sload\n      swap1\n      0x100\n      exp\n      swap1\n      div\n      0xff\n      and\n        /* \"contracts/cryptopunksmarket.sol\":7912:7929  !allPunksAssigned */\n      iszero\n        /* \"contracts/cryptopunksmarket.sol\":7908:7936  if (!allPunksAssigned) throw */\n      iszero\n      tag_125\n      jumpi\n        /* \"contracts/cryptopunksmarket.sol\":7931:7936  throw */\n      revert(0x0, 0x0)\n        /* \"contracts/cryptopunksmarket.sol\":7908:7936  if (!allPunksAssigned) throw */\n    tag_125:\n        /* \"contracts/cryptopunksmarket.sol\":7999:8002  0x0 */\n      0x0\n        /* \"contracts/cryptopunksmarket.sol\":7966:7984  punkIndexToAddress */\n      0xa\n        /* \"contracts/cryptopunksmarket.sol\":7966:7995  punkIndexToAddress[punkIndex] */\n      0x0\n        /* \"contracts/cryptopunksmarket.sol\":7985:7994  punkIndex */\n      dup5\n        /* \"contracts/cryptopunksmarket.sol\":7966:7995  punkIndexToAddress[punkIndex] */\n      dup2\n      mstore\n      0x20\n      add\n      swap1\n      dup2\n      mstore\n      0x20\n      add\n      0x0\n      sha3\n      0x0\n      swap1\n      sload\n      swap1\n      0x100\n      exp\n      swap1\n      div\n      0xffffffffffffffffffffffffffffffffffffffff\n      and\n        /* \"contracts/cryptopunksmarket.sol\":7966:8002  punkIndexToAddress[punkIndex] == 0x0 */\n      0xffffffffffffffffffffffffffffffffffffffff\n      and\n      eq\n        /* \"contracts/cryptopunksmarket.sol\":7962:8009  if (punkIndexToAddress[punkIndex] == 0x0) throw */\n      iszero\n      tag_126\n      jumpi\n        /* \"contracts/cryptopunksmarket.sol\":8004:8009  throw */\n      revert(0x0, 0x0)\n        /* \"contracts/cryptopunksmarket.sol\":7962:8009  if (punkIndexToAddress[punkIndex] == 0x0) throw */\n    tag_126:\n        /* \"contracts/cryptopunksmarket.sol\":8056:8066  msg.sender */\n      caller\n        /* \"contracts/cryptopunksmarket.sol\":8023:8066  punkIndexToAddress[punkIndex] == msg.sender */\n      0xffffffffffffffffffffffffffffffffffffffff\n      and\n        /* \"contracts/cryptopunksmarket.sol\":8023:8041  punkIndexToAddress */\n      0xa\n        /* \"contracts/cryptopunksmarket.sol\":8023:8052  punkIndexToAddress[punkIndex] */\n      0x0\n        /* \"contracts/cryptopunksmarket.sol\":8042:8051  punkIndex */\n      dup5\n        /* \"contracts/cryptopunksmarket.sol\":8023:8052  punkIndexToAddress[punkIndex] */\n      dup2\n      mstore\n      0x20\n      add\n      swap1\n      dup2\n      mstore\n      0x20\n      add\n      0x0\n      sha3\n      0x0\n      swap1\n      sload\n      swap1\n      0x100\n      exp\n      swap1\n      div\n      0xffffffffffffffffffffffffffffffffffffffff\n      and\n        /* \"contracts/cryptopunksmarket.sol\":8023:8066  punkIndexToAddress[punkIndex] == msg.sender */\n      0xffffffffffffffffffffffffffffffffffffffff\n      and\n      eq\n        /* \"contracts/cryptopunksmarket.sol\":8019:8073  if (punkIndexToAddress[punkIndex] == msg.sender) throw */\n      iszero\n      tag_127\n      jumpi\n        /* \"contracts/cryptopunksmarket.sol\":8068:8073  throw */\n      revert(0x0, 0x0)\n        /* \"contracts/cryptopunksmarket.sol\":8019:8073  if (punkIndexToAddress[punkIndex] == msg.sender) throw */\n    tag_127:\n        /* \"contracts/cryptopunksmarket.sol\":8100:8101  0 */\n      0x0\n        /* \"contracts/cryptopunksmarket.sol\":8087:8096  msg.value */\n      callvalue\n        /* \"contracts/cryptopunksmarket.sol\":8087:8101  msg.value == 0 */\n      eq\n        /* \"contracts/cryptopunksmarket.sol\":8083:8108  if (msg.value == 0) throw */\n      iszero\n      tag_128\n      jumpi\n        /* \"contracts/cryptopunksmarket.sol\":8103:8108  throw */\n      revert(0x0, 0x0)\n        /* \"contracts/cryptopunksmarket.sol\":8083:8108  if (msg.value == 0) throw */\n    tag_128:\n        /* \"contracts/cryptopunksmarket.sol\":8133:8141  punkBids */\n      0xd\n        /* \"contracts/cryptopunksmarket.sol\":8133:8152  punkBids[punkIndex] */\n      0x0\n        /* \"contracts/cryptopunksmarket.sol\":8142:8151  punkIndex */\n      dup4\n        /* \"contracts/cryptopunksmarket.sol\":8133:8152  punkBids[punkIndex] */\n      dup2\n      mstore\n      0x20\n      add\n      swap1\n      dup2\n      mstore\n      0x20\n      add\n      0x0\n      sha3\n        /* \"contracts/cryptopunksmarket.sol\":8118:8152  Bid existing = punkBids[punkIndex] */\n      swap1\n      pop\n        /* \"contracts/cryptopunksmarket.sol\":8179:8187  existing */\n      dup1\n        /* \"contracts/cryptopunksmarket.sol\":8179:8193  existing.value */\n      0x3\n      add\n      sload\n        /* \"contracts/cryptopunksmarket.sol\":8166:8175  msg.value */\n      callvalue\n        /* \"contracts/cryptopunksmarket.sol\":8166:8193  msg.value <= existing.value */\n      gt\n      iszero\n        /* \"contracts/cryptopunksmarket.sol\":8162:8200  if (msg.value <= existing.value) throw */\n      iszero\n      tag_129\n      jumpi\n        /* \"contracts/cryptopunksmarket.sol\":8195:8200  throw */\n      revert(0x0, 0x0)\n        /* \"contracts/cryptopunksmarket.sol\":8162:8200  if (msg.value <= existing.value) throw */\n    tag_129:\n        /* \"contracts/cryptopunksmarket.sol\":8231:8232  0 */\n      0x0\n        /* \"contracts/cryptopunksmarket.sol\":8214:8222  existing */\n      dup2\n        /* \"contracts/cryptopunksmarket.sol\":8214:8228  existing.value */\n      0x3\n      add\n      sload\n        /* \"contracts/cryptopunksmarket.sol\":8214:8232  existing.value > 0 */\n      gt\n        /* \"contracts/cryptopunksmarket.sol\":8210:8350  if (existing.value > 0) {... */\n      iszero\n      tag_130\n      jumpi\n        /* \"contracts/cryptopunksmarket.sol\":8325:8333  existing */\n      dup1\n        /* \"contracts/cryptopunksmarket.sol\":8325:8339  existing.value */\n      0x3\n      add\n      sload\n        /* \"contracts/cryptopunksmarket.sol\":8286:8304  pendingWithdrawals */\n      0xe\n        /* \"contracts/cryptopunksmarket.sol\":8286:8321  pendingWithdrawals[existing.bidder] */\n      0x0\n        /* \"contracts/cryptopunksmarket.sol\":8305:8313  existing */\n      dup4\n        /* \"contracts/cryptopunksmarket.sol\":8305:8320  existing.bidder */\n      0x2\n      add\n      0x0\n      swap1\n      sload\n      swap1\n      0x100\n      exp\n      swap1\n      div\n      0xffffffffffffffffffffffffffffffffffffffff\n      and\n        /* \"contracts/cryptopunksmarket.sol\":8286:8321  pendingWithdrawals[existing.bidder] */\n      0xffffffffffffffffffffffffffffffffffffffff\n      and\n      0xffffffffffffffffffffffffffffffffffffffff\n      and\n      dup2\n      mstore\n      0x20\n      add\n      swap1\n      dup2\n      mstore\n      0x20\n      add\n      0x0\n      sha3\n      0x0\n        /* \"contracts/cryptopunksmarket.sol\":8286:8339  pendingWithdrawals[existing.bidder] += existing.value */\n      dup3\n      dup3\n      sload\n      add\n      swap3\n      pop\n      pop\n      dup2\n      swap1\n      sstore\n      pop\n        /* \"contracts/cryptopunksmarket.sol\":8210:8350  if (existing.value > 0) {... */\n    tag_130:\n        /* \"contracts/cryptopunksmarket.sol\":8381:8424  Bid(true, punkIndex, msg.sender, msg.value) */\n      0x80\n      mload(0x40)\n      swap1\n      dup2\n      add\n      0x40\n      mstore\n      dup1\n        /* \"contracts/cryptopunksmarket.sol\":8385:8389  true */\n      0x1\n        /* \"contracts/cryptopunksmarket.sol\":8381:8424  Bid(true, punkIndex, msg.sender, msg.value) */\n      iszero\n      iszero\n      dup2\n      mstore\n      0x20\n      add\n        /* \"contracts/cryptopunksmarket.sol\":8391:8400  punkIndex */\n      dup4\n        /* \"contracts/cryptopunksmarket.sol\":8381:8424  Bid(true, punkIndex, msg.sender, msg.value) */\n      dup2\n      mstore\n      0x20\n      add\n        /* \"contracts/cryptopunksmarket.sol\":8402:8412  msg.sender */\n      caller\n        /* \"contracts/cryptopunksmarket.sol\":8381:8424  Bid(true, punkIndex, msg.sender, msg.value) */\n      0xffffffffffffffffffffffffffffffffffffffff\n      and\n      dup2\n      mstore\n      0x20\n      add\n        /* \"contracts/cryptopunksmarket.sol\":8414:8423  msg.value */\n      callvalue\n        /* \"contracts/cryptopunksmarket.sol\":8381:8424  Bid(true, punkIndex, msg.sender, msg.value) */\n      dup2\n      mstore\n      pop\n        /* \"contracts/cryptopunksmarket.sol\":8359:8367  punkBids */\n      0xd\n        /* \"contracts/cryptopunksmarket.sol\":8359:8378  punkBids[punkIndex] */\n      0x0\n        /* \"contracts/cryptopunksmarket.sol\":8368:8377  punkIndex */\n      dup5\n        /* \"contracts/cryptopunksmarket.sol\":8359:8378  punkBids[punkIndex] */\n      dup2\n      mstore\n      0x20\n      add\n      swap1\n      dup2\n      mstore\n      0x20\n      add\n      0x0\n      sha3\n        /* \"contracts/cryptopunksmarket.sol\":8359:8424  punkBids[punkIndex] = Bid(true, punkIndex, msg.sender, msg.value) */\n      0x0\n      dup3\n      add\n      mload\n      dup2\n      0x0\n      add\n      exp(0x100, 0x0)\n      dup2\n      sload\n      dup2\n      0xff\n      mul\n      not\n      and\n      swap1\n      dup4\n      iszero\n      iszero\n      mul\n      or\n      swap1\n      sstore\n      pop\n      0x20\n      dup3\n      add\n      mload\n      dup2\n      0x1\n      add\n      sstore\n      0x40\n      dup3\n      add\n      mload\n      dup2\n      0x2\n      add\n      exp(0x100, 0x0)\n      dup2\n      sload\n      dup2\n      0xffffffffffffffffffffffffffffffffffffffff\n      mul\n      not\n      and\n      swap1\n      dup4\n      0xffffffffffffffffffffffffffffffffffffffff\n      and\n      mul\n      or\n      swap1\n      sstore\n      pop\n      0x60\n      dup3\n      add\n      mload\n      dup2\n      0x3\n      add\n      sstore\n      swap1\n      pop\n      pop\n        /* \"contracts/cryptopunksmarket.sol\":8471:8481  msg.sender */\n      caller\n        /* \"contracts/cryptopunksmarket.sol\":8434:8482  PunkBidEntered(punkIndex, msg.value, msg.sender) */\n      0xffffffffffffffffffffffffffffffffffffffff\n      and\n        /* \"contracts/cryptopunksmarket.sol\":8449:8458  punkIndex */\n      dup3\n        /* \"contracts/cryptopunksmarket.sol\":8434:8482  PunkBidEntered(punkIndex, msg.value, msg.sender) */\n      0x5b859394fabae0c1ba88baffe67e751ab5248d2e879028b8c8d6897b0519f56a\n        /* \"contracts/cryptopunksmarket.sol\":8460:8469  msg.value */\n      callvalue\n        /* \"contracts/cryptopunksmarket.sol\":8434:8482  PunkBidEntered(punkIndex, msg.value, msg.sender) */\n      mload(0x40)\n      dup1\n      dup3\n      dup2\n      mstore\n      0x20\n      add\n      swap2\n      pop\n      pop\n      mload(0x40)\n      dup1\n      swap2\n      sub\n      swap1\n      log3\n        /* \"contracts/cryptopunksmarket.sol\":7810:8489  function enterBidForPunk(uint punkIndex) payable {... */\n    tag_123:\n      pop\n      pop\n      jump\t// out\n        /* \"contracts/cryptopunksmarket.sol\":444:470  uint256 public totalSupply */\n    tag_42:\n      sload(0x6)\n      dup2\n      jump\t// out\n        /* \"contracts/cryptopunksmarket.sol\":8495:9313  function acceptBidForPunk(uint punkIndex, uint minPrice) {... */\n    tag_45:\n        /* \"contracts/cryptopunksmarket.sol\":8719:8733  address seller */\n      0x0\n        /* \"contracts/cryptopunksmarket.sol\":8756:8763  Bid bid */\n      0x0\n        /* \"contracts/cryptopunksmarket.sol\":9114:9125  uint amount */\n      0x0\n        /* \"contracts/cryptopunksmarket.sol\":8579:8584  10000 */\n      0x2710\n        /* \"contracts/cryptopunksmarket.sol\":8566:8575  punkIndex */\n      dup6\n        /* \"contracts/cryptopunksmarket.sol\":8566:8584  punkIndex >= 10000 */\n      lt\n      iszero\n        /* \"contracts/cryptopunksmarket.sol\":8562:8591  if (punkIndex >= 10000) throw */\n      iszero\n      tag_132\n      jumpi\n        /* \"contracts/cryptopunksmarket.sol\":8586:8591  throw */\n      revert(0x0, 0x0)\n        /* \"contracts/cryptopunksmarket.sol\":8562:8591  if (punkIndex >= 10000) throw */\n    tag_132:\n        /* \"contracts/cryptopunksmarket.sol\":8606:8622  allPunksAssigned */\n      0x8\n      0x0\n      swap1\n      sload\n      swap1\n      0x100\n      exp\n      swap1\n      div\n      0xff\n      and\n        /* \"contracts/cryptopunksmarket.sol\":8605:8622  !allPunksAssigned */\n      iszero\n        /* \"contracts/cryptopunksmarket.sol\":8601:8629  if (!allPunksAssigned) throw */\n      iszero\n      tag_133\n      jumpi\n        /* \"contracts/cryptopunksmarket.sol\":8624:8629  throw */\n      revert(0x0, 0x0)\n        /* \"contracts/cryptopunksmarket.sol\":8601:8629  if (!allPunksAssigned) throw */\n    tag_133:\n        /* \"contracts/cryptopunksmarket.sol\":8692:8702  msg.sender */\n      caller\n        /* \"contracts/cryptopunksmarket.sol\":8659:8702  punkIndexToAddress[punkIndex] != msg.sender */\n      0xffffffffffffffffffffffffffffffffffffffff\n      and\n        /* \"contracts/cryptopunksmarket.sol\":8659:8677  punkIndexToAddress */\n      0xa\n        /* \"contracts/cryptopunksmarket.sol\":8659:8688  punkIndexToAddress[punkIndex] */\n      0x0\n        /* \"contracts/cryptopunksmarket.sol\":8678:8687  punkIndex */\n      dup8\n        /* \"contracts/cryptopunksmarket.sol\":8659:8688  punkIndexToAddress[punkIndex] */\n      dup2\n      mstore\n      0x20\n      add\n      swap1\n      dup2\n      mstore\n      0x20\n      add\n      0x0\n      sha3\n      0x0\n      swap1\n      sload\n      swap1\n      0x100\n      exp\n      swap1\n      div\n      0xffffffffffffffffffffffffffffffffffffffff\n      and\n        /* \"contracts/cryptopunksmarket.sol\":8659:8702  punkIndexToAddress[punkIndex] != msg.sender */\n      0xffffffffffffffffffffffffffffffffffffffff\n      and\n      eq\n      iszero\n        /* \"contracts/cryptopunksmarket.sol\":8655:8709  if (punkIndexToAddress[punkIndex] != msg.sender) throw */\n      iszero\n      tag_134\n      jumpi\n        /* \"contracts/cryptopunksmarket.sol\":8704:8709  throw */\n      revert(0x0, 0x0)\n        /* \"contracts/cryptopunksmarket.sol\":8655:8709  if (punkIndexToAddress[punkIndex] != msg.sender) throw */\n    tag_134:\n        /* \"contracts/cryptopunksmarket.sol\":8736:8746  msg.sender */\n      caller\n        /* \"contracts/cryptopunksmarket.sol\":8719:8746  address seller = msg.sender */\n      swap3\n      pop\n        /* \"contracts/cryptopunksmarket.sol\":8766:8774  punkBids */\n      0xd\n        /* \"contracts/cryptopunksmarket.sol\":8766:8785  punkBids[punkIndex] */\n      0x0\n        /* \"contracts/cryptopunksmarket.sol\":8775:8784  punkIndex */\n      dup7\n        /* \"contracts/cryptopunksmarket.sol\":8766:8785  punkBids[punkIndex] */\n      dup2\n      mstore\n      0x20\n      add\n      swap1\n      dup2\n      mstore\n      0x20\n      add\n      0x0\n      sha3\n        /* \"contracts/cryptopunksmarket.sol\":8756:8785  Bid bid = punkBids[punkIndex] */\n      swap2\n      pop\n        /* \"contracts/cryptopunksmarket.sol\":8812:8813  0 */\n      0x0\n        /* \"contracts/cryptopunksmarket.sol\":8799:8802  bid */\n      dup3\n        /* \"contracts/cryptopunksmarket.sol\":8799:8808  bid.value */\n      0x3\n      add\n      sload\n        /* \"contracts/cryptopunksmarket.sol\":8799:8813  bid.value == 0 */\n      eq\n        /* \"contracts/cryptopunksmarket.sol\":8795:8820  if (bid.value == 0) throw */\n      iszero\n      tag_135\n      jumpi\n        /* \"contracts/cryptopunksmarket.sol\":8815:8820  throw */\n      revert(0x0, 0x0)\n        /* \"contracts/cryptopunksmarket.sol\":8795:8820  if (bid.value == 0) throw */\n    tag_135:\n        /* \"contracts/cryptopunksmarket.sol\":8846:8854  minPrice */\n      dup4\n        /* \"contracts/cryptopunksmarket.sol\":8834:8837  bid */\n      dup3\n        /* \"contracts/cryptopunksmarket.sol\":8834:8843  bid.value */\n      0x3\n      add\n      sload\n        /* \"contracts/cryptopunksmarket.sol\":8834:8854  bid.value < minPrice */\n      lt\n        /* \"contracts/cryptopunksmarket.sol\":8830:8861  if (bid.value < minPrice) throw */\n      iszero\n      tag_136\n      jumpi\n        /* \"contracts/cryptopunksmarket.sol\":8856:8861  throw */\n      revert(0x0, 0x0)\n        /* \"contracts/cryptopunksmarket.sol\":8830:8861  if (bid.value < minPrice) throw */\n    tag_136:\n        /* \"contracts/cryptopunksmarket.sol\":8904:8907  bid */\n      dup2\n        /* \"contracts/cryptopunksmarket.sol\":8904:8914  bid.bidder */\n      0x2\n      add\n      0x0\n      swap1\n      sload\n      swap1\n      0x100\n      exp\n      swap1\n      div\n      0xffffffffffffffffffffffffffffffffffffffff\n      and\n        /* \"contracts/cryptopunksmarket.sol\":8872:8890  punkIndexToAddress */\n      0xa\n        /* \"contracts/cryptopunksmarket.sol\":8872:8901  punkIndexToAddress[punkIndex] */\n      0x0\n        /* \"contracts/cryptopunksmarket.sol\":8891:8900  punkIndex */\n      dup8\n        /* \"contracts/cryptopunksmarket.sol\":8872:8901  punkIndexToAddress[punkIndex] */\n      dup2\n      mstore\n      0x20\n      add\n      swap1\n      dup2\n      mstore\n      0x20\n      add\n      0x0\n      sha3\n      0x0\n        /* \"contracts/cryptopunksmarket.sol\":8872:8914  punkIndexToAddress[punkIndex] = bid.bidder */\n      0x100\n      exp\n      dup2\n      sload\n      dup2\n      0xffffffffffffffffffffffffffffffffffffffff\n      mul\n      not\n      and\n      swap1\n      dup4\n      0xffffffffffffffffffffffffffffffffffffffff\n      and\n      mul\n      or\n      swap1\n      sstore\n      pop\n        /* \"contracts/cryptopunksmarket.sol\":8924:8933  balanceOf */\n      0xb\n        /* \"contracts/cryptopunksmarket.sol\":8924:8941  balanceOf[seller] */\n      0x0\n        /* \"contracts/cryptopunksmarket.sol\":8934:8940  seller */\n      dup5\n        /* \"contracts/cryptopunksmarket.sol\":8924:8941  balanceOf[seller] */\n      0xffffffffffffffffffffffffffffffffffffffff\n      and\n      0xffffffffffffffffffffffffffffffffffffffff\n      and\n      dup2\n      mstore\n      0x20\n      add\n      swap1\n      dup2\n      mstore\n      0x20\n      add\n      0x0\n      sha3\n      0x0\n        /* \"contracts/cryptopunksmarket.sol\":8924:8943  balanceOf[seller]-- */\n      dup2\n      sload\n      dup1\n      swap3\n      swap2\n      swap1\n      0x1\n      swap1\n      sub\n      swap2\n      swap1\n      pop\n      sstore\n      pop\n        /* \"contracts/cryptopunksmarket.sol\":8953:8962  balanceOf */\n      0xb\n        /* \"contracts/cryptopunksmarket.sol\":8953:8974  balanceOf[bid.bidder] */\n      0x0\n        /* \"contracts/cryptopunksmarket.sol\":8963:8966  bid */\n      dup4\n        /* \"contracts/cryptopunksmarket.sol\":8963:8973  bid.bidder */\n      0x2\n      add\n      0x0\n      swap1\n      sload\n      swap1\n      0x100\n      exp\n      swap1\n      div\n      0xffffffffffffffffffffffffffffffffffffffff\n      and\n        /* \"contracts/cryptopunksmarket.sol\":8953:8974  balanceOf[bid.bidder] */\n      0xffffffffffffffffffffffffffffffffffffffff\n      and\n      0xffffffffffffffffffffffffffffffffffffffff\n      and\n      dup2\n      mstore\n      0x20\n      add\n      swap1\n      dup2\n      mstore\n      0x20\n      add\n      0x0\n      sha3\n      0x0\n        /* \"contracts/cryptopunksmarket.sol\":8953:8976  balanceOf[bid.bidder]++ */\n      dup2\n      sload\n      dup1\n      swap3\n      swap2\n      swap1\n      0x1\n      add\n      swap2\n      swap1\n      pop\n      sstore\n      pop\n        /* \"contracts/cryptopunksmarket.sol\":9003:9006  bid */\n      dup2\n        /* \"contracts/cryptopunksmarket.sol\":9003:9013  bid.bidder */\n      0x2\n      add\n      0x0\n      swap1\n      sload\n      swap1\n      0x100\n      exp\n      swap1\n      div\n      0xffffffffffffffffffffffffffffffffffffffff\n      and\n        /* \"contracts/cryptopunksmarket.sol\":8986:9017  Transfer(seller, bid.bidder, 1) */\n      0xffffffffffffffffffffffffffffffffffffffff\n      and\n        /* \"contracts/cryptopunksmarket.sol\":8995:9001  seller */\n      dup4\n        /* \"contracts/cryptopunksmarket.sol\":8986:9017  Transfer(seller, bid.bidder, 1) */\n      0xffffffffffffffffffffffffffffffffffffffff\n      and\n      0xddf252ad1be2c89b69c2b068fc378daa952ba7f163c4a11628f55a4df523b3ef\n        /* \"contracts/cryptopunksmarket.sol\":9015:9016  1 */\n      0x1\n        /* \"contracts/cryptopunksmarket.sol\":8986:9017  Transfer(seller, bid.bidder, 1) */\n      mload(0x40)\n      dup1\n      dup3\n      dup2\n      mstore\n      0x20\n      add\n      swap2\n      pop\n      pop\n      mload(0x40)\n      dup1\n      swap2\n      sub\n      swap1\n      log3\n        /* \"contracts/cryptopunksmarket.sol\":9061:9104  Offer(false, punkIndex, bid.bidder, 0, 0x0) */\n      0xa0\n      mload(0x40)\n      swap1\n      dup2\n      add\n      0x40\n      mstore\n      dup1\n        /* \"contracts/cryptopunksmarket.sol\":9067:9072  false */\n      0x0\n        /* \"contracts/cryptopunksmarket.sol\":9061:9104  Offer(false, punkIndex, bid.bidder, 0, 0x0) */\n      iszero\n      iszero\n      dup2\n      mstore\n      0x20\n      add\n        /* \"contracts/cryptopunksmarket.sol\":9074:9083  punkIndex */\n      dup7\n        /* \"contracts/cryptopunksmarket.sol\":9061:9104  Offer(false, punkIndex, bid.bidder, 0, 0x0) */\n      dup2\n      mstore\n      0x20\n      add\n        /* \"contracts/cryptopunksmarket.sol\":9085:9088  bid */\n      dup4\n        /* \"contracts/cryptopunksmarket.sol\":9085:9095  bid.bidder */\n      0x2\n      add\n      0x0\n      swap1\n      sload\n      swap1\n      0x100\n      exp\n      swap1\n      div\n      0xffffffffffffffffffffffffffffffffffffffff\n      and\n        /* \"contracts/cryptopunksmarket.sol\":9061:9104  Offer(false, punkIndex, bid.bidder, 0, 0x0) */\n      0xffffffffffffffffffffffffffffffffffffffff\n      and\n      dup2\n      mstore\n      0x20\n      add\n        /* \"contracts/cryptopunksmarket.sol\":9097:9098  0 */\n      0x0\n        /* \"contracts/cryptopunksmarket.sol\":9061:9104  Offer(false, punkIndex, bid.bidder, 0, 0x0) */\n      dup2\n      mstore\n      0x20\n      add\n        /* \"contracts/cryptopunksmarket.sol\":9100:9103  0x0 */\n      0x0\n        /* \"contracts/cryptopunksmarket.sol\":9061:9104  Offer(false, punkIndex, bid.bidder, 0, 0x0) */\n      0xffffffffffffffffffffffffffffffffffffffff\n      and\n      dup2\n      mstore\n      pop\n        /* \"contracts/cryptopunksmarket.sol\":9028:9047  punksOfferedForSale */\n      0xc\n        /* \"contracts/cryptopunksmarket.sol\":9028:9058  punksOfferedForSale[punkIndex] */\n      0x0\n        /* \"contracts/cryptopunksmarket.sol\":9048:9057  punkIndex */\n      dup8\n        /* \"contracts/cryptopunksmarket.sol\":9028:9058  punksOfferedForSale[punkIndex] */\n      dup2\n      mstore\n      0x20\n      add\n      swap1\n      dup2\n      mstore\n      0x20\n      add\n      0x0\n      sha3\n        /* \"contracts/cryptopunksmarket.sol\":9028:9104  punksOfferedForSale[punkIndex] = Offer(false, punkIndex, bid.bidder, 0, 0x0) */\n      0x0\n      dup3\n      add\n      mload\n      dup2\n      0x0\n      add\n      exp(0x100, 0x0)\n      dup2\n      sload\n      dup2\n      0xff\n      mul\n      not\n      and\n      swap1\n      dup4\n      iszero\n      iszero\n      mul\n      or\n      swap1\n      sstore\n      pop\n      0x20\n      dup3\n      add\n      mload\n      dup2\n      0x1\n      add\n      sstore\n      0x40\n      dup3\n      add\n      mload\n      dup2\n      0x2\n      add\n      exp(0x100, 0x0)\n      dup2\n      sload\n      dup2\n      0xffffffffffffffffffffffffffffffffffffffff\n      mul\n      not\n      and\n      swap1\n      dup4\n      0xffffffffffffffffffffffffffffffffffffffff\n      and\n      mul\n      or\n      swap1\n      sstore\n      pop\n      0x60\n      dup3\n      add\n      mload\n      dup2\n      0x3\n      add\n      sstore\n      0x80\n      dup3\n      add\n      mload\n      dup2\n      0x4\n      add\n      exp(0x100, 0x0)\n      dup2\n      sload\n      dup2\n      0xffffffffffffffffffffffffffffffffffffffff\n      mul\n      not\n      and\n      swap1\n      dup4\n      0xffffffffffffffffffffffffffffffffffffffff\n      and\n      mul\n      or\n      swap1\n      sstore\n      pop\n      swap1\n      pop\n      pop\n        /* \"contracts/cryptopunksmarket.sol\":9128:9131  bid */\n      dup2\n        /* \"contracts/cryptopunksmarket.sol\":9128:9137  bid.value */\n      0x3\n      add\n      sload\n        /* \"contracts/cryptopunksmarket.sol\":9114:9137  uint amount = bid.value */\n      swap1\n      pop\n        /* \"contracts/cryptopunksmarket.sol\":9169:9198  Bid(false, punkIndex, 0x0, 0) */\n      0x80\n      mload(0x40)\n      swap1\n      dup2\n      add\n      0x40\n      mstore\n      dup1\n        /* \"contracts/cryptopunksmarket.sol\":9173:9178  false */\n      0x0\n        /* \"contracts/cryptopunksmarket.sol\":9169:9198  Bid(false, punkIndex, 0x0, 0) */\n      iszero\n      iszero\n      dup2\n      mstore\n      0x20\n      add\n        /* \"contracts/cryptopunksmarket.sol\":9180:9189  punkIndex */\n      dup7\n        /* \"contracts/cryptopunksmarket.sol\":9169:9198  Bid(false, punkIndex, 0x0, 0) */\n      dup2\n      mstore\n      0x20\n      add\n        /* \"contracts/cryptopunksmarket.sol\":9191:9194  0x0 */\n      0x0\n        /* \"contracts/cryptopunksmarket.sol\":9169:9198  Bid(false, punkIndex, 0x0, 0) */\n      0xffffffffffffffffffffffffffffffffffffffff\n      and\n      dup2\n      mstore\n      0x20\n      add\n        /* \"contracts/cryptopunksmarket.sol\":9196:9197  0 */\n      0x0\n        /* \"contracts/cryptopunksmarket.sol\":9169:9198  Bid(false, punkIndex, 0x0, 0) */\n      dup2\n      mstore\n      pop\n        /* \"contracts/cryptopunksmarket.sol\":9147:9155  punkBids */\n      0xd\n        /* \"contracts/cryptopunksmarket.sol\":9147:9166  punkBids[punkIndex] */\n      0x0\n        /* \"contracts/cryptopunksmarket.sol\":9156:9165  punkIndex */\n      dup8\n        /* \"contracts/cryptopunksmarket.sol\":9147:9166  punkBids[punkIndex] */\n      dup2\n      mstore\n      0x20\n      add\n      swap1\n      dup2\n      mstore\n      0x20\n      add\n      0x0\n      sha3\n        /* \"contracts/cryptopunksmarket.sol\":9147:9198  punkBids[punkIndex] = Bid(false, punkIndex, 0x0, 0) */\n      0x0\n      dup3\n      add\n      mload\n      dup2\n      0x0\n      add\n      exp(0x100, 0x0)\n      dup2\n      sload\n      dup2\n      0xff\n      mul\n      not\n      and\n      swap1\n      dup4\n      iszero\n      iszero\n      mul\n      or\n      swap1\n      sstore\n      pop\n      0x20\n      dup3\n      add\n      mload\n      dup2\n      0x1\n      add\n      sstore\n      0x40\n      dup3\n      add\n      mload\n      dup2\n      0x2\n      add\n      exp(0x100, 0x0)\n      dup2\n      sload\n      dup2\n      0xffffffffffffffffffffffffffffffffffffffff\n      mul\n      not\n      and\n      swap1\n      dup4\n      0xffffffffffffffffffffffffffffffffffffffff\n      and\n      mul\n      or\n      swap1\n      sstore\n      pop\n      0x60\n      dup3\n      add\n      mload\n      dup2\n      0x3\n      add\n      sstore\n      swap1\n      pop\n      pop\n        /* \"contracts/cryptopunksmarket.sol\":9238:9244  amount */\n      dup1\n        /* \"contracts/cryptopunksmarket.sol\":9208:9226  pendingWithdrawals */\n      0xe\n        /* \"contracts/cryptopunksmarket.sol\":9208:9234  pendingWithdrawals[seller] */\n      0x0\n        /* \"contracts/cryptopunksmarket.sol\":9227:9233  seller */\n      dup6\n        /* \"contracts/cryptopunksmarket.sol\":9208:9234  pendingWithdrawals[seller] */\n      0xffffffffffffffffffffffffffffffffffffffff\n      and\n      0xffffffffffffffffffffffffffffffffffffffff\n      and\n      dup2\n      mstore\n      0x20\n      add\n      swap1\n      dup2\n      mstore\n      0x20\n      add\n      0x0\n      sha3\n      0x0\n        /* \"contracts/cryptopunksmarket.sol\":9208:9244  pendingWithdrawals[seller] += amount */\n      dup3\n      dup3\n      sload\n      add\n      swap3\n      pop\n      pop\n      dup2\n      swap1\n      sstore\n      pop\n        /* \"contracts/cryptopunksmarket.sol\":9295:9298  bid */\n      dup2\n        /* \"contracts/cryptopunksmarket.sol\":9295:9305  bid.bidder */\n      0x2\n      add\n      0x0\n      swap1\n      sload\n      swap1\n      0x100\n      exp\n      swap1\n      div\n      0xffffffffffffffffffffffffffffffffffffffff\n      and\n        /* \"contracts/cryptopunksmarket.sol\":9254:9306  PunkBought(punkIndex, bid.value, seller, bid.bidder) */\n      0xffffffffffffffffffffffffffffffffffffffff\n      and\n        /* \"contracts/cryptopunksmarket.sol\":9287:9293  seller */\n      dup4\n        /* \"contracts/cryptopunksmarket.sol\":9254:9306  PunkBought(punkIndex, bid.value, seller, bid.bidder) */\n      0xffffffffffffffffffffffffffffffffffffffff\n      and\n        /* \"contracts/cryptopunksmarket.sol\":9265:9274  punkIndex */\n      dup7\n        /* \"contracts/cryptopunksmarket.sol\":9254:9306  PunkBought(punkIndex, bid.value, seller, bid.bidder) */\n      0x58e5d5a525e3b40bc15abaa38b5882678db1ee68befd2f60bafe3a7fd06db9e3\n        /* \"contracts/cryptopunksmarket.sol\":9276:9279  bid */\n      dup6\n        /* \"contracts/cryptopunksmarket.sol\":9276:9285  bid.value */\n      0x3\n      add\n      sload\n        /* \"contracts/cryptopunksmarket.sol\":9254:9306  PunkBought(punkIndex, bid.value, seller, bid.bidder) */\n      mload(0x40)\n      dup1\n      dup3\n      dup2\n      mstore\n      0x20\n      add\n      swap2\n      pop\n      pop\n      mload(0x40)\n      dup1\n      swap2\n      sub\n      swap1\n      log4\n        /* \"contracts/cryptopunksmarket.sol\":8495:9313  function acceptBidForPunk(uint punkIndex, uint minPrice) {... */\n    tag_131:\n      pop\n      pop\n      pop\n      pop\n      pop\n      jump\t// out\n        /* \"contracts/cryptopunksmarket.sol\":417:438  uint8 public decimals */\n    tag_48:\n      0x5\n      0x0\n      swap1\n      sload\n      swap1\n      0x100\n      exp\n      swap1\n      div\n      0xff\n      and\n      dup2\n      jump\t// out\n        /* \"contracts/cryptopunksmarket.sol\":3374:3623  function setInitialOwners(address[] addresses, uint[] indices) {... */\n    tag_51:\n        /* \"contracts/cryptopunksmarket.sol\":3487:3493  uint n */\n      0x0\n        /* \"contracts/cryptopunksmarket.sol\":3527:3533  uint i */\n      0x0\n        /* \"contracts/cryptopunksmarket.sol\":3465:3470  owner */\n      0x1\n      0x0\n      swap1\n      sload\n      swap1\n      0x100\n      exp\n      swap1\n      div\n      0xffffffffffffffffffffffffffffffffffffffff\n      and\n        /* \"contracts/cryptopunksmarket.sol\":3451:3470  msg.sender != owner */\n      0xffffffffffffffffffffffffffffffffffffffff\n      and\n        /* \"contracts/cryptopunksmarket.sol\":3451:3461  msg.sender */\n      caller\n        /* \"contracts/cryptopunksmarket.sol\":3451:3470  msg.sender != owner */\n      0xffffffffffffffffffffffffffffffffffffffff\n      and\n      eq\n      iszero\n        /* \"contracts/cryptopunksmarket.sol\":3447:3477  if (msg.sender != owner) throw */\n      iszero\n      tag_138\n      jumpi\n        /* \"contracts/cryptopunksmarket.sol\":3472:3477  throw */\n      revert(0x0, 0x0)\n        /* \"contracts/cryptopunksmarket.sol\":3447:3477  if (msg.sender != owner) throw */\n    tag_138:\n        /* \"contracts/cryptopunksmarket.sol\":3496:3505  addresses */\n      dup4\n        /* \"contracts/cryptopunksmarket.sol\":3496:3512  addresses.length */\n      mload\n        /* \"contracts/cryptopunksmarket.sol\":3487:3512  uint n = addresses.length */\n      swap2\n      pop\n        /* \"contracts/cryptopunksmarket.sol\":3536:3537  0 */\n      0x0\n        /* \"contracts/cryptopunksmarket.sol\":3527:3537  uint i = 0 */\n      swap1\n      pop\n        /* \"contracts/cryptopunksmarket.sol\":3522:3617  for (uint i = 0; i < n; i++) {... */\n    tag_139:\n        /* \"contracts/cryptopunksmarket.sol\":3543:3544  n */\n      dup2\n        /* \"contracts/cryptopunksmarket.sol\":3539:3540  i */\n      dup2\n        /* \"contracts/cryptopunksmarket.sol\":3539:3544  i < n */\n      lt\n        /* \"contracts/cryptopunksmarket.sol\":3522:3617  for (uint i = 0; i < n; i++) {... */\n      iszero\n      tag_140\n      jumpi\n        /* \"contracts/cryptopunksmarket.sol\":3565:3606  setInitialOwner(addresses[i], indices[i]) */\n      tag_142\n        /* \"contracts/cryptopunksmarket.sol\":3581:3590  addresses */\n      dup5\n        /* \"contracts/cryptopunksmarket.sol\":3591:3592  i */\n      dup3\n        /* \"contracts/cryptopunksmarket.sol\":3581:3593  addresses[i] */\n      dup2\n      mload\n      dup2\n      lt\n      iszero\n      iszero\n      tag_143\n      jumpi\n      invalid\n    tag_143:\n      swap1\n      0x20\n      add\n      swap1\n      0x20\n      mul\n      add\n      mload\n        /* \"contracts/cryptopunksmarket.sol\":3595:3602  indices */\n      dup5\n        /* \"contracts/cryptopunksmarket.sol\":3603:3604  i */\n      dup4\n        /* \"contracts/cryptopunksmarket.sol\":3595:3605  indices[i] */\n      dup2\n      mload\n      dup2\n      lt\n      iszero\n      iszero\n      tag_144\n      jumpi\n      invalid\n    tag_144:\n      swap1\n      0x20\n      add\n      swap1\n      0x20\n      mul\n      add\n      mload\n        /* \"contracts/cryptopunksmarket.sol\":3565:3580  setInitialOwner */\n      tag_101\n        /* \"contracts/cryptopunksmarket.sol\":3565:3606  setInitialOwner(addresses[i], indices[i]) */\n      jump\t// in\n    tag_142:\n        /* \"contracts/cryptopunksmarket.sol\":3522:3617  for (uint i = 0; i < n; i++) {... */\n    tag_141:\n        /* \"contracts/cryptopunksmarket.sol\":3546:3549  i++ */\n      dup1\n      dup1\n      0x1\n      add\n      swap2\n      pop\n      pop\n        /* \"contracts/cryptopunksmarket.sol\":3522:3617  for (uint i = 0; i < n; i++) {... */\n      jump(tag_139)\n    tag_140:\n        /* \"contracts/cryptopunksmarket.sol\":3374:3623  function setInitialOwners(address[] addresses, uint[] indices) {... */\n    tag_137:\n      pop\n      pop\n      pop\n      pop\n      jump\t// out\n        /* \"contracts/cryptopunksmarket.sol\":7500:7804  function withdraw() {... */\n    tag_54:\n        /* \"contracts/cryptopunksmarket.sol\":7568:7579  uint amount */\n      0x0\n        /* \"contracts/cryptopunksmarket.sol\":7535:7551  allPunksAssigned */\n      0x8\n      0x0\n      swap1\n      sload\n      swap1\n      0x100\n      exp\n      swap1\n      div\n      0xff\n      and\n        /* \"contracts/cryptopunksmarket.sol\":7534:7551  !allPunksAssigned */\n      iszero\n        /* \"contracts/cryptopunksmarket.sol\":7530:7558  if (!allPunksAssigned) throw */\n      iszero\n      tag_146\n      jumpi\n        /* \"contracts/cryptopunksmarket.sol\":7553:7558  throw */\n      revert(0x0, 0x0)\n        /* \"contracts/cryptopunksmarket.sol\":7530:7558  if (!allPunksAssigned) throw */\n    tag_146:\n        /* \"contracts/cryptopunksmarket.sol\":7582:7600  pendingWithdrawals */\n      0xe\n        /* \"contracts/cryptopunksmarket.sol\":7582:7612  pendingWithdrawals[msg.sender] */\n      0x0\n        /* \"contracts/cryptopunksmarket.sol\":7601:7611  msg.sender */\n      caller\n        /* \"contracts/cryptopunksmarket.sol\":7582:7612  pendingWithdrawals[msg.sender] */\n      0xffffffffffffffffffffffffffffffffffffffff\n      and\n      0xffffffffffffffffffffffffffffffffffffffff\n      and\n      dup2\n      mstore\n      0x20\n      add\n      swap1\n      dup2\n      mstore\n      0x20\n      add\n      0x0\n      sha3\n      sload\n        /* \"contracts/cryptopunksmarket.sol\":7568:7612  uint amount = pendingWithdrawals[msg.sender] */\n      swap1\n      pop\n        /* \"contracts/cryptopunksmarket.sol\":7759:7760  0 */\n      0x0\n        /* \"contracts/cryptopunksmarket.sol\":7726:7744  pendingWithdrawals */\n      0xe\n        /* \"contracts/cryptopunksmarket.sol\":7726:7756  pendingWithdrawals[msg.sender] */\n      0x0\n        /* \"contracts/cryptopunksmarket.sol\":7745:7755  msg.sender */\n      caller\n        /* \"contracts/cryptopunksmarket.sol\":7726:7756  pendingWithdrawals[msg.sender] */\n      0xffffffffffffffffffffffffffffffffffffffff\n      and\n      0xffffffffffffffffffffffffffffffffffffffff\n      and\n      dup2\n      mstore\n      0x20\n      add\n      swap1\n      dup2\n      mstore\n      0x20\n      add\n      0x0\n      sha3\n        /* \"contracts/cryptopunksmarket.sol\":7726:7760  pendingWithdrawals[msg.sender] = 0 */\n      dup2\n      swap1\n      sstore\n      pop\n        /* \"contracts/cryptopunksmarket.sol\":7770:7780  msg.sender */\n      caller\n        /* \"contracts/cryptopunksmarket.sol\":7770:7789  msg.sender.transfer */\n      0xffffffffffffffffffffffffffffffffffffffff\n      and\n        /* \"contracts/cryptopunksmarket.sol\":7770:7797  msg.sender.transfer(amount) */\n      0x8fc\n        /* \"contracts/cryptopunksmarket.sol\":7790:7796  amount */\n      dup3\n        /* \"contracts/cryptopunksmarket.sol\":7770:7797  msg.sender.transfer(amount) */\n      swap1\n      dup2\n      iszero\n      mul\n      swap1\n      mload(0x40)\n      dup1\n      swap1\n      pop\n      0x0\n      mload(0x40)\n      dup1\n      dup4\n      sub\n      dup2\n      dup6\n      dup9\n      dup9\n      call\n      swap4\n      pop\n      pop\n      pop\n      pop\n      iszero\n      iszero\n      tag_147\n      jumpi\n      invalid\n    tag_147:\n        /* \"contracts/cryptopunksmarket.sol\":7500:7804  function withdraw() {... */\n    tag_145:\n      pop\n      jump\t// out\n        /* \"contracts/cryptopunksmarket.sol\":204:296  string public imageHash = \"ac39af4793119ee46bbff351d8cb6b5f23da60222126add4268e261199a2921b\" */\n    tag_57:\n      0x0\n      dup1\n      sload\n      0x1\n      dup2\n      0x1\n      and\n      iszero\n      0x100\n      mul\n      sub\n      and\n      0x2\n      swap1\n      div\n      dup1\n      0x1f\n      add\n      0x20\n      dup1\n      swap2\n      div\n      mul\n      0x20\n      add\n      mload(0x40)\n      swap1\n      dup2\n      add\n      0x40\n      mstore\n      dup1\n      swap3\n      swap2\n      swap1\n      dup2\n      dup2\n      mstore\n      0x20\n      add\n      dup3\n      dup1\n      sload\n      0x1\n      dup2\n      0x1\n      and\n      iszero\n      0x100\n      mul\n      sub\n      and\n      0x2\n      swap1\n      div\n      dup1\n      iszero\n      tag_148\n      jumpi\n      dup1\n      0x1f\n      lt\n      tag_149\n      jumpi\n      0x100\n      dup1\n      dup4\n      sload\n      div\n      mul\n      dup4\n      mstore\n      swap2\n      0x20\n      add\n      swap2\n      jump(tag_148)\n    tag_149:\n      dup3\n      add\n      swap2\n      swap1\n      0x0\n      mstore\n      sha3(0x0, 0x20)\n      swap1\n    tag_150:\n      dup2\n      sload\n      dup2\n      mstore\n      swap1\n      0x1\n      add\n      swap1\n      0x20\n      add\n      dup1\n      dup4\n      gt\n      tag_150\n      jumpi\n      dup3\n      swap1\n      sub\n      0x1f\n      and\n      dup3\n      add\n      swap2\n    tag_148:\n      pop\n      pop\n      pop\n      pop\n      pop\n      dup2\n      jump\t// out\n        /* \"contracts/cryptopunksmarket.sol\":477:514  uint public nextPunkIndexToAssign = 0 */\n    tag_63:\n      sload(0x7)\n      dup2\n      jump\t// out\n        /* \"contracts/cryptopunksmarket.sol\":667:718  mapping (uint => address) public punkIndexToAddress */\n    tag_66:\n      mstore(0x20, 0xa)\n      dup1\n      0x0\n      mstore\n      sha3(0x0, 0x40)\n      0x0\n      swap2\n      pop\n      sload\n      swap1\n      0x100\n      exp\n      swap1\n      div\n      0xffffffffffffffffffffffffffffffffffffffff\n      and\n      dup2\n      jump\t// out\n        /* \"contracts/cryptopunksmarket.sol\":323:361  string public standard = 'CryptoPunks' */\n    tag_69:\n      0x2\n      dup1\n      sload\n      0x1\n      dup2\n      0x1\n      and\n      iszero\n      0x100\n      mul\n      sub\n      and\n      0x2\n      swap1\n      div\n      dup1\n      0x1f\n      add\n      0x20\n      dup1\n      swap2\n      div\n      mul\n      0x20\n      add\n      mload(0x40)\n      swap1\n      dup2\n      add\n      0x40\n      mstore\n      dup1\n      swap3\n      swap2\n      swap1\n      dup2\n      dup2\n      mstore\n      0x20\n      add\n      dup3\n      dup1\n      sload\n      0x1\n      dup2\n      0x1\n      and\n      iszero\n      0x100\n      mul\n      sub\n      and\n      0x2\n      swap1\n      div\n      dup1\n      iszero\n      tag_151\n      jumpi\n      dup1\n      0x1f\n      lt\n      tag_152\n      jumpi\n      0x100\n      dup1\n      dup4\n      sload\n      div\n      mul\n      dup4\n      mstore\n      swap2\n      0x20\n      add\n      swap2\n      jump(tag_151)\n    tag_152:\n      dup3\n      add\n      swap2\n      swap1\n      0x0\n      mstore\n      sha3(0x0, 0x20)\n      swap1\n    tag_153:\n      dup2\n      sload\n      dup2\n      mstore\n      swap1\n      0x1\n      add\n      swap1\n      0x20\n      add\n      dup1\n      dup4\n      gt\n      tag_153\n      jumpi\n      dup3\n      swap1\n      sub\n      0x1f\n      and\n      dup3\n      add\n      swap2\n    tag_151:\n      pop\n      pop\n      pop\n      pop\n      pop\n      dup2\n      jump\t// out\n        /* \"contracts/cryptopunksmarket.sol\":1369:1406  mapping (uint => Bid) public punkBids */\n    tag_75:\n      mstore(0x20, 0xd)\n      dup1\n      0x0\n      mstore\n      sha3(0x0, 0x40)\n      0x0\n      swap2\n      pop\n      swap1\n      pop\n      dup1\n      0x0\n      add\n      0x0\n      swap1\n      sload\n      swap1\n      0x100\n      exp\n      swap1\n      div\n      0xff\n      and\n      swap1\n      dup1\n      0x1\n      add\n      sload\n      swap1\n      dup1\n      0x2\n      add\n      0x0\n      swap1\n      sload\n      swap1\n      0x100\n      exp\n      swap1\n      div\n      0xffffffffffffffffffffffffffffffffffffffff\n      and\n      swap1\n      dup1\n      0x3\n      add\n      sload\n      swap1\n      pop\n      dup5\n      jump\t// out\n        /* \"contracts/cryptopunksmarket.sol\":775:820  mapping (address => uint256) public balanceOf */\n    tag_78:\n      mstore(0x20, 0xb)\n      dup1\n      0x0\n      mstore\n      sha3(0x0, 0x40)\n      0x0\n      swap2\n      pop\n      swap1\n      pop\n      sload\n      dup2\n      jump\t// out\n        /* \"contracts/cryptopunksmarket.sol\":3629:3745  function allInitialOwnersAssigned() {... */\n    tag_81:\n        /* \"contracts/cryptopunksmarket.sol\":3693:3698  owner */\n      0x1\n      0x0\n      swap1\n      sload\n      swap1\n      0x100\n      exp\n      swap1\n      div\n      0xffffffffffffffffffffffffffffffffffffffff\n      and\n        /* \"contracts/cryptopunksmarket.sol\":3679:3698  msg.sender != owner */\n      0xffffffffffffffffffffffffffffffffffffffff\n      and\n        /* \"contracts/cryptopunksmarket.sol\":3679:3689  msg.sender */\n      caller\n        /* \"contracts/cryptopunksmarket.sol\":3679:3698  msg.sender != owner */\n      0xffffffffffffffffffffffffffffffffffffffff\n      and\n      eq\n      iszero\n        /* \"contracts/cryptopunksmarket.sol\":3675:3705  if (msg.sender != owner) throw */\n      iszero\n      tag_155\n      jumpi\n        /* \"contracts/cryptopunksmarket.sol\":3700:3705  throw */\n      revert(0x0, 0x0)\n        /* \"contracts/cryptopunksmarket.sol\":3675:3705  if (msg.sender != owner) throw */\n    tag_155:\n        /* \"contracts/cryptopunksmarket.sol\":3734:3738  true */\n      0x1\n        /* \"contracts/cryptopunksmarket.sol\":3715:3731  allPunksAssigned */\n      0x8\n      0x0\n        /* \"contracts/cryptopunksmarket.sol\":3715:3738  allPunksAssigned = true */\n      0x100\n      exp\n      dup2\n      sload\n      dup2\n      0xff\n      mul\n      not\n      and\n      swap1\n      dup4\n      iszero\n      iszero\n      mul\n      or\n      swap1\n      sstore\n      pop\n        /* \"contracts/cryptopunksmarket.sol\":3629:3745  function allInitialOwnersAssigned() {... */\n    tag_154:\n      jump\t// out\n        /* \"contracts/cryptopunksmarket.sol\":521:557  bool public allPunksAssigned = false */\n    tag_84:\n      0x8\n      0x0\n      swap1\n      sload\n      swap1\n      0x100\n      exp\n      swap1\n      div\n      0xff\n      and\n      dup2\n      jump\t// out\n        /* \"contracts/cryptopunksmarket.sol\":6201:7494  function buyPunk(uint punkIndex) payable {... */\n    tag_86:\n        /* \"contracts/cryptopunksmarket.sol\":6290:6301  Offer offer */\n      0x0\n        /* \"contracts/cryptopunksmarket.sol\":6768:6782  address seller */\n      0x0\n        /* \"contracts/cryptopunksmarket.sol\":7245:7252  Bid bid */\n      0x0\n        /* \"contracts/cryptopunksmarket.sol\":6257:6273  allPunksAssigned */\n      0x8\n      0x0\n      swap1\n      sload\n      swap1\n      0x100\n      exp\n      swap1\n      div\n      0xff\n      and\n        /* \"contracts/cryptopunksmarket.sol\":6256:6273  !allPunksAssigned */\n      iszero\n        /* \"contracts/cryptopunksmarket.sol\":6252:6280  if (!allPunksAssigned) throw */\n      iszero\n      tag_157\n      jumpi\n        /* \"contracts/cryptopunksmarket.sol\":6275:6280  throw */\n      revert(0x0, 0x0)\n        /* \"contracts/cryptopunksmarket.sol\":6252:6280  if (!allPunksAssigned) throw */\n    tag_157:\n        /* \"contracts/cryptopunksmarket.sol\":6304:6323  punksOfferedForSale */\n      0xc\n        /* \"contracts/cryptopunksmarket.sol\":6304:6334  punksOfferedForSale[punkIndex] */\n      0x0\n        /* \"contracts/cryptopunksmarket.sol\":6324:6333  punkIndex */\n      dup6\n        /* \"contracts/cryptopunksmarket.sol\":6304:6334  punksOfferedForSale[punkIndex] */\n      dup2\n      mstore\n      0x20\n      add\n      swap1\n      dup2\n      mstore\n      0x20\n      add\n      0x0\n      sha3\n        /* \"contracts/cryptopunksmarket.sol\":6290:6334  Offer offer = punksOfferedForSale[punkIndex] */\n      swap3\n      pop\n        /* \"contracts/cryptopunksmarket.sol\":6361:6366  10000 */\n      0x2710\n        /* \"contracts/cryptopunksmarket.sol\":6348:6357  punkIndex */\n      dup5\n        /* \"contracts/cryptopunksmarket.sol\":6348:6366  punkIndex >= 10000 */\n      lt\n      iszero\n        /* \"contracts/cryptopunksmarket.sol\":6344:6373  if (punkIndex >= 10000) throw */\n      iszero\n      tag_158\n      jumpi\n        /* \"contracts/cryptopunksmarket.sol\":6368:6373  throw */\n      revert(0x0, 0x0)\n        /* \"contracts/cryptopunksmarket.sol\":6344:6373  if (punkIndex >= 10000) throw */\n    tag_158:\n        /* \"contracts/cryptopunksmarket.sol\":6388:6393  offer */\n      dup3\n        /* \"contracts/cryptopunksmarket.sol\":6388:6403  offer.isForSale */\n      0x0\n      add\n      0x0\n      swap1\n      sload\n      swap1\n      0x100\n      exp\n      swap1\n      div\n      0xff\n      and\n        /* \"contracts/cryptopunksmarket.sol\":6387:6403  !offer.isForSale */\n      iszero\n        /* \"contracts/cryptopunksmarket.sol\":6383:6410  if (!offer.isForSale) throw */\n      iszero\n      tag_159\n      jumpi\n        /* \"contracts/cryptopunksmarket.sol\":6405:6410  throw */\n      revert(0x0, 0x0)\n        /* \"contracts/cryptopunksmarket.sol\":6383:6410  if (!offer.isForSale) throw */\n    tag_159:\n        /* \"contracts/cryptopunksmarket.sol\":6489:6492  0x0 */\n      0x0\n        /* \"contracts/cryptopunksmarket.sol\":6469:6474  offer */\n      dup4\n        /* \"contracts/cryptopunksmarket.sol\":6469:6485  offer.onlySellTo */\n      0x4\n      add\n      0x0\n      swap1\n      sload\n      swap1\n      0x100\n      exp\n      swap1\n      div\n      0xffffffffffffffffffffffffffffffffffffffff\n      and\n        /* \"contracts/cryptopunksmarket.sol\":6469:6492  offer.onlySellTo != 0x0 */\n      0xffffffffffffffffffffffffffffffffffffffff\n      and\n      eq\n      iszero\n        /* \"contracts/cryptopunksmarket.sol\":6469:6526  offer.onlySellTo != 0x0 && offer.onlySellTo != msg.sender */\n      dup1\n      iszero\n      tag_160\n      jumpi\n      pop\n        /* \"contracts/cryptopunksmarket.sol\":6516:6526  msg.sender */\n      caller\n        /* \"contracts/cryptopunksmarket.sol\":6496:6526  offer.onlySellTo != msg.sender */\n      0xffffffffffffffffffffffffffffffffffffffff\n      and\n        /* \"contracts/cryptopunksmarket.sol\":6496:6501  offer */\n      dup4\n        /* \"contracts/cryptopunksmarket.sol\":6496:6512  offer.onlySellTo */\n      0x4\n      add\n      0x0\n      swap1\n      sload\n      swap1\n      0x100\n      exp\n      swap1\n      div\n      0xffffffffffffffffffffffffffffffffffffffff\n      and\n        /* \"contracts/cryptopunksmarket.sol\":6496:6526  offer.onlySellTo != msg.sender */\n      0xffffffffffffffffffffffffffffffffffffffff\n      and\n      eq\n      iszero\n        /* \"contracts/cryptopunksmarket.sol\":6469:6526  offer.onlySellTo != 0x0 && offer.onlySellTo != msg.sender */\n    tag_160:\n        /* \"contracts/cryptopunksmarket.sol\":6465:6533  if (offer.onlySellTo != 0x0 && offer.onlySellTo != msg.sender) throw */\n      iszero\n      tag_161\n      jumpi\n        /* \"contracts/cryptopunksmarket.sol\":6528:6533  throw */\n      revert(0x0, 0x0)\n        /* \"contracts/cryptopunksmarket.sol\":6465:6533  if (offer.onlySellTo != 0x0 && offer.onlySellTo != msg.sender) throw */\n    tag_161:\n        /* \"contracts/cryptopunksmarket.sol\":6605:6610  offer */\n      dup3\n        /* \"contracts/cryptopunksmarket.sol\":6605:6619  offer.minValue */\n      0x3\n      add\n      sload\n        /* \"contracts/cryptopunksmarket.sol\":6593:6602  msg.value */\n      callvalue\n        /* \"contracts/cryptopunksmarket.sol\":6593:6619  msg.value < offer.minValue */\n      lt\n        /* \"contracts/cryptopunksmarket.sol\":6589:6626  if (msg.value < offer.minValue) throw */\n      iszero\n      tag_162\n      jumpi\n        /* \"contracts/cryptopunksmarket.sol\":6621:6626  throw */\n      revert(0x0, 0x0)\n        /* \"contracts/cryptopunksmarket.sol\":6589:6626  if (msg.value < offer.minValue) throw */\n    tag_162:\n        /* \"contracts/cryptopunksmarket.sol\":6687:6705  punkIndexToAddress */\n      0xa\n        /* \"contracts/cryptopunksmarket.sol\":6687:6716  punkIndexToAddress[punkIndex] */\n      0x0\n        /* \"contracts/cryptopunksmarket.sol\":6706:6715  punkIndex */\n      dup6\n        /* \"contracts/cryptopunksmarket.sol\":6687:6716  punkIndexToAddress[punkIndex] */\n      dup2\n      mstore\n      0x20\n      add\n      swap1\n      dup2\n      mstore\n      0x20\n      add\n      0x0\n      sha3\n      0x0\n      swap1\n      sload\n      swap1\n      0x100\n      exp\n      swap1\n      div\n      0xffffffffffffffffffffffffffffffffffffffff\n      and\n        /* \"contracts/cryptopunksmarket.sol\":6671:6716  offer.seller != punkIndexToAddress[punkIndex] */\n      0xffffffffffffffffffffffffffffffffffffffff\n      and\n        /* \"contracts/cryptopunksmarket.sol\":6671:6676  offer */\n      dup4\n        /* \"contracts/cryptopunksmarket.sol\":6671:6683  offer.seller */\n      0x2\n      add\n      0x0\n      swap1\n      sload\n      swap1\n      0x100\n      exp\n      swap1\n      div\n      0xffffffffffffffffffffffffffffffffffffffff\n      and\n        /* \"contracts/cryptopunksmarket.sol\":6671:6716  offer.seller != punkIndexToAddress[punkIndex] */\n      0xffffffffffffffffffffffffffffffffffffffff\n      and\n      eq\n      iszero\n        /* \"contracts/cryptopunksmarket.sol\":6667:6723  if (offer.seller != punkIndexToAddress[punkIndex]) throw */\n      iszero\n      tag_163\n      jumpi\n        /* \"contracts/cryptopunksmarket.sol\":6718:6723  throw */\n      revert(0x0, 0x0)\n        /* \"contracts/cryptopunksmarket.sol\":6667:6723  if (offer.seller != punkIndexToAddress[punkIndex]) throw */\n    tag_163:\n        /* \"contracts/cryptopunksmarket.sol\":6785:6790  offer */\n      dup3\n        /* \"contracts/cryptopunksmarket.sol\":6785:6797  offer.seller */\n      0x2\n      add\n      0x0\n      swap1\n      sload\n      swap1\n      0x100\n      exp\n      swap1\n      div\n      0xffffffffffffffffffffffffffffffffffffffff\n      and\n        /* \"contracts/cryptopunksmarket.sol\":6768:6797  address seller = offer.seller */\n      swap2\n      pop\n        /* \"contracts/cryptopunksmarket.sol\":6840:6850  msg.sender */\n      caller\n        /* \"contracts/cryptopunksmarket.sol\":6808:6826  punkIndexToAddress */\n      0xa\n        /* \"contracts/cryptopunksmarket.sol\":6808:6837  punkIndexToAddress[punkIndex] */\n      0x0\n        /* \"contracts/cryptopunksmarket.sol\":6827:6836  punkIndex */\n      dup7\n        /* \"contracts/cryptopunksmarket.sol\":6808:6837  punkIndexToAddress[punkIndex] */\n      dup2\n      mstore\n      0x20\n      add\n      swap1\n      dup2\n      mstore\n      0x20\n      add\n      0x0\n      sha3\n      0x0\n        /* \"contracts/cryptopunksmarket.sol\":6808:6850  punkIndexToAddress[punkIndex] = msg.sender */\n      0x100\n      exp\n      dup2\n      sload\n      dup2\n      0xffffffffffffffffffffffffffffffffffffffff\n      mul\n      not\n      and\n      swap1\n      dup4\n      0xffffffffffffffffffffffffffffffffffffffff\n      and\n      mul\n      or\n      swap1\n      sstore\n      pop\n        /* \"contracts/cryptopunksmarket.sol\":6860:6869  balanceOf */\n      0xb\n        /* \"contracts/cryptopunksmarket.sol\":6860:6877  balanceOf[seller] */\n      0x0\n        /* \"contracts/cryptopunksmarket.sol\":6870:6876  seller */\n      dup4\n        /* \"contracts/cryptopunksmarket.sol\":6860:6877  balanceOf[seller] */\n      0xffffffffffffffffffffffffffffffffffffffff\n      and\n      0xffffffffffffffffffffffffffffffffffffffff\n      and\n      dup2\n      mstore\n      0x20\n      add\n      swap1\n      dup2\n      mstore\n      0x20\n      add\n      0x0\n      sha3\n      0x0\n        /* \"contracts/cryptopunksmarket.sol\":6860:6879  balanceOf[seller]-- */\n      dup2\n      sload\n      dup1\n      swap3\n      swap2\n      swap1\n      0x1\n      swap1\n      sub\n      swap2\n      swap1\n      pop\n      sstore\n      pop\n        /* \"contracts/cryptopunksmarket.sol\":6889:6898  balanceOf */\n      0xb\n        /* \"contracts/cryptopunksmarket.sol\":6889:6910  balanceOf[msg.sender] */\n      0x0\n        /* \"contracts/cryptopunksmarket.sol\":6899:6909  msg.sender */\n      caller\n        /* \"contracts/cryptopunksmarket.sol\":6889:6910  balanceOf[msg.sender] */\n      0xffffffffffffffffffffffffffffffffffffffff\n      and\n      0xffffffffffffffffffffffffffffffffffffffff\n      and\n      dup2\n      mstore\n      0x20\n      add\n      swap1\n      dup2\n      mstore\n      0x20\n      add\n      0x0\n      sha3\n      0x0\n        /* \"contracts/cryptopunksmarket.sol\":6889:6912  balanceOf[msg.sender]++ */\n      dup2\n      sload\n      dup1\n      swap3\n      swap2\n      swap1\n      0x1\n      add\n      swap2\n      swap1\n      pop\n      sstore\n      pop\n        /* \"contracts/cryptopunksmarket.sol\":6939:6949  msg.sender */\n      caller\n        /* \"contracts/cryptopunksmarket.sol\":6922:6953  Transfer(seller, msg.sender, 1) */\n      0xffffffffffffffffffffffffffffffffffffffff\n      and\n        /* \"contracts/cryptopunksmarket.sol\":6931:6937  seller */\n      dup3\n        /* \"contracts/cryptopunksmarket.sol\":6922:6953  Transfer(seller, msg.sender, 1) */\n      0xffffffffffffffffffffffffffffffffffffffff\n      and\n      0xddf252ad1be2c89b69c2b068fc378daa952ba7f163c4a11628f55a4df523b3ef\n        /* \"contracts/cryptopunksmarket.sol\":6951:6952  1 */\n      0x1\n        /* \"contracts/cryptopunksmarket.sol\":6922:6953  Transfer(seller, msg.sender, 1) */\n      mload(0x40)\n      dup1\n      dup3\n      dup2\n      mstore\n      0x20\n      add\n      swap2\n      pop\n      pop\n      mload(0x40)\n      dup1\n      swap2\n      sub\n      swap1\n      log3\n        /* \"contracts/cryptopunksmarket.sol\":6964:6994  punkNoLongerForSale(punkIndex) */\n      tag_164\n        /* \"contracts/cryptopunksmarket.sol\":6984:6993  punkIndex */\n      dup5\n        /* \"contracts/cryptopunksmarket.sol\":6964:6983  punkNoLongerForSale */\n      tag_119\n        /* \"contracts/cryptopunksmarket.sol\":6964:6994  punkNoLongerForSale(punkIndex) */\n      jump\t// in\n    tag_164:\n        /* \"contracts/cryptopunksmarket.sol\":7034:7043  msg.value */\n      callvalue\n        /* \"contracts/cryptopunksmarket.sol\":7004:7022  pendingWithdrawals */\n      0xe\n        /* \"contracts/cryptopunksmarket.sol\":7004:7030  pendingWithdrawals[seller] */\n      0x0\n        /* \"contracts/cryptopunksmarket.sol\":7023:7029  seller */\n      dup5\n        /* \"contracts/cryptopunksmarket.sol\":7004:7030  pendingWithdrawals[seller] */\n      0xffffffffffffffffffffffffffffffffffffffff\n      and\n      0xffffffffffffffffffffffffffffffffffffffff\n      and\n      dup2\n      mstore\n      0x20\n      add\n      swap1\n      dup2\n      mstore\n      0x20\n      add\n      0x0\n      sha3\n      0x0\n        /* \"contracts/cryptopunksmarket.sol\":7004:7043  pendingWithdrawals[seller] += msg.value */\n      dup3\n      dup3\n      sload\n      add\n      swap3\n      pop\n      pop\n      dup2\n      swap1\n      sstore\n      pop\n        /* \"contracts/cryptopunksmarket.sol\":7094:7104  msg.sender */\n      caller\n        /* \"contracts/cryptopunksmarket.sol\":7053:7105  PunkBought(punkIndex, msg.value, seller, msg.sender) */\n      0xffffffffffffffffffffffffffffffffffffffff\n      and\n        /* \"contracts/cryptopunksmarket.sol\":7086:7092  seller */\n      dup3\n        /* \"contracts/cryptopunksmarket.sol\":7053:7105  PunkBought(punkIndex, msg.value, seller, msg.sender) */\n      0xffffffffffffffffffffffffffffffffffffffff\n      and\n        /* \"contracts/cryptopunksmarket.sol\":7064:7073  punkIndex */\n      dup6\n        /* \"contracts/cryptopunksmarket.sol\":7053:7105  PunkBought(punkIndex, msg.value, seller, msg.sender) */\n      0x58e5d5a525e3b40bc15abaa38b5882678db1ee68befd2f60bafe3a7fd06db9e3\n        /* \"contracts/cryptopunksmarket.sol\":7075:7084  msg.value */\n      callvalue\n        /* \"contracts/cryptopunksmarket.sol\":7053:7105  PunkBought(punkIndex, msg.value, seller, msg.sender) */\n      mload(0x40)\n      dup1\n      dup3\n      dup2\n      mstore\n      0x20\n      add\n      swap2\n      pop\n      pop\n      mload(0x40)\n      dup1\n      swap2\n      sub\n      swap1\n      log4\n        /* \"contracts/cryptopunksmarket.sol\":7255:7263  punkBids */\n      0xd\n        /* \"contracts/cryptopunksmarket.sol\":7255:7274  punkBids[punkIndex] */\n      0x0\n        /* \"contracts/cryptopunksmarket.sol\":7264:7273  punkIndex */\n      dup6\n        /* \"contracts/cryptopunksmarket.sol\":7255:7274  punkBids[punkIndex] */\n      dup2\n      mstore\n      0x20\n      add\n      swap1\n      dup2\n      mstore\n      0x20\n      add\n      0x0\n      sha3\n        /* \"contracts/cryptopunksmarket.sol\":7245:7274  Bid bid = punkBids[punkIndex] */\n      swap1\n      pop\n        /* \"contracts/cryptopunksmarket.sol\":7302:7312  msg.sender */\n      caller\n        /* \"contracts/cryptopunksmarket.sol\":7288:7312  bid.bidder == msg.sender */\n      0xffffffffffffffffffffffffffffffffffffffff\n      and\n        /* \"contracts/cryptopunksmarket.sol\":7288:7291  bid */\n      dup2\n        /* \"contracts/cryptopunksmarket.sol\":7288:7298  bid.bidder */\n      0x2\n      add\n      0x0\n      swap1\n      sload\n      swap1\n      0x100\n      exp\n      swap1\n      div\n      0xffffffffffffffffffffffffffffffffffffffff\n      and\n        /* \"contracts/cryptopunksmarket.sol\":7288:7312  bid.bidder == msg.sender */\n      0xffffffffffffffffffffffffffffffffffffffff\n      and\n      eq\n        /* \"contracts/cryptopunksmarket.sol\":7284:7488  if (bid.bidder == msg.sender) {... */\n      iszero\n      tag_165\n      jumpi\n        /* \"contracts/cryptopunksmarket.sol\":7403:7406  bid */\n      dup1\n        /* \"contracts/cryptopunksmarket.sol\":7403:7412  bid.value */\n      0x3\n      add\n      sload\n        /* \"contracts/cryptopunksmarket.sol\":7369:7387  pendingWithdrawals */\n      0xe\n        /* \"contracts/cryptopunksmarket.sol\":7369:7399  pendingWithdrawals[msg.sender] */\n      0x0\n        /* \"contracts/cryptopunksmarket.sol\":7388:7398  msg.sender */\n      caller\n        /* \"contracts/cryptopunksmarket.sol\":7369:7399  pendingWithdrawals[msg.sender] */\n      0xffffffffffffffffffffffffffffffffffffffff\n      and\n      0xffffffffffffffffffffffffffffffffffffffff\n      and\n      dup2\n      mstore\n      0x20\n      add\n      swap1\n      dup2\n      mstore\n      0x20\n      add\n      0x0\n      sha3\n      0x0\n        /* \"contracts/cryptopunksmarket.sol\":7369:7412  pendingWithdrawals[msg.sender] += bid.value */\n      dup3\n      dup3\n      sload\n      add\n      swap3\n      pop\n      pop\n      dup2\n      swap1\n      sstore\n      pop\n        /* \"contracts/cryptopunksmarket.sol\":7448:7477  Bid(false, punkIndex, 0x0, 0) */\n      0x80\n      mload(0x40)\n      swap1\n      dup2\n      add\n      0x40\n      mstore\n      dup1\n        /* \"contracts/cryptopunksmarket.sol\":7452:7457  false */\n      0x0\n        /* \"contracts/cryptopunksmarket.sol\":7448:7477  Bid(false, punkIndex, 0x0, 0) */\n      iszero\n      iszero\n      dup2\n      mstore\n      0x20\n      add\n        /* \"contracts/cryptopunksmarket.sol\":7459:7468  punkIndex */\n      dup6\n        /* \"contracts/cryptopunksmarket.sol\":7448:7477  Bid(false, punkIndex, 0x0, 0) */\n      dup2\n      mstore\n      0x20\n      add\n        /* \"contracts/cryptopunksmarket.sol\":7470:7473  0x0 */\n      0x0\n        /* \"contracts/cryptopunksmarket.sol\":7448:7477  Bid(false, punkIndex, 0x0, 0) */\n      0xffffffffffffffffffffffffffffffffffffffff\n      and\n      dup2\n      mstore\n      0x20\n      add\n        /* \"contracts/cryptopunksmarket.sol\":7475:7476  0 */\n      0x0\n        /* \"contracts/cryptopunksmarket.sol\":7448:7477  Bid(false, punkIndex, 0x0, 0) */\n      dup2\n      mstore\n      pop\n        /* \"contracts/cryptopunksmarket.sol\":7426:7434  punkBids */\n      0xd\n        /* \"contracts/cryptopunksmarket.sol\":7426:7445  punkBids[punkIndex] */\n      0x0\n        /* \"contracts/cryptopunksmarket.sol\":7435:7444  punkIndex */\n      dup7\n        /* \"contracts/cryptopunksmarket.sol\":7426:7445  punkBids[punkIndex] */\n      dup2\n      mstore\n      0x20\n      add\n      swap1\n      dup2\n      mstore\n      0x20\n      add\n      0x0\n      sha3\n        /* \"contracts/cryptopunksmarket.sol\":7426:7477  punkBids[punkIndex] = Bid(false, punkIndex, 0x0, 0) */\n      0x0\n      dup3\n      add\n      mload\n      dup2\n      0x0\n      add\n      exp(0x100, 0x0)\n      dup2\n      sload\n      dup2\n      0xff\n      mul\n      not\n      and\n      swap1\n      dup4\n      iszero\n      iszero\n      mul\n      or\n      swap1\n      sstore\n      pop\n      0x20\n      dup3\n      add\n      mload\n      dup2\n      0x1\n      add\n      sstore\n      0x40\n      dup3\n      add\n      mload\n      dup2\n      0x2\n      add\n      exp(0x100, 0x0)\n      dup2\n      sload\n      dup2\n      0xffffffffffffffffffffffffffffffffffffffff\n      mul\n      not\n      and\n      swap1\n      dup4\n      0xffffffffffffffffffffffffffffffffffffffff\n      and\n      mul\n      or\n      swap1\n      sstore\n      pop\n      0x60\n      dup3\n      add\n      mload\n      dup2\n      0x3\n      add\n      sstore\n      swap1\n      pop\n      pop\n        /* \"contracts/cryptopunksmarket.sol\":7284:7488  if (bid.bidder == msg.sender) {... */\n    tag_165:\n        /* \"contracts/cryptopunksmarket.sol\":6201:7494  function buyPunk(uint punkIndex) payable {... */\n    tag_156:\n      pop\n      pop\n      pop\n      pop\n      jump\t// out\n        /* \"contracts/cryptopunksmarket.sol\":4215:5076  function transferPunk(address to, uint punkIndex) {... */\n    tag_89:\n        /* \"contracts/cryptopunksmarket.sol\":4843:4850  Bid bid */\n      0x0\n        /* \"contracts/cryptopunksmarket.sol\":4280:4296  allPunksAssigned */\n      0x8\n      0x0\n      swap1\n      sload\n      swap1\n      0x100\n      exp\n      swap1\n      div\n      0xff\n      and\n        /* \"contracts/cryptopunksmarket.sol\":4279:4296  !allPunksAssigned */\n      iszero\n        /* \"contracts/cryptopunksmarket.sol\":4275:4303  if (!allPunksAssigned) throw */\n      iszero\n      tag_167\n      jumpi\n        /* \"contracts/cryptopunksmarket.sol\":4298:4303  throw */\n      revert(0x0, 0x0)\n        /* \"contracts/cryptopunksmarket.sol\":4275:4303  if (!allPunksAssigned) throw */\n    tag_167:\n        /* \"contracts/cryptopunksmarket.sol\":4350:4360  msg.sender */\n      caller\n        /* \"contracts/cryptopunksmarket.sol\":4317:4360  punkIndexToAddress[punkIndex] != msg.sender */\n      0xffffffffffffffffffffffffffffffffffffffff\n      and\n        /* \"contracts/cryptopunksmarket.sol\":4317:4335  punkIndexToAddress */\n      0xa\n        /* \"contracts/cryptopunksmarket.sol\":4317:4346  punkIndexToAddress[punkIndex] */\n      0x0\n        /* \"contracts/cryptopunksmarket.sol\":4336:4345  punkIndex */\n      dup5\n        /* \"contracts/cryptopunksmarket.sol\":4317:4346  punkIndexToAddress[punkIndex] */\n      dup2\n      mstore\n      0x20\n      add\n      swap1\n      dup2\n      mstore\n      0x20\n      add\n      0x0\n      sha3\n      0x0\n      swap1\n      sload\n      swap1\n      0x100\n      exp\n      swap1\n      div\n      0xffffffffffffffffffffffffffffffffffffffff\n      and\n        /* \"contracts/cryptopunksmarket.sol\":4317:4360  punkIndexToAddress[punkIndex] != msg.sender */\n      0xffffffffffffffffffffffffffffffffffffffff\n      and\n      eq\n      iszero\n        /* \"contracts/cryptopunksmarket.sol\":4313:4367  if (punkIndexToAddress[punkIndex] != msg.sender) throw */\n      iszero\n      tag_168\n      jumpi\n        /* \"contracts/cryptopunksmarket.sol\":4362:4367  throw */\n      revert(0x0, 0x0)\n        /* \"contracts/cryptopunksmarket.sol\":4313:4367  if (punkIndexToAddress[punkIndex] != msg.sender) throw */\n    tag_168:\n        /* \"contracts/cryptopunksmarket.sol\":4394:4399  10000 */\n      0x2710\n        /* \"contracts/cryptopunksmarket.sol\":4381:4390  punkIndex */\n      dup3\n        /* \"contracts/cryptopunksmarket.sol\":4381:4399  punkIndex >= 10000 */\n      lt\n      iszero\n        /* \"contracts/cryptopunksmarket.sol\":4377:4406  if (punkIndex >= 10000) throw */\n      iszero\n      tag_169\n      jumpi\n        /* \"contracts/cryptopunksmarket.sol\":4401:4406  throw */\n      revert(0x0, 0x0)\n        /* \"contracts/cryptopunksmarket.sol\":4377:4406  if (punkIndex >= 10000) throw */\n    tag_169:\n        /* \"contracts/cryptopunksmarket.sol\":4420:4439  punksOfferedForSale */\n      0xc\n        /* \"contracts/cryptopunksmarket.sol\":4420:4450  punksOfferedForSale[punkIndex] */\n      0x0\n        /* \"contracts/cryptopunksmarket.sol\":4440:4449  punkIndex */\n      dup4\n        /* \"contracts/cryptopunksmarket.sol\":4420:4450  punksOfferedForSale[punkIndex] */\n      dup2\n      mstore\n      0x20\n      add\n      swap1\n      dup2\n      mstore\n      0x20\n      add\n      0x0\n      sha3\n        /* \"contracts/cryptopunksmarket.sol\":4420:4460  punksOfferedForSale[punkIndex].isForSale */\n      0x0\n      add\n      0x0\n      swap1\n      sload\n      swap1\n      0x100\n      exp\n      swap1\n      div\n      0xff\n      and\n        /* \"contracts/cryptopunksmarket.sol\":4416:4517  if (punksOfferedForSale[punkIndex].isForSale) {... */\n      iszero\n      tag_170\n      jumpi\n        /* \"contracts/cryptopunksmarket.sol\":4476:4506  punkNoLongerForSale(punkIndex) */\n      tag_171\n        /* \"contracts/cryptopunksmarket.sol\":4496:4505  punkIndex */\n      dup3\n        /* \"contracts/cryptopunksmarket.sol\":4476:4495  punkNoLongerForSale */\n      tag_119\n        /* \"contracts/cryptopunksmarket.sol\":4476:4506  punkNoLongerForSale(punkIndex) */\n      jump\t// in\n    tag_171:\n        /* \"contracts/cryptopunksmarket.sol\":4416:4517  if (punksOfferedForSale[punkIndex].isForSale) {... */\n    tag_170:\n        /* \"contracts/cryptopunksmarket.sol\":4558:4560  to */\n      dup3\n        /* \"contracts/cryptopunksmarket.sol\":4526:4544  punkIndexToAddress */\n      0xa\n        /* \"contracts/cryptopunksmarket.sol\":4526:4555  punkIndexToAddress[punkIndex] */\n      0x0\n        /* \"contracts/cryptopunksmarket.sol\":4545:4554  punkIndex */\n      dup5\n        /* \"contracts/cryptopunksmarket.sol\":4526:4555  punkIndexToAddress[punkIndex] */\n      dup2\n      mstore\n      0x20\n      add\n      swap1\n      dup2\n      mstore\n      0x20\n      add\n      0x0\n      sha3\n      0x0\n        /* \"contracts/cryptopunksmarket.sol\":4526:4560  punkIndexToAddress[punkIndex] = to */\n      0x100\n      exp\n      dup2\n      sload\n      dup2\n      0xffffffffffffffffffffffffffffffffffffffff\n      mul\n      not\n      and\n      swap1\n      dup4\n      0xffffffffffffffffffffffffffffffffffffffff\n      and\n      mul\n      or\n      swap1\n      sstore\n      pop\n        /* \"contracts/cryptopunksmarket.sol\":4570:4579  balanceOf */\n      0xb\n        /* \"contracts/cryptopunksmarket.sol\":4570:4591  balanceOf[msg.sender] */\n      0x0\n        /* \"contracts/cryptopunksmarket.sol\":4580:4590  msg.sender */\n      caller\n        /* \"contracts/cryptopunksmarket.sol\":4570:4591  balanceOf[msg.sender] */\n      0xffffffffffffffffffffffffffffffffffffffff\n      and\n      0xffffffffffffffffffffffffffffffffffffffff\n      and\n      dup2\n      mstore\n      0x20\n      add\n      swap1\n      dup2\n      mstore\n      0x20\n      add\n      0x0\n      sha3\n      0x0\n        /* \"contracts/cryptopunksmarket.sol\":4570:4593  balanceOf[msg.sender]-- */\n      dup2\n      sload\n      dup1\n      swap3\n      swap2\n      swap1\n      0x1\n      swap1\n      sub\n      swap2\n      swap1\n      pop\n      sstore\n      pop\n        /* \"contracts/cryptopunksmarket.sol\":4603:4612  balanceOf */\n      0xb\n        /* \"contracts/cryptopunksmarket.sol\":4603:4616  balanceOf[to] */\n      0x0\n        /* \"contracts/cryptopunksmarket.sol\":4613:4615  to */\n      dup5\n        /* \"contracts/cryptopunksmarket.sol\":4603:4616  balanceOf[to] */\n      0xffffffffffffffffffffffffffffffffffffffff\n      and\n      0xffffffffffffffffffffffffffffffffffffffff\n      and\n      dup2\n      mstore\n      0x20\n      add\n      swap1\n      dup2\n      mstore\n      0x20\n      add\n      0x0\n      sha3\n      0x0\n        /* \"contracts/cryptopunksmarket.sol\":4603:4618  balanceOf[to]++ */\n      dup2\n      sload\n      dup1\n      swap3\n      swap2\n      swap1\n      0x1\n      add\n      swap2\n      swap1\n      pop\n      sstore\n      pop\n        /* \"contracts/cryptopunksmarket.sol\":4649:4651  to */\n      dup3\n        /* \"contracts/cryptopunksmarket.sol\":4628:4655  Transfer(msg.sender, to, 1) */\n      0xffffffffffffffffffffffffffffffffffffffff\n      and\n        /* \"contracts/cryptopunksmarket.sol\":4637:4647  msg.sender */\n      caller\n        /* \"contracts/cryptopunksmarket.sol\":4628:4655  Transfer(msg.sender, to, 1) */\n      0xffffffffffffffffffffffffffffffffffffffff\n      and\n      0xddf252ad1be2c89b69c2b068fc378daa952ba7f163c4a11628f55a4df523b3ef\n        /* \"contracts/cryptopunksmarket.sol\":4653:4654  1 */\n      0x1\n        /* \"contracts/cryptopunksmarket.sol\":4628:4655  Transfer(msg.sender, to, 1) */\n      mload(0x40)\n      dup1\n      dup3\n      dup2\n      mstore\n      0x20\n      add\n      swap2\n      pop\n      pop\n      mload(0x40)\n      dup1\n      swap2\n      sub\n      swap1\n      log3\n        /* \"contracts/cryptopunksmarket.sol\":4690:4692  to */\n      dup3\n        /* \"contracts/cryptopunksmarket.sol\":4665:4704  PunkTransfer(msg.sender, to, punkIndex) */\n      0xffffffffffffffffffffffffffffffffffffffff\n      and\n        /* \"contracts/cryptopunksmarket.sol\":4678:4688  msg.sender */\n      caller\n        /* \"contracts/cryptopunksmarket.sol\":4665:4704  PunkTransfer(msg.sender, to, punkIndex) */\n      0xffffffffffffffffffffffffffffffffffffffff\n      and\n      0x5af636b70da6819000c49f85b21fa82081c632069bb626f30932034099107d8\n        /* \"contracts/cryptopunksmarket.sol\":4694:4703  punkIndex */\n      dup5\n        /* \"contracts/cryptopunksmarket.sol\":4665:4704  PunkTransfer(msg.sender, to, punkIndex) */\n      mload(0x40)\n      dup1\n      dup3\n      dup2\n      mstore\n      0x20\n      add\n      swap2\n      pop\n      pop\n      mload(0x40)\n      dup1\n      swap2\n      sub\n      swap1\n      log3\n        /* \"contracts/cryptopunksmarket.sol\":4853:4861  punkBids */\n      0xd\n        /* \"contracts/cryptopunksmarket.sol\":4853:4872  punkBids[punkIndex] */\n      0x0\n        /* \"contracts/cryptopunksmarket.sol\":4862:4871  punkIndex */\n      dup4\n        /* \"contracts/cryptopunksmarket.sol\":4853:4872  punkBids[punkIndex] */\n      dup2\n      mstore\n      0x20\n      add\n      swap1\n      dup2\n      mstore\n      0x20\n      add\n      0x0\n      sha3\n        /* \"contracts/cryptopunksmarket.sol\":4843:4872  Bid bid = punkBids[punkIndex] */\n      swap1\n      pop\n        /* \"contracts/cryptopunksmarket.sol\":4900:4902  to */\n      dup3\n        /* \"contracts/cryptopunksmarket.sol\":4886:4902  bid.bidder == to */\n      0xffffffffffffffffffffffffffffffffffffffff\n      and\n        /* \"contracts/cryptopunksmarket.sol\":4886:4889  bid */\n      dup2\n        /* \"contracts/cryptopunksmarket.sol\":4886:4896  bid.bidder */\n      0x2\n      add\n      0x0\n      swap1\n      sload\n      swap1\n      0x100\n      exp\n      swap1\n      div\n      0xffffffffffffffffffffffffffffffffffffffff\n      and\n        /* \"contracts/cryptopunksmarket.sol\":4886:4902  bid.bidder == to */\n      0xffffffffffffffffffffffffffffffffffffffff\n      and\n      eq\n        /* \"contracts/cryptopunksmarket.sol\":4882:5070  if (bid.bidder == to) {... */\n      iszero\n      tag_172\n      jumpi\n        /* \"contracts/cryptopunksmarket.sol\":4985:4988  bid */\n      dup1\n        /* \"contracts/cryptopunksmarket.sol\":4985:4994  bid.value */\n      0x3\n      add\n      sload\n        /* \"contracts/cryptopunksmarket.sol\":4959:4977  pendingWithdrawals */\n      0xe\n        /* \"contracts/cryptopunksmarket.sol\":4959:4981  pendingWithdrawals[to] */\n      0x0\n        /* \"contracts/cryptopunksmarket.sol\":4978:4980  to */\n      dup6\n        /* \"contracts/cryptopunksmarket.sol\":4959:4981  pendingWithdrawals[to] */\n      0xffffffffffffffffffffffffffffffffffffffff\n      and\n      0xffffffffffffffffffffffffffffffffffffffff\n      and\n      dup2\n      mstore\n      0x20\n      add\n      swap1\n      dup2\n      mstore\n      0x20\n      add\n      0x0\n      sha3\n      0x0\n        /* \"contracts/cryptopunksmarket.sol\":4959:4994  pendingWithdrawals[to] += bid.value */\n      dup3\n      dup3\n      sload\n      add\n      swap3\n      pop\n      pop\n      dup2\n      swap1\n      sstore\n      pop\n        /* \"contracts/cryptopunksmarket.sol\":5030:5059  Bid(false, punkIndex, 0x0, 0) */\n      0x80\n      mload(0x40)\n      swap1\n      dup2\n      add\n      0x40\n      mstore\n      dup1\n        /* \"contracts/cryptopunksmarket.sol\":5034:5039  false */\n      0x0\n        /* \"contracts/cryptopunksmarket.sol\":5030:5059  Bid(false, punkIndex, 0x0, 0) */\n      iszero\n      iszero\n      dup2\n      mstore\n      0x20\n      add\n        /* \"contracts/cryptopunksmarket.sol\":5041:5050  punkIndex */\n      dup4\n        /* \"contracts/cryptopunksmarket.sol\":5030:5059  Bid(false, punkIndex, 0x0, 0) */\n      dup2\n      mstore\n      0x20\n      add\n        /* \"contracts/cryptopunksmarket.sol\":5052:5055  0x0 */\n      0x0\n        /* \"contracts/cryptopunksmarket.sol\":5030:5059  Bid(false, punkIndex, 0x0, 0) */\n      0xffffffffffffffffffffffffffffffffffffffff\n      and\n      dup2\n      mstore\n      0x20\n      add\n        /* \"contracts/cryptopunksmarket.sol\":5057:5058  0 */\n      0x0\n        /* \"contracts/cryptopunksmarket.sol\":5030:5059  Bid(false, punkIndex, 0x0, 0) */\n      dup2\n      mstore\n      pop\n        /* \"contracts/cryptopunksmarket.sol\":5008:5016  punkBids */\n      0xd\n        /* \"contracts/cryptopunksmarket.sol\":5008:5027  punkBids[punkIndex] */\n      0x0\n        /* \"contracts/cryptopunksmarket.sol\":5017:5026  punkIndex */\n      dup5\n        /* \"contracts/cryptopunksmarket.sol\":5008:5027  punkBids[punkIndex] */\n      dup2\n      mstore\n      0x20\n      add\n      swap1\n      dup2\n      mstore\n      0x20\n      add\n      0x0\n      sha3\n        /* \"contracts/cryptopunksmarket.sol\":5008:5059  punkBids[punkIndex] = Bid(false, punkIndex, 0x0, 0) */\n      0x0\n      dup3\n      add\n      mload\n      dup2\n      0x0\n      add\n      exp(0x100, 0x0)\n      dup2\n      sload\n      dup2\n      0xff\n      mul\n      not\n      and\n      swap1\n      dup4\n      iszero\n      iszero\n      mul\n      or\n      swap1\n      sstore\n      pop\n      0x20\n      dup3\n      add\n      mload\n      dup2\n      0x1\n      add\n      sstore\n      0x40\n      dup3\n      add\n      mload\n      dup2\n      0x2\n      add\n      exp(0x100, 0x0)\n      dup2\n      sload\n      dup2\n      0xffffffffffffffffffffffffffffffffffffffff\n      mul\n      not\n      and\n      swap1\n      dup4\n      0xffffffffffffffffffffffffffffffffffffffff\n      and\n      mul\n      or\n      swap1\n      sstore\n      pop\n      0x60\n      dup3\n      add\n      mload\n      dup2\n      0x3\n      add\n      sstore\n      swap1\n      pop\n      pop\n        /* \"contracts/cryptopunksmarket.sol\":4882:5070  if (bid.bidder == to) {... */\n    tag_172:\n        /* \"contracts/cryptopunksmarket.sol\":4215:5076  function transferPunk(address to, uint punkIndex) {... */\n    tag_166:\n      pop\n      pop\n      pop\n      jump\t// out\n        /* \"contracts/cryptopunksmarket.sol\":391:411  string public symbol */\n    tag_92:\n      0x4\n      dup1\n      sload\n      0x1\n      dup2\n      0x1\n      and\n      iszero\n      0x100\n      mul\n      sub\n      and\n      0x2\n      swap1\n      div\n      dup1\n      0x1f\n      add\n      0x20\n      dup1\n      swap2\n      div\n      mul\n      0x20\n      add\n      mload(0x40)\n      swap1\n      dup2\n      add\n      0x40\n      mstore\n      dup1\n      swap3\n      swap2\n      swap1\n      dup2\n      dup2\n      mstore\n      0x20\n      add\n      dup3\n      dup1\n      sload\n      0x1\n      dup2\n      0x1\n      and\n      iszero\n      0x100\n      mul\n      sub\n      and\n      0x2\n      swap1\n      div\n      dup1\n      iszero\n      tag_173\n      jumpi\n      dup1\n      0x1f\n      lt\n      tag_174\n      jumpi\n      0x100\n      dup1\n      dup4\n      sload\n      div\n      mul\n      dup4\n      mstore\n      swap2\n      0x20\n      add\n      swap2\n      jump(tag_173)\n    tag_174:\n      dup3\n      add\n      swap2\n      swap1\n      0x0\n      mstore\n      sha3(0x0, 0x20)\n      swap1\n    tag_175:\n      dup2\n      sload\n      dup2\n      mstore\n      swap1\n      0x1\n      add\n      swap1\n      0x20\n      add\n      dup1\n      dup4\n      gt\n      tag_175\n      jumpi\n      dup3\n      swap1\n      sub\n      0x1f\n      and\n      dup3\n      add\n      swap2\n    tag_173:\n      pop\n      pop\n      pop\n      pop\n      pop\n      dup2\n      jump\t// out\n        /* \"contracts/cryptopunksmarket.sol\":9319:9891  function withdrawBidForPunk(uint punkIndex) {... */\n    tag_98:\n        /* \"contracts/cryptopunksmarket.sol\":9587:9594  Bid bid */\n      0x0\n        /* \"contracts/cryptopunksmarket.sol\":9731:9742  uint amount */\n      0x0\n        /* \"contracts/cryptopunksmarket.sol\":9390:9395  10000 */\n      0x2710\n        /* \"contracts/cryptopunksmarket.sol\":9377:9386  punkIndex */\n      dup4\n        /* \"contracts/cryptopunksmarket.sol\":9377:9395  punkIndex >= 10000 */\n      lt\n      iszero\n        /* \"contracts/cryptopunksmarket.sol\":9373:9402  if (punkIndex >= 10000) throw */\n      iszero\n      tag_177\n      jumpi\n        /* \"contracts/cryptopunksmarket.sol\":9397:9402  throw */\n      revert(0x0, 0x0)\n        /* \"contracts/cryptopunksmarket.sol\":9373:9402  if (punkIndex >= 10000) throw */\n    tag_177:\n        /* \"contracts/cryptopunksmarket.sol\":9417:9433  allPunksAssigned */\n      0x8\n      0x0\n      swap1\n      sload\n      swap1\n      0x100\n      exp\n      swap1\n      div\n      0xff\n      and\n        /* \"contracts/cryptopunksmarket.sol\":9416:9433  !allPunksAssigned */\n      iszero\n        /* \"contracts/cryptopunksmarket.sol\":9412:9440  if (!allPunksAssigned) throw */\n      iszero\n      tag_178\n      jumpi\n        /* \"contracts/cryptopunksmarket.sol\":9435:9440  throw */\n      revert(0x0, 0x0)\n        /* \"contracts/cryptopunksmarket.sol\":9412:9440  if (!allPunksAssigned) throw */\n    tag_178:\n        /* \"contracts/cryptopunksmarket.sol\":9503:9506  0x0 */\n      0x0\n        /* \"contracts/cryptopunksmarket.sol\":9470:9488  punkIndexToAddress */\n      0xa\n        /* \"contracts/cryptopunksmarket.sol\":9470:9499  punkIndexToAddress[punkIndex] */\n      0x0\n        /* \"contracts/cryptopunksmarket.sol\":9489:9498  punkIndex */\n      dup6\n        /* \"contracts/cryptopunksmarket.sol\":9470:9499  punkIndexToAddress[punkIndex] */\n      dup2\n      mstore\n      0x20\n      add\n      swap1\n      dup2\n      mstore\n      0x20\n      add\n      0x0\n      sha3\n      0x0\n      swap1\n      sload\n      swap1\n      0x100\n      exp\n      swap1\n      div\n      0xffffffffffffffffffffffffffffffffffffffff\n      and\n        /* \"contracts/cryptopunksmarket.sol\":9470:9506  punkIndexToAddress[punkIndex] == 0x0 */\n      0xffffffffffffffffffffffffffffffffffffffff\n      and\n      eq\n        /* \"contracts/cryptopunksmarket.sol\":9466:9513  if (punkIndexToAddress[punkIndex] == 0x0) throw */\n      iszero\n      tag_179\n      jumpi\n        /* \"contracts/cryptopunksmarket.sol\":9508:9513  throw */\n      revert(0x0, 0x0)\n        /* \"contracts/cryptopunksmarket.sol\":9466:9513  if (punkIndexToAddress[punkIndex] == 0x0) throw */\n    tag_179:\n        /* \"contracts/cryptopunksmarket.sol\":9560:9570  msg.sender */\n      caller\n        /* \"contracts/cryptopunksmarket.sol\":9527:9570  punkIndexToAddress[punkIndex] == msg.sender */\n      0xffffffffffffffffffffffffffffffffffffffff\n      and\n        /* \"contracts/cryptopunksmarket.sol\":9527:9545  punkIndexToAddress */\n      0xa\n        /* \"contracts/cryptopunksmarket.sol\":9527:9556  punkIndexToAddress[punkIndex] */\n      0x0\n        /* \"contracts/cryptopunksmarket.sol\":9546:9555  punkIndex */\n      dup6\n        /* \"contracts/cryptopunksmarket.sol\":9527:9556  punkIndexToAddress[punkIndex] */\n      dup2\n      mstore\n      0x20\n      add\n      swap1\n      dup2\n      mstore\n      0x20\n      add\n      0x0\n      sha3\n      0x0\n      swap1\n      sload\n      swap1\n      0x100\n      exp\n      swap1\n      div\n      0xffffffffffffffffffffffffffffffffffffffff\n      and\n        /* \"contracts/cryptopunksmarket.sol\":9527:9570  punkIndexToAddress[punkIndex] == msg.sender */\n      0xffffffffffffffffffffffffffffffffffffffff\n      and\n      eq\n        /* \"contracts/cryptopunksmarket.sol\":9523:9577  if (punkIndexToAddress[punkIndex] == msg.sender) throw */\n      iszero\n      tag_180\n      jumpi\n        /* \"contracts/cryptopunksmarket.sol\":9572:9577  throw */\n      revert(0x0, 0x0)\n        /* \"contracts/cryptopunksmarket.sol\":9523:9577  if (punkIndexToAddress[punkIndex] == msg.sender) throw */\n    tag_180:\n        /* \"contracts/cryptopunksmarket.sol\":9597:9605  punkBids */\n      0xd\n        /* \"contracts/cryptopunksmarket.sol\":9597:9616  punkBids[punkIndex] */\n      0x0\n        /* \"contracts/cryptopunksmarket.sol\":9606:9615  punkIndex */\n      dup5\n        /* \"contracts/cryptopunksmarket.sol\":9597:9616  punkBids[punkIndex] */\n      dup2\n      mstore\n      0x20\n      add\n      swap1\n      dup2\n      mstore\n      0x20\n      add\n      0x0\n      sha3\n        /* \"contracts/cryptopunksmarket.sol\":9587:9616  Bid bid = punkBids[punkIndex] */\n      swap2\n      pop\n        /* \"contracts/cryptopunksmarket.sol\":9644:9654  msg.sender */\n      caller\n        /* \"contracts/cryptopunksmarket.sol\":9630:9654  bid.bidder != msg.sender */\n      0xffffffffffffffffffffffffffffffffffffffff\n      and\n        /* \"contracts/cryptopunksmarket.sol\":9630:9633  bid */\n      dup3\n        /* \"contracts/cryptopunksmarket.sol\":9630:9640  bid.bidder */\n      0x2\n      add\n      0x0\n      swap1\n      sload\n      swap1\n      0x100\n      exp\n      swap1\n      div\n      0xffffffffffffffffffffffffffffffffffffffff\n      and\n        /* \"contracts/cryptopunksmarket.sol\":9630:9654  bid.bidder != msg.sender */\n      0xffffffffffffffffffffffffffffffffffffffff\n      and\n      eq\n      iszero\n        /* \"contracts/cryptopunksmarket.sol\":9626:9661  if (bid.bidder != msg.sender) throw */\n      iszero\n      tag_181\n      jumpi\n        /* \"contracts/cryptopunksmarket.sol\":9656:9661  throw */\n      revert(0x0, 0x0)\n        /* \"contracts/cryptopunksmarket.sol\":9626:9661  if (bid.bidder != msg.sender) throw */\n    tag_181:\n        /* \"contracts/cryptopunksmarket.sol\":9710:9720  msg.sender */\n      caller\n        /* \"contracts/cryptopunksmarket.sol\":9671:9721  PunkBidWithdrawn(punkIndex, bid.value, msg.sender) */\n      0xffffffffffffffffffffffffffffffffffffffff\n      and\n        /* \"contracts/cryptopunksmarket.sol\":9688:9697  punkIndex */\n      dup4\n        /* \"contracts/cryptopunksmarket.sol\":9671:9721  PunkBidWithdrawn(punkIndex, bid.value, msg.sender) */\n      0x6f30e1ee4d81dcc7a8a478577f65d2ed2edb120565960ac45fe7c50551c87932\n        /* \"contracts/cryptopunksmarket.sol\":9699:9702  bid */\n      dup5\n        /* \"contracts/cryptopunksmarket.sol\":9699:9708  bid.value */\n      0x3\n      add\n      sload\n        /* \"contracts/cryptopunksmarket.sol\":9671:9721  PunkBidWithdrawn(punkIndex, bid.value, msg.sender) */\n      mload(0x40)\n      dup1\n      dup3\n      dup2\n      mstore\n      0x20\n      add\n      swap2\n      pop\n      pop\n      mload(0x40)\n      dup1\n      swap2\n      sub\n      swap1\n      log3\n        /* \"contracts/cryptopunksmarket.sol\":9745:9748  bid */\n      dup2\n        /* \"contracts/cryptopunksmarket.sol\":9745:9754  bid.value */\n      0x3\n      add\n      sload\n        /* \"contracts/cryptopunksmarket.sol\":9731:9754  uint amount = bid.value */\n      swap1\n      pop\n        /* \"contracts/cryptopunksmarket.sol\":9786:9815  Bid(false, punkIndex, 0x0, 0) */\n      0x80\n      mload(0x40)\n      swap1\n      dup2\n      add\n      0x40\n      mstore\n      dup1\n        /* \"contracts/cryptopunksmarket.sol\":9790:9795  false */\n      0x0\n        /* \"contracts/cryptopunksmarket.sol\":9786:9815  Bid(false, punkIndex, 0x0, 0) */\n      iszero\n      iszero\n      dup2\n      mstore\n      0x20\n      add\n        /* \"contracts/cryptopunksmarket.sol\":9797:9806  punkIndex */\n      dup5\n        /* \"contracts/cryptopunksmarket.sol\":9786:9815  Bid(false, punkIndex, 0x0, 0) */\n      dup2\n      mstore\n      0x20\n      add\n        /* \"contracts/cryptopunksmarket.sol\":9808:9811  0x0 */\n      0x0\n        /* \"contracts/cryptopunksmarket.sol\":9786:9815  Bid(false, punkIndex, 0x0, 0) */\n      0xffffffffffffffffffffffffffffffffffffffff\n      and\n      dup2\n      mstore\n      0x20\n      add\n        /* \"contracts/cryptopunksmarket.sol\":9813:9814  0 */\n      0x0\n        /* \"contracts/cryptopunksmarket.sol\":9786:9815  Bid(false, punkIndex, 0x0, 0) */\n      dup2\n      mstore\n      pop\n        /* \"contracts/cryptopunksmarket.sol\":9764:9772  punkBids */\n      0xd\n        /* \"contracts/cryptopunksmarket.sol\":9764:9783  punkBids[punkIndex] */\n      0x0\n        /* \"contracts/cryptopunksmarket.sol\":9773:9782  punkIndex */\n      dup6\n        /* \"contracts/cryptopunksmarket.sol\":9764:9783  punkBids[punkIndex] */\n      dup2\n      mstore\n      0x20\n      add\n      swap1\n      dup2\n      mstore\n      0x20\n      add\n      0x0\n      sha3\n        /* \"contracts/cryptopunksmarket.sol\":9764:9815  punkBids[punkIndex] = Bid(false, punkIndex, 0x0, 0) */\n      0x0\n      dup3\n      add\n      mload\n      dup2\n      0x0\n      add\n      exp(0x100, 0x0)\n      dup2\n      sload\n      dup2\n      0xff\n      mul\n      not\n      and\n      swap1\n      dup4\n      iszero\n      iszero\n      mul\n      or\n      swap1\n      sstore\n      pop\n      0x20\n      dup3\n      add\n      mload\n      dup2\n      0x1\n      add\n      sstore\n      0x40\n      dup3\n      add\n      mload\n      dup2\n      0x2\n      add\n      exp(0x100, 0x0)\n      dup2\n      sload\n      dup2\n      0xffffffffffffffffffffffffffffffffffffffff\n      mul\n      not\n      and\n      swap1\n      dup4\n      0xffffffffffffffffffffffffffffffffffffffff\n      and\n      mul\n      or\n      swap1\n      sstore\n      pop\n      0x60\n      dup3\n      add\n      mload\n      dup2\n      0x3\n      add\n      sstore\n      swap1\n      pop\n      pop\n        /* \"contracts/cryptopunksmarket.sol\":9857:9867  msg.sender */\n      caller\n        /* \"contracts/cryptopunksmarket.sol\":9857:9876  msg.sender.transfer */\n      0xffffffffffffffffffffffffffffffffffffffff\n      and\n        /* \"contracts/cryptopunksmarket.sol\":9857:9884  msg.sender.transfer(amount) */\n      0x8fc\n        /* \"contracts/cryptopunksmarket.sol\":9877:9883  amount */\n      dup3\n        /* \"contracts/cryptopunksmarket.sol\":9857:9884  msg.sender.transfer(amount) */\n      swap1\n      dup2\n      iszero\n      mul\n      swap1\n      mload(0x40)\n      dup1\n      swap1\n      pop\n      0x0\n      mload(0x40)\n      dup1\n      dup4\n      sub\n      dup2\n      dup6\n      dup9\n      dup9\n      call\n      swap4\n      pop\n      pop\n      pop\n      pop\n      iszero\n      iszero\n      tag_182\n      jumpi\n      invalid\n    tag_182:\n        /* \"contracts/cryptopunksmarket.sol\":9319:9891  function withdrawBidForPunk(uint punkIndex) {... */\n    tag_176:\n      pop\n      pop\n      pop\n      jump\t// out\n        /* \"contracts/cryptopunksmarket.sol\":2826:3368  function setInitialOwner(address to, uint punkIndex) {... */\n    tag_101:\n        /* \"contracts/cryptopunksmarket.sol\":2907:2912  owner */\n      0x1\n      0x0\n      swap1\n      sload\n      swap1\n      0x100\n      exp\n      swap1\n      div\n      0xffffffffffffffffffffffffffffffffffffffff\n      and\n        /* \"contracts/cryptopunksmarket.sol\":2893:2912  msg.sender != owner */\n      0xffffffffffffffffffffffffffffffffffffffff\n      and\n        /* \"contracts/cryptopunksmarket.sol\":2893:2903  msg.sender */\n      caller\n        /* \"contracts/cryptopunksmarket.sol\":2893:2912  msg.sender != owner */\n      0xffffffffffffffffffffffffffffffffffffffff\n      and\n      eq\n      iszero\n        /* \"contracts/cryptopunksmarket.sol\":2889:2919  if (msg.sender != owner) throw */\n      iszero\n      tag_184\n      jumpi\n        /* \"contracts/cryptopunksmarket.sol\":2914:2919  throw */\n      revert(0x0, 0x0)\n        /* \"contracts/cryptopunksmarket.sol\":2889:2919  if (msg.sender != owner) throw */\n    tag_184:\n        /* \"contracts/cryptopunksmarket.sol\":2933:2949  allPunksAssigned */\n      0x8\n      0x0\n      swap1\n      sload\n      swap1\n      0x100\n      exp\n      swap1\n      div\n      0xff\n      and\n        /* \"contracts/cryptopunksmarket.sol\":2929:2956  if (allPunksAssigned) throw */\n      iszero\n      tag_185\n      jumpi\n        /* \"contracts/cryptopunksmarket.sol\":2951:2956  throw */\n      revert(0x0, 0x0)\n        /* \"contracts/cryptopunksmarket.sol\":2929:2956  if (allPunksAssigned) throw */\n    tag_185:\n        /* \"contracts/cryptopunksmarket.sol\":2983:2988  10000 */\n      0x2710\n        /* \"contracts/cryptopunksmarket.sol\":2970:2979  punkIndex */\n      dup2\n        /* \"contracts/cryptopunksmarket.sol\":2970:2988  punkIndex >= 10000 */\n      lt\n      iszero\n        /* \"contracts/cryptopunksmarket.sol\":2966:2995  if (punkIndex >= 10000) throw */\n      iszero\n      tag_186\n      jumpi\n        /* \"contracts/cryptopunksmarket.sol\":2990:2995  throw */\n      revert(0x0, 0x0)\n        /* \"contracts/cryptopunksmarket.sol\":2966:2995  if (punkIndex >= 10000) throw */\n    tag_186:\n        /* \"contracts/cryptopunksmarket.sol\":3042:3044  to */\n      dup2\n        /* \"contracts/cryptopunksmarket.sol\":3009:3044  punkIndexToAddress[punkIndex] != to */\n      0xffffffffffffffffffffffffffffffffffffffff\n      and\n        /* \"contracts/cryptopunksmarket.sol\":3009:3027  punkIndexToAddress */\n      0xa\n        /* \"contracts/cryptopunksmarket.sol\":3009:3038  punkIndexToAddress[punkIndex] */\n      0x0\n        /* \"contracts/cryptopunksmarket.sol\":3028:3037  punkIndex */\n      dup4\n        /* \"contracts/cryptopunksmarket.sol\":3009:3038  punkIndexToAddress[punkIndex] */\n      dup2\n      mstore\n      0x20\n      add\n      swap1\n      dup2\n      mstore\n      0x20\n      add\n      0x0\n      sha3\n      0x0\n      swap1\n      sload\n      swap1\n      0x100\n      exp\n      swap1\n      div\n      0xffffffffffffffffffffffffffffffffffffffff\n      and\n        /* \"contracts/cryptopunksmarket.sol\":3009:3044  punkIndexToAddress[punkIndex] != to */\n      0xffffffffffffffffffffffffffffffffffffffff\n      and\n      eq\n      iszero\n        /* \"contracts/cryptopunksmarket.sol\":3005:3362  if (punkIndexToAddress[punkIndex] != to) {... */\n      iszero\n      tag_187\n      jumpi\n        /* \"contracts/cryptopunksmarket.sol\":3097:3100  0x0 */\n      0x0\n        /* \"contracts/cryptopunksmarket.sol\":3064:3082  punkIndexToAddress */\n      0xa\n        /* \"contracts/cryptopunksmarket.sol\":3064:3093  punkIndexToAddress[punkIndex] */\n      0x0\n        /* \"contracts/cryptopunksmarket.sol\":3083:3092  punkIndex */\n      dup4\n        /* \"contracts/cryptopunksmarket.sol\":3064:3093  punkIndexToAddress[punkIndex] */\n      dup2\n      mstore\n      0x20\n      add\n      swap1\n      dup2\n      mstore\n      0x20\n      add\n      0x0\n      sha3\n      0x0\n      swap1\n      sload\n      swap1\n      0x100\n      exp\n      swap1\n      div\n      0xffffffffffffffffffffffffffffffffffffffff\n      and\n        /* \"contracts/cryptopunksmarket.sol\":3064:3100  punkIndexToAddress[punkIndex] != 0x0 */\n      0xffffffffffffffffffffffffffffffffffffffff\n      and\n      eq\n      iszero\n        /* \"contracts/cryptopunksmarket.sol\":3060:3240  if (punkIndexToAddress[punkIndex] != 0x0) {... */\n      iszero\n      tag_188\n      jumpi\n        /* \"contracts/cryptopunksmarket.sol\":3120:3129  balanceOf */\n      0xb\n        /* \"contracts/cryptopunksmarket.sol\":3120:3160  balanceOf[punkIndexToAddress[punkIndex]] */\n      0x0\n        /* \"contracts/cryptopunksmarket.sol\":3130:3148  punkIndexToAddress */\n      0xa\n        /* \"contracts/cryptopunksmarket.sol\":3130:3159  punkIndexToAddress[punkIndex] */\n      0x0\n        /* \"contracts/cryptopunksmarket.sol\":3149:3158  punkIndex */\n      dup5\n        /* \"contracts/cryptopunksmarket.sol\":3130:3159  punkIndexToAddress[punkIndex] */\n      dup2\n      mstore\n      0x20\n      add\n      swap1\n      dup2\n      mstore\n      0x20\n      add\n      0x0\n      sha3\n      0x0\n      swap1\n      sload\n      swap1\n      0x100\n      exp\n      swap1\n      div\n      0xffffffffffffffffffffffffffffffffffffffff\n      and\n        /* \"contracts/cryptopunksmarket.sol\":3120:3160  balanceOf[punkIndexToAddress[punkIndex]] */\n      0xffffffffffffffffffffffffffffffffffffffff\n      and\n      0xffffffffffffffffffffffffffffffffffffffff\n      and\n      dup2\n      mstore\n      0x20\n      add\n      swap1\n      dup2\n      mstore\n      0x20\n      add\n      0x0\n      sha3\n      0x0\n        /* \"contracts/cryptopunksmarket.sol\":3120:3162  balanceOf[punkIndexToAddress[punkIndex]]-- */\n      dup2\n      sload\n      dup1\n      swap3\n      swap2\n      swap1\n      0x1\n      swap1\n      sub\n      swap2\n      swap1\n      pop\n      sstore\n      pop\n        /* \"contracts/cryptopunksmarket.sol\":3060:3240  if (punkIndexToAddress[punkIndex] != 0x0) {... */\n      jump(tag_189)\n    tag_188:\n        /* \"contracts/cryptopunksmarket.sol\":3201:3223  punksRemainingToAssign */\n      0x9\n      0x0\n        /* \"contracts/cryptopunksmarket.sol\":3201:3225  punksRemainingToAssign-- */\n      dup2\n      sload\n      dup1\n      swap3\n      swap2\n      swap1\n      0x1\n      swap1\n      sub\n      swap2\n      swap1\n      pop\n      sstore\n      pop\n        /* \"contracts/cryptopunksmarket.sol\":3060:3240  if (punkIndexToAddress[punkIndex] != 0x0) {... */\n    tag_189:\n        /* \"contracts/cryptopunksmarket.sol\":3285:3287  to */\n      dup2\n        /* \"contracts/cryptopunksmarket.sol\":3253:3271  punkIndexToAddress */\n      0xa\n        /* \"contracts/cryptopunksmarket.sol\":3253:3282  punkIndexToAddress[punkIndex] */\n      0x0\n        /* \"contracts/cryptopunksmarket.sol\":3272:3281  punkIndex */\n      dup4\n        /* \"contracts/cryptopunksmarket.sol\":3253:3282  punkIndexToAddress[punkIndex] */\n      dup2\n      mstore\n      0x20\n      add\n      swap1\n      dup2\n      mstore\n      0x20\n      add\n      0x0\n      sha3\n      0x0\n        /* \"contracts/cryptopunksmarket.sol\":3253:3287  punkIndexToAddress[punkIndex] = to */\n      0x100\n      exp\n      dup2\n      sload\n      dup2\n      0xffffffffffffffffffffffffffffffffffffffff\n      mul\n      not\n      and\n      swap1\n      dup4\n      0xffffffffffffffffffffffffffffffffffffffff\n      and\n      mul\n      or\n      swap1\n      sstore\n      pop\n        /* \"contracts/cryptopunksmarket.sol\":3301:3310  balanceOf */\n      0xb\n        /* \"contracts/cryptopunksmarket.sol\":3301:3314  balanceOf[to] */\n      0x0\n        /* \"contracts/cryptopunksmarket.sol\":3311:3313  to */\n      dup4\n        /* \"contracts/cryptopunksmarket.sol\":3301:3314  balanceOf[to] */\n      0xffffffffffffffffffffffffffffffffffffffff\n      and\n      0xffffffffffffffffffffffffffffffffffffffff\n      and\n      dup2\n      mstore\n      0x20\n      add\n      swap1\n      dup2\n      mstore\n      0x20\n      add\n      0x0\n      sha3\n      0x0\n        /* \"contracts/cryptopunksmarket.sol\":3301:3316  balanceOf[to]++ */\n      dup2\n      sload\n      dup1\n      swap3\n      swap2\n      swap1\n      0x1\n      add\n      swap2\n      swap1\n      pop\n      sstore\n      pop\n        /* \"contracts/cryptopunksmarket.sol\":3337:3339  to */\n      dup2\n        /* \"contracts/cryptopunksmarket.sol\":3330:3351  Assign(to, punkIndex) */\n      0xffffffffffffffffffffffffffffffffffffffff\n      and\n      0x8a0e37b73a0d9c82e205d4d1a3ff3d0b57ce5f4d7bccf6bac03336dc101cb7ba\n        /* \"contracts/cryptopunksmarket.sol\":3341:3350  punkIndex */\n      dup3\n        /* \"contracts/cryptopunksmarket.sol\":3330:3351  Assign(to, punkIndex) */\n      mload(0x40)\n      dup1\n      dup3\n      dup2\n      mstore\n      0x20\n      add\n      swap2\n      pop\n      pop\n      mload(0x40)\n      dup1\n      swap2\n      sub\n      swap1\n      log2\n        /* \"contracts/cryptopunksmarket.sol\":3005:3362  if (punkIndexToAddress[punkIndex] != to) {... */\n    tag_187:\n        /* \"contracts/cryptopunksmarket.sol\":2826:3368  function setInitialOwner(address to, uint punkIndex) {... */\n    tag_183:\n      pop\n      pop\n      jump\t// out\n        /* \"contracts/cryptopunksmarket.sol\":5784:6195  function offerPunkForSaleToAddress(uint punkIndex, uint minSalePriceInWei, address toAddress) {... */\n    tag_104:\n        /* \"contracts/cryptopunksmarket.sol\":5893:5909  allPunksAssigned */\n      0x8\n      0x0\n      swap1\n      sload\n      swap1\n      0x100\n      exp\n      swap1\n      div\n      0xff\n      and\n        /* \"contracts/cryptopunksmarket.sol\":5892:5909  !allPunksAssigned */\n      iszero\n        /* \"contracts/cryptopunksmarket.sol\":5888:5916  if (!allPunksAssigned) throw */\n      iszero\n      tag_191\n      jumpi\n        /* \"contracts/cryptopunksmarket.sol\":5911:5916  throw */\n      revert(0x0, 0x0)\n        /* \"contracts/cryptopunksmarket.sol\":5888:5916  if (!allPunksAssigned) throw */\n    tag_191:\n        /* \"contracts/cryptopunksmarket.sol\":5963:5973  msg.sender */\n      caller\n        /* \"contracts/cryptopunksmarket.sol\":5930:5973  punkIndexToAddress[punkIndex] != msg.sender */\n      0xffffffffffffffffffffffffffffffffffffffff\n      and\n        /* \"contracts/cryptopunksmarket.sol\":5930:5948  punkIndexToAddress */\n      0xa\n        /* \"contracts/cryptopunksmarket.sol\":5930:5959  punkIndexToAddress[punkIndex] */\n      0x0\n        /* \"contracts/cryptopunksmarket.sol\":5949:5958  punkIndex */\n      dup6\n        /* \"contracts/cryptopunksmarket.sol\":5930:5959  punkIndexToAddress[punkIndex] */\n      dup2\n      mstore\n      0x20\n      add\n      swap1\n      dup2\n      mstore\n      0x20\n      add\n      0x0\n      sha3\n      0x0\n      swap1\n      sload\n      swap1\n      0x100\n      exp\n      swap1\n      div\n      0xffffffffffffffffffffffffffffffffffffffff\n      and\n        /* \"contracts/cryptopunksmarket.sol\":5930:5973  punkIndexToAddress[punkIndex] != msg.sender */\n      0xffffffffffffffffffffffffffffffffffffffff\n      and\n      eq\n      iszero\n        /* \"contracts/cryptopunksmarket.sol\":5926:5980  if (punkIndexToAddress[punkIndex] != msg.sender) throw */\n      iszero\n      tag_192\n      jumpi\n        /* \"contracts/cryptopunksmarket.sol\":5975:5980  throw */\n      revert(0x0, 0x0)\n        /* \"contracts/cryptopunksmarket.sol\":5926:5980  if (punkIndexToAddress[punkIndex] != msg.sender) throw */\n    tag_192:\n        /* \"contracts/cryptopunksmarket.sol\":6007:6012  10000 */\n      0x2710\n        /* \"contracts/cryptopunksmarket.sol\":5994:6003  punkIndex */\n      dup4\n        /* \"contracts/cryptopunksmarket.sol\":5994:6012  punkIndex >= 10000 */\n      lt\n      iszero\n        /* \"contracts/cryptopunksmarket.sol\":5990:6019  if (punkIndex >= 10000) throw */\n      iszero\n      tag_193\n      jumpi\n        /* \"contracts/cryptopunksmarket.sol\":6014:6019  throw */\n      revert(0x0, 0x0)\n        /* \"contracts/cryptopunksmarket.sol\":5990:6019  if (punkIndex >= 10000) throw */\n    tag_193:\n        /* \"contracts/cryptopunksmarket.sol\":6062:6126  Offer(true, punkIndex, msg.sender, minSalePriceInWei, toAddress) */\n      0xa0\n      mload(0x40)\n      swap1\n      dup2\n      add\n      0x40\n      mstore\n      dup1\n        /* \"contracts/cryptopunksmarket.sol\":6068:6072  true */\n      0x1\n        /* \"contracts/cryptopunksmarket.sol\":6062:6126  Offer(true, punkIndex, msg.sender, minSalePriceInWei, toAddress) */\n      iszero\n      iszero\n      dup2\n      mstore\n      0x20\n      add\n        /* \"contracts/cryptopunksmarket.sol\":6074:6083  punkIndex */\n      dup5\n        /* \"contracts/cryptopunksmarket.sol\":6062:6126  Offer(true, punkIndex, msg.sender, minSalePriceInWei, toAddress) */\n      dup2\n      mstore\n      0x20\n      add\n        /* \"contracts/cryptopunksmarket.sol\":6085:6095  msg.sender */\n      caller\n        /* \"contracts/cryptopunksmarket.sol\":6062:6126  Offer(true, punkIndex, msg.sender, minSalePriceInWei, toAddress) */\n      0xffffffffffffffffffffffffffffffffffffffff\n      and\n      dup2\n      mstore\n      0x20\n      add\n        /* \"contracts/cryptopunksmarket.sol\":6097:6114  minSalePriceInWei */\n      dup4\n        /* \"contracts/cryptopunksmarket.sol\":6062:6126  Offer(true, punkIndex, msg.sender, minSalePriceInWei, toAddress) */\n      dup2\n      mstore\n      0x20\n      add\n        /* \"contracts/cryptopunksmarket.sol\":6116:6125  toAddress */\n      dup3\n        /* \"contracts/cryptopunksmarket.sol\":6062:6126  Offer(true, punkIndex, msg.sender, minSalePriceInWei, toAddress) */\n      0xffffffffffffffffffffffffffffffffffffffff\n      and\n      dup2\n      mstore\n      pop\n        /* \"contracts/cryptopunksmarket.sol\":6029:6048  punksOfferedForSale */\n      0xc\n        /* \"contracts/cryptopunksmarket.sol\":6029:6059  punksOfferedForSale[punkIndex] */\n      0x0\n        /* \"contracts/cryptopunksmarket.sol\":6049:6058  punkIndex */\n      dup6\n        /* \"contracts/cryptopunksmarket.sol\":6029:6059  punksOfferedForSale[punkIndex] */\n      dup2\n      mstore\n      0x20\n      add\n      swap1\n      dup2\n      mstore\n      0x20\n      add\n      0x0\n      sha3\n        /* \"contracts/cryptopunksmarket.sol\":6029:6126  punksOfferedForSale[punkIndex] = Offer(true, punkIndex, msg.sender, minSalePriceInWei, toAddress) */\n      0x0\n      dup3\n      add\n      mload\n      dup2\n      0x0\n      add\n      exp(0x100, 0x0)\n      dup2\n      sload\n      dup2\n      0xff\n      mul\n      not\n      and\n      swap1\n      dup4\n      iszero\n      iszero\n      mul\n      or\n      swap1\n      sstore\n      pop\n      0x20\n      dup3\n      add\n      mload\n      dup2\n      0x1\n      add\n      sstore\n      0x40\n      dup3\n      add\n      mload\n      dup2\n      0x2\n      add\n      exp(0x100, 0x0)\n      dup2\n      sload\n      dup2\n      0xffffffffffffffffffffffffffffffffffffffff\n      mul\n      not\n      and\n      swap1\n      dup4\n      0xffffffffffffffffffffffffffffffffffffffff\n      and\n      mul\n      or\n      swap1\n      sstore\n      pop\n      0x60\n      dup3\n      add\n      mload\n      dup2\n      0x3\n      add\n      sstore\n      0x80\n      dup3\n      add\n      mload\n      dup2\n      0x4\n      add\n      exp(0x100, 0x0)\n      dup2\n      sload\n      dup2\n      0xffffffffffffffffffffffffffffffffffffffff\n      mul\n      not\n      and\n      swap1\n      dup4\n      0xffffffffffffffffffffffffffffffffffffffff\n      and\n      mul\n      or\n      swap1\n      sstore\n      pop\n      swap1\n      pop\n      pop\n        /* \"contracts/cryptopunksmarket.sol\":6178:6187  toAddress */\n      dup1\n        /* \"contracts/cryptopunksmarket.sol\":6136:6188  PunkOffered(punkIndex, minSalePriceInWei, toAddress) */\n      0xffffffffffffffffffffffffffffffffffffffff\n      and\n        /* \"contracts/cryptopunksmarket.sol\":6148:6157  punkIndex */\n      dup4\n        /* \"contracts/cryptopunksmarket.sol\":6136:6188  PunkOffered(punkIndex, minSalePriceInWei, toAddress) */\n      0x3c7b682d5da98001a9b8cbda6c647d2c63d698a4184fd1d55e2ce7b66f5d21eb\n        /* \"contracts/cryptopunksmarket.sol\":6159:6176  minSalePriceInWei */\n      dup5\n        /* \"contracts/cryptopunksmarket.sol\":6136:6188  PunkOffered(punkIndex, minSalePriceInWei, toAddress) */\n      mload(0x40)\n      dup1\n      dup3\n      dup2\n      mstore\n      0x20\n      add\n      swap2\n      pop\n      pop\n      mload(0x40)\n      dup1\n      swap2\n      sub\n      swap1\n      log3\n        /* \"contracts/cryptopunksmarket.sol\":5784:6195  function offerPunkForSaleToAddress(uint punkIndex, uint minSalePriceInWei, address toAddress) {... */\n    tag_190:\n      pop\n      pop\n      pop\n      jump\t// out\n        /* \"contracts/cryptopunksmarket.sol\":563:601  uint public punksRemainingToAssign = 0 */\n    tag_107:\n      sload(0x9)\n      dup2\n      jump\t// out\n        /* \"contracts/cryptopunksmarket.sol\":5407:5778  function offerPunkForSale(uint punkIndex, uint minSalePriceInWei) {... */\n    tag_110:\n        /* \"contracts/cryptopunksmarket.sol\":5488:5504  allPunksAssigned */\n      0x8\n      0x0\n      swap1\n      sload\n      swap1\n      0x100\n      exp\n      swap1\n      div\n      0xff\n      and\n        /* \"contracts/cryptopunksmarket.sol\":5487:5504  !allPunksAssigned */\n      iszero\n        /* \"contracts/cryptopunksmarket.sol\":5483:5511  if (!allPunksAssigned) throw */\n      iszero\n      tag_195\n      jumpi\n        /* \"contracts/cryptopunksmarket.sol\":5506:5511  throw */\n      revert(0x0, 0x0)\n        /* \"contracts/cryptopunksmarket.sol\":5483:5511  if (!allPunksAssigned) throw */\n    tag_195:\n        /* \"contracts/cryptopunksmarket.sol\":5558:5568  msg.sender */\n      caller\n        /* \"contracts/cryptopunksmarket.sol\":5525:5568  punkIndexToAddress[punkIndex] != msg.sender */\n      0xffffffffffffffffffffffffffffffffffffffff\n      and\n        /* \"contracts/cryptopunksmarket.sol\":5525:5543  punkIndexToAddress */\n      0xa\n        /* \"contracts/cryptopunksmarket.sol\":5525:5554  punkIndexToAddress[punkIndex] */\n      0x0\n        /* \"contracts/cryptopunksmarket.sol\":5544:5553  punkIndex */\n      dup5\n        /* \"contracts/cryptopunksmarket.sol\":5525:5554  punkIndexToAddress[punkIndex] */\n      dup2\n      mstore\n      0x20\n      add\n      swap1\n      dup2\n      mstore\n      0x20\n      add\n      0x0\n      sha3\n      0x0\n      swap1\n      sload\n      swap1\n      0x100\n      exp\n      swap1\n      div\n      0xffffffffffffffffffffffffffffffffffffffff\n      and\n        /* \"contracts/cryptopunksmarket.sol\":5525:5568  punkIndexToAddress[punkIndex] != msg.sender */\n      0xffffffffffffffffffffffffffffffffffffffff\n      and\n      eq\n      iszero\n        /* \"contracts/cryptopunksmarket.sol\":5521:5575  if (punkIndexToAddress[punkIndex] != msg.sender) throw */\n      iszero\n      tag_196\n      jumpi\n        /* \"contracts/cryptopunksmarket.sol\":5570:5575  throw */\n      revert(0x0, 0x0)\n        /* \"contracts/cryptopunksmarket.sol\":5521:5575  if (punkIndexToAddress[punkIndex] != msg.sender) throw */\n    tag_196:\n        /* \"contracts/cryptopunksmarket.sol\":5602:5607  10000 */\n      0x2710\n        /* \"contracts/cryptopunksmarket.sol\":5589:5598  punkIndex */\n      dup3\n        /* \"contracts/cryptopunksmarket.sol\":5589:5607  punkIndex >= 10000 */\n      lt\n      iszero\n        /* \"contracts/cryptopunksmarket.sol\":5585:5614  if (punkIndex >= 10000) throw */\n      iszero\n      tag_197\n      jumpi\n        /* \"contracts/cryptopunksmarket.sol\":5609:5614  throw */\n      revert(0x0, 0x0)\n        /* \"contracts/cryptopunksmarket.sol\":5585:5614  if (punkIndex >= 10000) throw */\n    tag_197:\n        /* \"contracts/cryptopunksmarket.sol\":5657:5715  Offer(true, punkIndex, msg.sender, minSalePriceInWei, 0x0) */\n      0xa0\n      mload(0x40)\n      swap1\n      dup2\n      add\n      0x40\n      mstore\n      dup1\n        /* \"contracts/cryptopunksmarket.sol\":5663:5667  true */\n      0x1\n        /* \"contracts/cryptopunksmarket.sol\":5657:5715  Offer(true, punkIndex, msg.sender, minSalePriceInWei, 0x0) */\n      iszero\n      iszero\n      dup2\n      mstore\n      0x20\n      add\n        /* \"contracts/cryptopunksmarket.sol\":5669:5678  punkIndex */\n      dup4\n        /* \"contracts/cryptopunksmarket.sol\":5657:5715  Offer(true, punkIndex, msg.sender, minSalePriceInWei, 0x0) */\n      dup2\n      mstore\n      0x20\n      add\n        /* \"contracts/cryptopunksmarket.sol\":5680:5690  msg.sender */\n      caller\n        /* \"contracts/cryptopunksmarket.sol\":5657:5715  Offer(true, punkIndex, msg.sender, minSalePriceInWei, 0x0) */\n      0xffffffffffffffffffffffffffffffffffffffff\n      and\n      dup2\n      mstore\n      0x20\n      add\n        /* \"contracts/cryptopunksmarket.sol\":5692:5709  minSalePriceInWei */\n      dup3\n        /* \"contracts/cryptopunksmarket.sol\":5657:5715  Offer(true, punkIndex, msg.sender, minSalePriceInWei, 0x0) */\n      dup2\n      mstore\n      0x20\n      add\n        /* \"contracts/cryptopunksmarket.sol\":5711:5714  0x0 */\n      0x0\n        /* \"contracts/cryptopunksmarket.sol\":5657:5715  Offer(true, punkIndex, msg.sender, minSalePriceInWei, 0x0) */\n      0xffffffffffffffffffffffffffffffffffffffff\n      and\n      dup2\n      mstore\n      pop\n        /* \"contracts/cryptopunksmarket.sol\":5624:5643  punksOfferedForSale */\n      0xc\n        /* \"contracts/cryptopunksmarket.sol\":5624:5654  punksOfferedForSale[punkIndex] */\n      0x0\n        /* \"contracts/cryptopunksmarket.sol\":5644:5653  punkIndex */\n      dup5\n        /* \"contracts/cryptopunksmarket.sol\":5624:5654  punksOfferedForSale[punkIndex] */\n      dup2\n      mstore\n      0x20\n      add\n      swap1\n      dup2\n      mstore\n      0x20\n      add\n      0x0\n      sha3\n        /* \"contracts/cryptopunksmarket.sol\":5624:5715  punksOfferedForSale[punkIndex] = Offer(true, punkIndex, msg.sender, minSalePriceInWei, 0x0) */\n      0x0\n      dup3\n      add\n      mload\n      dup2\n      0x0\n      add\n      exp(0x100, 0x0)\n      dup2\n      sload\n      dup2\n      0xff\n      mul\n      not\n      and\n      swap1\n      dup4\n      iszero\n      iszero\n      mul\n      or\n      swap1\n      sstore\n      pop\n      0x20\n      dup3\n      add\n      mload\n      dup2\n      0x1\n      add\n      sstore\n      0x40\n      dup3\n      add\n      mload\n      dup2\n      0x2\n      add\n      exp(0x100, 0x0)\n      dup2\n      sload\n      dup2\n      0xffffffffffffffffffffffffffffffffffffffff\n      mul\n      not\n      and\n      swap1\n      dup4\n      0xffffffffffffffffffffffffffffffffffffffff\n      and\n      mul\n      or\n      swap1\n      sstore\n      pop\n      0x60\n      dup3\n      add\n      mload\n      dup2\n      0x3\n      add\n      sstore\n      0x80\n      dup3\n      add\n      mload\n      dup2\n      0x4\n      add\n      exp(0x100, 0x0)\n      dup2\n      sload\n      dup2\n      0xffffffffffffffffffffffffffffffffffffffff\n      mul\n      not\n      and\n      swap1\n      dup4\n      0xffffffffffffffffffffffffffffffffffffffff\n      and\n      mul\n      or\n      swap1\n      sstore\n      pop\n      swap1\n      pop\n      pop\n        /* \"contracts/cryptopunksmarket.sol\":5767:5770  0x0 */\n      0x0\n        /* \"contracts/cryptopunksmarket.sol\":5737:5746  punkIndex */\n      dup3\n        /* \"contracts/cryptopunksmarket.sol\":5725:5771  PunkOffered(punkIndex, minSalePriceInWei, 0x0) */\n      0x3c7b682d5da98001a9b8cbda6c647d2c63d698a4184fd1d55e2ce7b66f5d21eb\n        /* \"contracts/cryptopunksmarket.sol\":5748:5765  minSalePriceInWei */\n      dup4\n        /* \"contracts/cryptopunksmarket.sol\":5725:5771  PunkOffered(punkIndex, minSalePriceInWei, 0x0) */\n      mload(0x40)\n      dup1\n      dup3\n      dup2\n      mstore\n      0x20\n      add\n      swap2\n      pop\n      pop\n      mload(0x40)\n      dup1\n      swap2\n      sub\n      swap1\n      log3\n        /* \"contracts/cryptopunksmarket.sol\":5407:5778  function offerPunkForSale(uint punkIndex, uint minSalePriceInWei) {... */\n    tag_194:\n      pop\n      pop\n      jump\t// out\n        /* \"contracts/cryptopunksmarket.sol\":3751:4131  function getPunk(uint punkIndex) {... */\n    tag_113:\n        /* \"contracts/cryptopunksmarket.sol\":3799:3815  allPunksAssigned */\n      0x8\n      0x0\n      swap1\n      sload\n      swap1\n      0x100\n      exp\n      swap1\n      div\n      0xff\n      and\n        /* \"contracts/cryptopunksmarket.sol\":3798:3815  !allPunksAssigned */\n      iszero\n        /* \"contracts/cryptopunksmarket.sol\":3794:3822  if (!allPunksAssigned) throw */\n      iszero\n      tag_199\n      jumpi\n        /* \"contracts/cryptopunksmarket.sol\":3817:3822  throw */\n      revert(0x0, 0x0)\n        /* \"contracts/cryptopunksmarket.sol\":3794:3822  if (!allPunksAssigned) throw */\n    tag_199:\n        /* \"contracts/cryptopunksmarket.sol\":3862:3863  0 */\n      0x0\n        /* \"contracts/cryptopunksmarket.sol\":3836:3858  punksRemainingToAssign */\n      sload(0x9)\n        /* \"contracts/cryptopunksmarket.sol\":3836:3863  punksRemainingToAssign == 0 */\n      eq\n        /* \"contracts/cryptopunksmarket.sol\":3832:3870  if (punksRemainingToAssign == 0) throw */\n      iszero\n      tag_200\n      jumpi\n        /* \"contracts/cryptopunksmarket.sol\":3865:3870  throw */\n      revert(0x0, 0x0)\n        /* \"contracts/cryptopunksmarket.sol\":3832:3870  if (punksRemainingToAssign == 0) throw */\n    tag_200:\n        /* \"contracts/cryptopunksmarket.sol\":3917:3920  0x0 */\n      0x0\n        /* \"contracts/cryptopunksmarket.sol\":3884:3902  punkIndexToAddress */\n      0xa\n        /* \"contracts/cryptopunksmarket.sol\":3884:3913  punkIndexToAddress[punkIndex] */\n      0x0\n        /* \"contracts/cryptopunksmarket.sol\":3903:3912  punkIndex */\n      dup4\n        /* \"contracts/cryptopunksmarket.sol\":3884:3913  punkIndexToAddress[punkIndex] */\n      dup2\n      mstore\n      0x20\n      add\n      swap1\n      dup2\n      mstore\n      0x20\n      add\n      0x0\n      sha3\n      0x0\n      swap1\n      sload\n      swap1\n      0x100\n      exp\n      swap1\n      div\n      0xffffffffffffffffffffffffffffffffffffffff\n      and\n        /* \"contracts/cryptopunksmarket.sol\":3884:3920  punkIndexToAddress[punkIndex] != 0x0 */\n      0xffffffffffffffffffffffffffffffffffffffff\n      and\n      eq\n      iszero\n        /* \"contracts/cryptopunksmarket.sol\":3880:3927  if (punkIndexToAddress[punkIndex] != 0x0) throw */\n      iszero\n      tag_201\n      jumpi\n        /* \"contracts/cryptopunksmarket.sol\":3922:3927  throw */\n      revert(0x0, 0x0)\n        /* \"contracts/cryptopunksmarket.sol\":3880:3927  if (punkIndexToAddress[punkIndex] != 0x0) throw */\n    tag_201:\n        /* \"contracts/cryptopunksmarket.sol\":3954:3959  10000 */\n      0x2710\n        /* \"contracts/cryptopunksmarket.sol\":3941:3950  punkIndex */\n      dup2\n        /* \"contracts/cryptopunksmarket.sol\":3941:3959  punkIndex >= 10000 */\n      lt\n      iszero\n        /* \"contracts/cryptopunksmarket.sol\":3937:3966  if (punkIndex >= 10000) throw */\n      iszero\n      tag_202\n      jumpi\n        /* \"contracts/cryptopunksmarket.sol\":3961:3966  throw */\n      revert(0x0, 0x0)\n        /* \"contracts/cryptopunksmarket.sol\":3937:3966  if (punkIndex >= 10000) throw */\n    tag_202:\n        /* \"contracts/cryptopunksmarket.sol\":4008:4018  msg.sender */\n      caller\n        /* \"contracts/cryptopunksmarket.sol\":3976:3994  punkIndexToAddress */\n      0xa\n        /* \"contracts/cryptopunksmarket.sol\":3976:4005  punkIndexToAddress[punkIndex] */\n      0x0\n        /* \"contracts/cryptopunksmarket.sol\":3995:4004  punkIndex */\n      dup4\n        /* \"contracts/cryptopunksmarket.sol\":3976:4005  punkIndexToAddress[punkIndex] */\n      dup2\n      mstore\n      0x20\n      add\n      swap1\n      dup2\n      mstore\n      0x20\n      add\n      0x0\n      sha3\n      0x0\n        /* \"contracts/cryptopunksmarket.sol\":3976:4018  punkIndexToAddress[punkIndex] = msg.sender */\n      0x100\n      exp\n      dup2\n      sload\n      dup2\n      0xffffffffffffffffffffffffffffffffffffffff\n      mul\n      not\n      and\n      swap1\n      dup4\n      0xffffffffffffffffffffffffffffffffffffffff\n      and\n      mul\n      or\n      swap1\n      sstore\n      pop\n        /* \"contracts/cryptopunksmarket.sol\":4028:4037  balanceOf */\n      0xb\n        /* \"contracts/cryptopunksmarket.sol\":4028:4049  balanceOf[msg.sender] */\n      0x0\n        /* \"contracts/cryptopunksmarket.sol\":4038:4048  msg.sender */\n      caller\n        /* \"contracts/cryptopunksmarket.sol\":4028:4049  balanceOf[msg.sender] */\n      0xffffffffffffffffffffffffffffffffffffffff\n      and\n      0xffffffffffffffffffffffffffffffffffffffff\n      and\n      dup2\n      mstore\n      0x20\n      add\n      swap1\n      dup2\n      mstore\n      0x20\n      add\n      0x0\n      sha3\n      0x0\n        /* \"contracts/cryptopunksmarket.sol\":4028:4051  balanceOf[msg.sender]++ */\n      dup2\n      sload\n      dup1\n      swap3\n      swap2\n      swap1\n      0x1\n      add\n      swap2\n      swap1\n      pop\n      sstore\n      pop\n        /* \"contracts/cryptopunksmarket.sol\":4061:4083  punksRemainingToAssign */\n      0x9\n      0x0\n        /* \"contracts/cryptopunksmarket.sol\":4061:4085  punksRemainingToAssign-- */\n      dup2\n      sload\n      dup1\n      swap3\n      swap2\n      swap1\n      0x1\n      swap1\n      sub\n      swap2\n      swap1\n      pop\n      sstore\n      pop\n        /* \"contracts/cryptopunksmarket.sol\":4102:4112  msg.sender */\n      caller\n        /* \"contracts/cryptopunksmarket.sol\":4095:4124  Assign(msg.sender, punkIndex) */\n      0xffffffffffffffffffffffffffffffffffffffff\n      and\n      0x8a0e37b73a0d9c82e205d4d1a3ff3d0b57ce5f4d7bccf6bac03336dc101cb7ba\n        /* \"contracts/cryptopunksmarket.sol\":4114:4123  punkIndex */\n      dup3\n        /* \"contracts/cryptopunksmarket.sol\":4095:4124  Assign(msg.sender, punkIndex) */\n      mload(0x40)\n      dup1\n      dup3\n      dup2\n      mstore\n      0x20\n      add\n      swap2\n      pop\n      pop\n      mload(0x40)\n      dup1\n      swap2\n      sub\n      swap1\n      log2\n        /* \"contracts/cryptopunksmarket.sol\":3751:4131  function getPunk(uint punkIndex) {... */\n    tag_198:\n      pop\n      jump\t// out\n        /* \"contracts/cryptopunksmarket.sol\":1413:1464  mapping (address => uint) public pendingWithdrawals */\n    tag_116:\n      mstore(0x20, 0xe)\n      dup1\n      0x0\n      mstore\n      sha3(0x0, 0x40)\n      0x0\n      swap2\n      pop\n      swap1\n      pop\n      sload\n      dup2\n      jump\t// out\n        /* \"contracts/cryptopunksmarket.sol\":5082:5401  function punkNoLongerForSale(uint punkIndex) {... */\n    tag_119:\n        /* \"contracts/cryptopunksmarket.sol\":5142:5158  allPunksAssigned */\n      0x8\n      0x0\n      swap1\n      sload\n      swap1\n      0x100\n      exp\n      swap1\n      div\n      0xff\n      and\n        /* \"contracts/cryptopunksmarket.sol\":5141:5158  !allPunksAssigned */\n      iszero\n        /* \"contracts/cryptopunksmarket.sol\":5137:5165  if (!allPunksAssigned) throw */\n      iszero\n      tag_204\n      jumpi\n        /* \"contracts/cryptopunksmarket.sol\":5160:5165  throw */\n      revert(0x0, 0x0)\n        /* \"contracts/cryptopunksmarket.sol\":5137:5165  if (!allPunksAssigned) throw */\n    tag_204:\n        /* \"contracts/cryptopunksmarket.sol\":5212:5222  msg.sender */\n      caller\n        /* \"contracts/cryptopunksmarket.sol\":5179:5222  punkIndexToAddress[punkIndex] != msg.sender */\n      0xffffffffffffffffffffffffffffffffffffffff\n      and\n        /* \"contracts/cryptopunksmarket.sol\":5179:5197  punkIndexToAddress */\n      0xa\n        /* \"contracts/cryptopunksmarket.sol\":5179:5208  punkIndexToAddress[punkIndex] */\n      0x0\n        /* \"contracts/cryptopunksmarket.sol\":5198:5207  punkIndex */\n      dup4\n        /* \"contracts/cryptopunksmarket.sol\":5179:5208  punkIndexToAddress[punkIndex] */\n      dup2\n      mstore\n      0x20\n      add\n      swap1\n      dup2\n      mstore\n      0x20\n      add\n      0x0\n      sha3\n      0x0\n      swap1\n      sload\n      swap1\n      0x100\n      exp\n      swap1\n      div\n      0xffffffffffffffffffffffffffffffffffffffff\n      and\n        /* \"contracts/cryptopunksmarket.sol\":5179:5222  punkIndexToAddress[punkIndex] != msg.sender */\n      0xffffffffffffffffffffffffffffffffffffffff\n      and\n      eq\n      iszero\n        /* \"contracts/cryptopunksmarket.sol\":5175:5229  if (punkIndexToAddress[punkIndex] != msg.sender) throw */\n      iszero\n      tag_205\n      jumpi\n        /* \"contracts/cryptopunksmarket.sol\":5224:5229  throw */\n      revert(0x0, 0x0)\n        /* \"contracts/cryptopunksmarket.sol\":5175:5229  if (punkIndexToAddress[punkIndex] != msg.sender) throw */\n    tag_205:\n        /* \"contracts/cryptopunksmarket.sol\":5256:5261  10000 */\n      0x2710\n        /* \"contracts/cryptopunksmarket.sol\":5243:5252  punkIndex */\n      dup2\n        /* \"contracts/cryptopunksmarket.sol\":5243:5261  punkIndex >= 10000 */\n      lt\n      iszero\n        /* \"contracts/cryptopunksmarket.sol\":5239:5268  if (punkIndex >= 10000) throw */\n      iszero\n      tag_206\n      jumpi\n        /* \"contracts/cryptopunksmarket.sol\":5263:5268  throw */\n      revert(0x0, 0x0)\n        /* \"contracts/cryptopunksmarket.sol\":5239:5268  if (punkIndex >= 10000) throw */\n    tag_206:\n        /* \"contracts/cryptopunksmarket.sol\":5311:5354  Offer(false, punkIndex, msg.sender, 0, 0x0) */\n      0xa0\n      mload(0x40)\n      swap1\n      dup2\n      add\n      0x40\n      mstore\n      dup1\n        /* \"contracts/cryptopunksmarket.sol\":5317:5322  false */\n      0x0\n        /* \"contracts/cryptopunksmarket.sol\":5311:5354  Offer(false, punkIndex, msg.sender, 0, 0x0) */\n      iszero\n      iszero\n      dup2\n      mstore\n      0x20\n      add\n        /* \"contracts/cryptopunksmarket.sol\":5324:5333  punkIndex */\n      dup3\n        /* \"contracts/cryptopunksmarket.sol\":5311:5354  Offer(false, punkIndex, msg.sender, 0, 0x0) */\n      dup2\n      mstore\n      0x20\n      add\n        /* \"contracts/cryptopunksmarket.sol\":5335:5345  msg.sender */\n      caller\n        /* \"contracts/cryptopunksmarket.sol\":5311:5354  Offer(false, punkIndex, msg.sender, 0, 0x0) */\n      0xffffffffffffffffffffffffffffffffffffffff\n      and\n      dup2\n      mstore\n      0x20\n      add\n        /* \"contracts/cryptopunksmarket.sol\":5347:5348  0 */\n      0x0\n        /* \"contracts/cryptopunksmarket.sol\":5311:5354  Offer(false, punkIndex, msg.sender, 0, 0x0) */\n      dup2\n      mstore\n      0x20\n      add\n        /* \"contracts/cryptopunksmarket.sol\":5350:5353  0x0 */\n      0x0\n        /* \"contracts/cryptopunksmarket.sol\":5311:5354  Offer(false, punkIndex, msg.sender, 0, 0x0) */\n      0xffffffffffffffffffffffffffffffffffffffff\n      and\n      dup2\n      mstore\n      pop\n        /* \"contracts/cryptopunksmarket.sol\":5278:5297  punksOfferedForSale */\n      0xc\n        /* \"contracts/cryptopunksmarket.sol\":5278:5308  punksOfferedForSale[punkIndex] */\n      0x0\n        /* \"contracts/cryptopunksmarket.sol\":5298:5307  punkIndex */\n      dup4\n        /* \"contracts/cryptopunksmarket.sol\":5278:5308  punksOfferedForSale[punkIndex] */\n      dup2\n      mstore\n      0x20\n      add\n      swap1\n      dup2\n      mstore\n      0x20\n      add\n      0x0\n      sha3\n        /* \"contracts/cryptopunksmarket.sol\":5278:5354  punksOfferedForSale[punkIndex] = Offer(false, punkIndex, msg.sender, 0, 0x0) */\n      0x0\n      dup3\n      add\n      mload\n      dup2\n      0x0\n      add\n      exp(0x100, 0x0)\n      dup2\n      sload\n      dup2\n      0xff\n      mul\n      not\n      and\n      swap1\n      dup4\n      iszero\n      iszero\n      mul\n      or\n      swap1\n      sstore\n      pop\n      0x20\n      dup3\n      add\n      mload\n      dup2\n      0x1\n      add\n      sstore\n      0x40\n      dup3\n      add\n      mload\n      dup2\n      0x2\n      add\n      exp(0x100, 0x0)\n      dup2\n      sload\n      dup2\n      0xffffffffffffffffffffffffffffffffffffffff\n      mul\n      not\n      and\n      swap1\n      dup4\n      0xffffffffffffffffffffffffffffffffffffffff\n      and\n      mul\n      or\n      swap1\n      sstore\n      pop\n      0x60\n      dup3\n      add\n      mload\n      dup2\n      0x3\n      add\n      sstore\n      0x80\n      dup3\n      add\n      mload\n      dup2\n      0x4\n      add\n      exp(0x100, 0x0)\n      dup2\n      sload\n      dup2\n      0xffffffffffffffffffffffffffffffffffffffff\n      mul\n      not\n      and\n      swap1\n      dup4\n      0xffffffffffffffffffffffffffffffffffffffff\n      and\n      mul\n      or\n      swap1\n      sstore\n      pop\n      swap1\n      pop\n      pop\n        /* \"contracts/cryptopunksmarket.sol\":5384:5393  punkIndex */\n      dup1\n        /* \"contracts/cryptopunksmarket.sol\":5364:5394  PunkNoLongerForSale(punkIndex) */\n      0xb0e0a660b4e50f26f0b7ce75c24655fc76cc66e3334a54ff410277229fa10bd4\n      mload(0x40)\n      dup1\n      swap1\n      pop\n      mload(0x40)\n      dup1\n      swap2\n      sub\n      swap1\n      log2\n        /* \"contracts/cryptopunksmarket.sol\":5082:5401  function punkNoLongerForSale(uint punkIndex) {... */\n    tag_203:\n      pop\n      jump\t// out\n}\n",
        "bytecode": {
          "linkReferences": {},
          "object": "6060604052606060405190810160405280604081526020017f616333396166343739333131396565343662626666333531643863623662356681526020017f3233646136303232323132366164643432363865323631313939613239323162815250600090805190602001906200007892919062000202565b50604060405190810160405280600b81526020017f43727970746f50756e6b7300000000000000000000000000000000000000000081525060029080519060200190620000c792919062000202565b5060006007556000600860006101000a81548160ff02191690831515021790555060006009555b33600160006101000a81548173ffffffffffffffffffffffffffffffffffffffff021916908373ffffffffffffffffffffffffffffffffffffffff160217905550612710600681905550600654600981905550604060405190810160405280600b81526020017f43525950544f50554e4b53000000000000000000000000000000000000000000815250600390805190602001906200018f92919062000202565b50604060405190810160405280600281526020017fcfbe00000000000000000000000000000000000000000000000000000000000081525060049080519060200190620001de92919062000202565b506000600560006101000a81548160ff021916908360ff1602179055505b620002b1565b828054600181600116156101000203166002900490600052602060002090601f016020900481019282601f106200024557805160ff191683800117855562000276565b8280016001018555821562000276579182015b828111156200027557825182559160200191906001019062000258565b5b50905062000285919062000289565b5090565b620002ae91905b80821115620002aa57600081600090555060010162000290565b5090565b90565b612ed580620002c16000396000f3006060604052361561015d576000357c0100000000000000000000000000000000000000000000000000000000900463ffffffff16806306fdde031461015f578063088f11f3146101f8578063091dbfd2146102a457806318160ddd146102bc57806323165b75146102e2578063313ce5671461030b57806339c5dde6146103375780633ccfd60b146103ce57806351605d80146103e057806352f29a2514610479578063581781681461049f5780635a3b7e42146104ff5780636e743fa91461059857806370a08231146106115780637ecedac91461065b5780638126c38a1461066d5780638264fe98146106975780638b72a2ec146106af57806395d89b41146106ee578063979bc63814610787578063a75a9049146107a7578063bf31196f146107e6578063c0d6ce631461082e578063c44193c314610854578063c81d1d5b1461087d578063f3f437031461089d578063f6eeff1e146108e7575bfe5b341561016757fe5b61016f610907565b60405180806020018281038252838181518152602001915080519060200190808383600083146101be575b8051825260208311156101be5760208201915060208101905060208303925061019a565b505050905090810190601f1680156101ea5780820380516001836020036101000a031916815260200191505b509250505060405180910390f35b341561020057fe5b61021660048080359060200190919050506109a5565b60405180861515151581526020018581526020018473ffffffffffffffffffffffffffffffffffffffff1673ffffffffffffffffffffffffffffffffffffffff1681526020018381526020018273ffffffffffffffffffffffffffffffffffffffff1673ffffffffffffffffffffffffffffffffffffffff1681526020019550505050505060405180910390f35b6102ba6004808035906020019091905050610a28565b005b34156102c457fe5b6102cc610cf6565b6040518082815260200191505060405180910390f35b34156102ea57fe5b6103096004808035906020019091908035906020019091905050610cfc565b005b341561031357fe5b61031b6112aa565b604051808260ff1660ff16815260200191505060405180910390f35b341561033f57fe5b6103cc600480803590602001908201803590602001908080602002602001604051908101604052809392919081815260200183836020028082843782019150505050505091908035906020019082018035906020019080806020026020016040519081016040528093929190818152602001838360200280828437820191505050505050919050506112bd565b005b34156103d657fe5b6103de61137c565b005b34156103e857fe5b6103f0611465565b604051808060200182810382528381815181526020019150805190602001908083836000831461043f575b80518252602083111561043f5760208201915060208101905060208303925061041b565b505050905090810190601f16801561046b5780820380516001836020036101000a031916815260200191505b509250505060405180910390f35b341561048157fe5b610489611503565b6040518082815260200191505060405180910390f35b34156104a757fe5b6104bd6004808035906020019091905050611509565b604051808273ffffffffffffffffffffffffffffffffffffffff1673ffffffffffffffffffffffffffffffffffffffff16815260200191505060405180910390f35b341561050757fe5b61050f61153c565b604051808060200182810382528381815181526020019150805190602001908083836000831461055e575b80518252602083111561055e5760208201915060208101905060208303925061053a565b505050905090810190601f16801561058a5780820380516001836020036101000a031916815260200191505b509250505060405180910390f35b34156105a057fe5b6105b660048080359060200190919050506115da565b60405180851515151581526020018481526020018373ffffffffffffffffffffffffffffffffffffffff1673ffffffffffffffffffffffffffffffffffffffff16815260200182815260200194505050505060405180910390f35b341561061957fe5b610645600480803573ffffffffffffffffffffffffffffffffffffffff16906020019091905050611637565b6040518082815260200191505060405180910390f35b341561066357fe5b61066b61164f565b005b341561067557fe5b61067d6116ca565b604051808215151515815260200191505060405180910390f35b6106ad60048080359060200190919050506116dd565b005b34156106b757fe5b6106ec600480803573ffffffffffffffffffffffffffffffffffffffff16906020019091908035906020019091905050611c5b565b005b34156106f657fe5b6106fe61207a565b604051808060200182810382528381815181526020019150805190602001908083836000831461074d575b80518252602083111561074d57602082019150602081019050602083039250610729565b505050905090810190601f1680156107795780820380516001836020036101000a031916815260200191505b509250505060405180910390f35b341561078f57fe5b6107a56004808035906020019091905050612118565b005b34156107af57fe5b6107e4600480803573ffffffffffffffffffffffffffffffffffffffff169060200190919080359060200190919050506123f0565b005b34156107ee57fe5b61082c600480803590602001909190803590602001909190803573ffffffffffffffffffffffffffffffffffffffff169060200190919050506126c5565b005b341561083657fe5b61083e6128e4565b6040518082815260200191505060405180910390f35b341561085c57fe5b61087b60048080359060200190919080359060200190919050506128ea565b005b341561088557fe5b61089b6004808035906020019091905050612af4565b005b34156108a557fe5b6108d1600480803573ffffffffffffffffffffffffffffffffffffffff16906020019091905050612c91565b6040518082815260200191505060405180910390f35b34156108ef57fe5b6109056004808035906020019091905050612ca9565b005b60038054600181600116156101000203166002900480601f01602080910402602001604051908101604052809291908181526020018280546001816001161561010002031660029004801561099d5780601f106109725761010080835404028352916020019161099d565b820191906000526020600020905b81548152906001019060200180831161098057829003601f168201915b505050505081565b600c6020528060005260406000206000915090508060000160009054906101000a900460ff16908060010154908060020160009054906101000a900473ffffffffffffffffffffffffffffffffffffffff16908060030154908060040160009054906101000a900473ffffffffffffffffffffffffffffffffffffffff16905085565b600061271082101515610a3b5760006000fd5b600860009054906101000a900460ff161515610a575760006000fd5b6000600a600084815260200190815260200160002060009054906101000a900473ffffffffffffffffffffffffffffffffffffffff1673ffffffffffffffffffffffffffffffffffffffff161415610aaf5760006000fd5b3373ffffffffffffffffffffffffffffffffffffffff16600a600084815260200190815260200160002060009054906101000a900473ffffffffffffffffffffffffffffffffffffffff1673ffffffffffffffffffffffffffffffffffffffff161415610b1c5760006000fd5b6000341415610b2b5760006000fd5b600d60008381526020019081526020016000209050806003015434111515610b535760006000fd5b600081600301541115610bd6578060030154600e60008360020160009054906101000a900473ffffffffffffffffffffffffffffffffffffffff1673ffffffffffffffffffffffffffffffffffffffff1673ffffffffffffffffffffffffffffffffffffffff168152602001908152602001600020600082825401925050819055505b6080604051908101604052806001151581526020018381526020013373ffffffffffffffffffffffffffffffffffffffff16815260200134815250600d600084815260200190815260200160002060008201518160000160006101000a81548160ff0219169083151502179055506020820151816001015560408201518160020160006101000a81548173ffffffffffffffffffffffffffffffffffffffff021916908373ffffffffffffffffffffffffffffffffffffffff160217905550606082015181600301559050503373ffffffffffffffffffffffffffffffffffffffff16827f5b859394fabae0c1ba88baffe67e751ab5248d2e879028b8c8d6897b0519f56a346040518082815260200191505060405180910390a35b5050565b60065481565b60006000600061271085101515610d135760006000fd5b600860009054906101000a900460ff161515610d2f5760006000fd5b3373ffffffffffffffffffffffffffffffffffffffff16600a600087815260200190815260200160002060009054906101000a900473ffffffffffffffffffffffffffffffffffffffff1673ffffffffffffffffffffffffffffffffffffffff16141515610d9d5760006000fd5b339250600d60008681526020019081526020016000209150600082600301541415610dc85760006000fd5b8382600301541015610dda5760006000fd5b8160020160009054906101000a900473ffffffffffffffffffffffffffffffffffffffff16600a600087815260200190815260200160002060006101000a81548173ffffffffffffffffffffffffffffffffffffffff021916908373ffffffffffffffffffffffffffffffffffffffff160217905550600b60008473ffffffffffffffffffffffffffffffffffffffff1673ffffffffffffffffffffffffffffffffffffffff1681526020019081526020016000206000815480929190600190039190505550600b60008360020160009054906101000a900473ffffffffffffffffffffffffffffffffffffffff1673ffffffffffffffffffffffffffffffffffffffff1673ffffffffffffffffffffffffffffffffffffffff168152602001908152602001600020600081548092919060010191905055508160020160009054906101000a900473ffffffffffffffffffffffffffffffffffffffff1673ffffffffffffffffffffffffffffffffffffffff168373ffffffffffffffffffffffffffffffffffffffff167fddf252ad1be2c89b69c2b068fc378daa952ba7f163c4a11628f55a4df523b3ef60016040518082815260200191505060405180910390a360a0604051908101604052806000151581526020018681526020018360020160009054906101000a900473ffffffffffffffffffffffffffffffffffffffff1673ffffffffffffffffffffffffffffffffffffffff16815260200160008152602001600073ffffffffffffffffffffffffffffffffffffffff16815250600c600087815260200190815260200160002060008201518160000160006101000a81548160ff0219169083151502179055506020820151816001015560408201518160020160006101000a81548173ffffffffffffffffffffffffffffffffffffffff021916908373ffffffffffffffffffffffffffffffffffffffff1602179055506060820151816003015560808201518160040160006101000a81548173ffffffffffffffffffffffffffffffffffffffff021916908373ffffffffffffffffffffffffffffffffffffffff16021790555090505081600301549050608060405190810160405280600015158152602001868152602001600073ffffffffffffffffffffffffffffffffffffffff1681526020016000815250600d600087815260200190815260200160002060008201518160000160006101000a81548160ff0219169083151502179055506020820151816001015560408201518160020160006101000a81548173ffffffffffffffffffffffffffffffffffffffff021916908373ffffffffffffffffffffffffffffffffffffffff1602179055506060820151816003015590505080600e60008573ffffffffffffffffffffffffffffffffffffffff1673ffffffffffffffffffffffffffffffffffffffff168152602001908152602001600020600082825401925050819055508160020160009054906101000a900473ffffffffffffffffffffffffffffffffffffffff1673ffffffffffffffffffffffffffffffffffffffff168373ffffffffffffffffffffffffffffffffffffffff16867f58e5d5a525e3b40bc15abaa38b5882678db1ee68befd2f60bafe3a7fd06db9e385600301546040518082815260200191505060405180910390a45b5050505050565b600560009054906101000a900460ff1681565b60006000600160009054906101000a900473ffffffffffffffffffffffffffffffffffffffff1673ffffffffffffffffffffffffffffffffffffffff163373ffffffffffffffffffffffffffffffffffffffff1614151561131e5760006000fd5b83519150600090505b8181101561137557611367848281518110151561134057fe5b90602001906020020151848381518110151561135857fe5b906020019060200201516123f0565b5b8080600101915050611327565b5b50505050565b6000600860009054906101000a900460ff16151561139a5760006000fd5b600e60003373ffffffffffffffffffffffffffffffffffffffff1673ffffffffffffffffffffffffffffffffffffffff1681526020019081526020016000205490506000600e60003373ffffffffffffffffffffffffffffffffffffffff1673ffffffffffffffffffffffffffffffffffffffff168152602001908152602001600020819055503373ffffffffffffffffffffffffffffffffffffffff166108fc829081150290604051809050600060405180830381858888f19350505050151561146157fe5b5b50565b60008054600181600116156101000203166002900480601f0160208091040260200160405190810160405280929190818152602001828054600181600116156101000203166002900480156114fb5780601f106114d0576101008083540402835291602001916114fb565b820191906000526020600020905b8154815290600101906020018083116114de57829003601f168201915b505050505081565b60075481565b600a6020528060005260406000206000915054906101000a900473ffffffffffffffffffffffffffffffffffffffff1681565b60028054600181600116156101000203166002900480601f0160208091040260200160405190810160405280929190818152602001828054600181600116156101000203166002900480156115d25780601f106115a7576101008083540402835291602001916115d2565b820191906000526020600020905b8154815290600101906020018083116115b557829003601f168201915b505050505081565b600d6020528060005260406000206000915090508060000160009054906101000a900460ff16908060010154908060020160009054906101000a900473ffffffffffffffffffffffffffffffffffffffff16908060030154905084565b600b6020528060005260406000206000915090505481565b600160009054906101000a900473ffffffffffffffffffffffffffffffffffffffff1673ffffffffffffffffffffffffffffffffffffffff163373ffffffffffffffffffffffffffffffffffffffff161415156116ac5760006000fd5b6001600860006101000a81548160ff0219169083151502179055505b565b600860009054906101000a900460ff1681565b600060006000600860009054906101000a900460ff1615156116ff5760006000fd5b600c60008581526020019081526020016000209250612710841015156117255760006000fd5b8260000160009054906101000a900460ff1615156117435760006000fd5b60008360040160009054906101000a900473ffffffffffffffffffffffffffffffffffffffff1673ffffffffffffffffffffffffffffffffffffffff16141580156117de57503373ffffffffffffffffffffffffffffffffffffffff168360040160009054906101000a900473ffffffffffffffffffffffffffffffffffffffff1673ffffffffffffffffffffffffffffffffffffffff1614155b156117e95760006000fd5b82600301543410156117fb5760006000fd5b600a600085815260200190815260200160002060009054906101000a900473ffffffffffffffffffffffffffffffffffffffff1673ffffffffffffffffffffffffffffffffffffffff168360020160009054906101000a900473ffffffffffffffffffffffffffffffffffffffff1673ffffffffffffffffffffffffffffffffffffffff1614151561188d5760006000fd5b8260020160009054906101000a900473ffffffffffffffffffffffffffffffffffffffff16915033600a600086815260200190815260200160002060006101000a81548173ffffffffffffffffffffffffffffffffffffffff021916908373ffffffffffffffffffffffffffffffffffffffff160217905550600b60008373ffffffffffffffffffffffffffffffffffffffff1673ffffffffffffffffffffffffffffffffffffffff1681526020019081526020016000206000815480929190600190039190505550600b60003373ffffffffffffffffffffffffffffffffffffffff1673ffffffffffffffffffffffffffffffffffffffff168152602001908152602001600020600081548092919060010191905055503373ffffffffffffffffffffffffffffffffffffffff168273ffffffffffffffffffffffffffffffffffffffff167fddf252ad1be2c89b69c2b068fc378daa952ba7f163c4a11628f55a4df523b3ef60016040518082815260200191505060405180910390a3611a1484612ca9565b34600e60008473ffffffffffffffffffffffffffffffffffffffff1673ffffffffffffffffffffffffffffffffffffffff168152602001908152602001600020600082825401925050819055503373ffffffffffffffffffffffffffffffffffffffff168273ffffffffffffffffffffffffffffffffffffffff16857f58e5d5a525e3b40bc15abaa38b5882678db1ee68befd2f60bafe3a7fd06db9e3346040518082815260200191505060405180910390a4600d600085815260200190815260200160002090503373ffffffffffffffffffffffffffffffffffffffff168160020160009054906101000a900473ffffffffffffffffffffffffffffffffffffffff1673ffffffffffffffffffffffffffffffffffffffff161415611c54578060030154600e60003373ffffffffffffffffffffffffffffffffffffffff1673ffffffffffffffffffffffffffffffffffffffff16815260200190815260200160002060008282540192505081905550608060405190810160405280600015158152602001858152602001600073ffffffffffffffffffffffffffffffffffffffff1681526020016000815250600d600086815260200190815260200160002060008201518160000160006101000a81548160ff0219169083151502179055506020820151816001015560408201518160020160006101000a81548173ffffffffffffffffffffffffffffffffffffffff021916908373ffffffffffffffffffffffffffffffffffffffff160217905550606082015181600301559050505b5b50505050565b6000600860009054906101000a900460ff161515611c795760006000fd5b3373ffffffffffffffffffffffffffffffffffffffff16600a600084815260200190815260200160002060009054906101000a900473ffffffffffffffffffffffffffffffffffffffff1673ffffffffffffffffffffffffffffffffffffffff16141515611ce75760006000fd5b61271082101515611cf85760006000fd5b600c600083815260200190815260200160002060000160009054906101000a900460ff1615611d2b57611d2a82612ca9565b5b82600a600084815260200190815260200160002060006101000a81548173ffffffffffffffffffffffffffffffffffffffff021916908373ffffffffffffffffffffffffffffffffffffffff160217905550600b60003373ffffffffffffffffffffffffffffffffffffffff1673ffffffffffffffffffffffffffffffffffffffff1681526020019081526020016000206000815480929190600190039190505550600b60008473ffffffffffffffffffffffffffffffffffffffff1673ffffffffffffffffffffffffffffffffffffffff168152602001908152602001600020600081548092919060010191905055508273ffffffffffffffffffffffffffffffffffffffff163373ffffffffffffffffffffffffffffffffffffffff167fddf252ad1be2c89b69c2b068fc378daa952ba7f163c4a11628f55a4df523b3ef60016040518082815260200191505060405180910390a38273ffffffffffffffffffffffffffffffffffffffff163373ffffffffffffffffffffffffffffffffffffffff167f05af636b70da6819000c49f85b21fa82081c632069bb626f30932034099107d8846040518082815260200191505060405180910390a3600d600083815260200190815260200160002090508273ffffffffffffffffffffffffffffffffffffffff168160020160009054906101000a900473ffffffffffffffffffffffffffffffffffffffff1673ffffffffffffffffffffffffffffffffffffffff161415612074578060030154600e60008573ffffffffffffffffffffffffffffffffffffffff1673ffffffffffffffffffffffffffffffffffffffff16815260200190815260200160002060008282540192505081905550608060405190810160405280600015158152602001838152602001600073ffffffffffffffffffffffffffffffffffffffff1681526020016000815250600d600084815260200190815260200160002060008201518160000160006101000a81548160ff0219169083151502179055506020820151816001015560408201518160020160006101000a81548173ffffffffffffffffffffffffffffffffffffffff021916908373ffffffffffffffffffffffffffffffffffffffff160217905550606082015181600301559050505b5b505050565b60048054600181600116156101000203166002900480601f0160208091040260200160405190810160405280929190818152602001828054600181600116156101000203166002900480156121105780601f106120e557610100808354040283529160200191612110565b820191906000526020600020905b8154815290600101906020018083116120f357829003601f168201915b505050505081565b600060006127108310151561212d5760006000fd5b600860009054906101000a900460ff1615156121495760006000fd5b6000600a600085815260200190815260200160002060009054906101000a900473ffffffffffffffffffffffffffffffffffffffff1673ffffffffffffffffffffffffffffffffffffffff1614156121a15760006000fd5b3373ffffffffffffffffffffffffffffffffffffffff16600a600085815260200190815260200160002060009054906101000a900473ffffffffffffffffffffffffffffffffffffffff1673ffffffffffffffffffffffffffffffffffffffff16141561220e5760006000fd5b600d600084815260200190815260200160002091503373ffffffffffffffffffffffffffffffffffffffff168260020160009054906101000a900473ffffffffffffffffffffffffffffffffffffffff1673ffffffffffffffffffffffffffffffffffffffff161415156122825760006000fd5b3373ffffffffffffffffffffffffffffffffffffffff16837f6f30e1ee4d81dcc7a8a478577f65d2ed2edb120565960ac45fe7c50551c8793284600301546040518082815260200191505060405180910390a381600301549050608060405190810160405280600015158152602001848152602001600073ffffffffffffffffffffffffffffffffffffffff1681526020016000815250600d600085815260200190815260200160002060008201518160000160006101000a81548160ff0219169083151502179055506020820151816001015560408201518160020160006101000a81548173ffffffffffffffffffffffffffffffffffffffff021916908373ffffffffffffffffffffffffffffffffffffffff160217905550606082015181600301559050503373ffffffffffffffffffffffffffffffffffffffff166108fc829081150290604051809050600060405180830381858888f1935050505015156123ea57fe5b5b505050565b600160009054906101000a900473ffffffffffffffffffffffffffffffffffffffff1673ffffffffffffffffffffffffffffffffffffffff163373ffffffffffffffffffffffffffffffffffffffff1614151561244d5760006000fd5b600860009054906101000a900460ff16156124685760006000fd5b612710811015156124795760006000fd5b8173ffffffffffffffffffffffffffffffffffffffff16600a600083815260200190815260200160002060009054906101000a900473ffffffffffffffffffffffffffffffffffffffff1673ffffffffffffffffffffffffffffffffffffffff161415156126c0576000600a600083815260200190815260200160002060009054906101000a900473ffffffffffffffffffffffffffffffffffffffff1673ffffffffffffffffffffffffffffffffffffffff161415156125bc57600b6000600a600084815260200190815260200160002060009054906101000a900473ffffffffffffffffffffffffffffffffffffffff1673ffffffffffffffffffffffffffffffffffffffff1673ffffffffffffffffffffffffffffffffffffffff16815260200190815260200160002060008154809291906001900391905055506125d0565b600960008154809291906001900391905055505b81600a600083815260200190815260200160002060006101000a81548173ffffffffffffffffffffffffffffffffffffffff021916908373ffffffffffffffffffffffffffffffffffffffff160217905550600b60008373ffffffffffffffffffffffffffffffffffffffff1673ffffffffffffffffffffffffffffffffffffffff168152602001908152602001600020600081548092919060010191905055508173ffffffffffffffffffffffffffffffffffffffff167f8a0e37b73a0d9c82e205d4d1a3ff3d0b57ce5f4d7bccf6bac03336dc101cb7ba826040518082815260200191505060405180910390a25b5b5050565b600860009054906101000a900460ff1615156126e15760006000fd5b3373ffffffffffffffffffffffffffffffffffffffff16600a600085815260200190815260200160002060009054906101000a900473ffffffffffffffffffffffffffffffffffffffff1673ffffffffffffffffffffffffffffffffffffffff1614151561274f5760006000fd5b612710831015156127605760006000fd5b60a0604051908101604052806001151581526020018481526020013373ffffffffffffffffffffffffffffffffffffffff1681526020018381526020018273ffffffffffffffffffffffffffffffffffffffff16815250600c600085815260200190815260200160002060008201518160000160006101000a81548160ff0219169083151502179055506020820151816001015560408201518160020160006101000a81548173ffffffffffffffffffffffffffffffffffffffff021916908373ffffffffffffffffffffffffffffffffffffffff1602179055506060820151816003015560808201518160040160006101000a81548173ffffffffffffffffffffffffffffffffffffffff021916908373ffffffffffffffffffffffffffffffffffffffff1602179055509050508073ffffffffffffffffffffffffffffffffffffffff16837f3c7b682d5da98001a9b8cbda6c647d2c63d698a4184fd1d55e2ce7b66f5d21eb846040518082815260200191505060405180910390a35b505050565b60095481565b600860009054906101000a900460ff1615156129065760006000fd5b3373ffffffffffffffffffffffffffffffffffffffff16600a600084815260200190815260200160002060009054906101000a900473ffffffffffffffffffffffffffffffffffffffff1673ffffffffffffffffffffffffffffffffffffffff161415156129745760006000fd5b612710821015156129855760006000fd5b60a0604051908101604052806001151581526020018381526020013373ffffffffffffffffffffffffffffffffffffffff168152602001828152602001600073ffffffffffffffffffffffffffffffffffffffff16815250600c600084815260200190815260200160002060008201518160000160006101000a81548160ff0219169083151502179055506020820151816001015560408201518160020160006101000a81548173ffffffffffffffffffffffffffffffffffffffff021916908373ffffffffffffffffffffffffffffffffffffffff1602179055506060820151816003015560808201518160040160006101000a81548173ffffffffffffffffffffffffffffffffffffffff021916908373ffffffffffffffffffffffffffffffffffffffff1602179055509050506000827f3c7b682d5da98001a9b8cbda6c647d2c63d698a4184fd1d55e2ce7b66f5d21eb836040518082815260200191505060405180910390a35b5050565b600860009054906101000a900460ff161515612b105760006000fd5b60006009541415612b215760006000fd5b6000600a600083815260200190815260200160002060009054906101000a900473ffffffffffffffffffffffffffffffffffffffff1673ffffffffffffffffffffffffffffffffffffffff16141515612b7a5760006000fd5b61271081101515612b8b5760006000fd5b33600a600083815260200190815260200160002060006101000a81548173ffffffffffffffffffffffffffffffffffffffff021916908373ffffffffffffffffffffffffffffffffffffffff160217905550600b60003373ffffffffffffffffffffffffffffffffffffffff1673ffffffffffffffffffffffffffffffffffffffff16815260200190815260200160002060008154809291906001019190505550600960008154809291906001900391905055503373ffffffffffffffffffffffffffffffffffffffff167f8a0e37b73a0d9c82e205d4d1a3ff3d0b57ce5f4d7bccf6bac03336dc101cb7ba826040518082815260200191505060405180910390a25b50565b600e6020528060005260406000206000915090505481565b600860009054906101000a900460ff161515612cc55760006000fd5b3373ffffffffffffffffffffffffffffffffffffffff16600a600083815260200190815260200160002060009054906101000a900473ffffffffffffffffffffffffffffffffffffffff1673ffffffffffffffffffffffffffffffffffffffff16141515612d335760006000fd5b61271081101515612d445760006000fd5b60a0604051908101604052806000151581526020018281526020013373ffffffffffffffffffffffffffffffffffffffff16815260200160008152602001600073ffffffffffffffffffffffffffffffffffffffff16815250600c600083815260200190815260200160002060008201518160000160006101000a81548160ff0219169083151502179055506020820151816001015560408201518160020160006101000a81548173ffffffffffffffffffffffffffffffffffffffff021916908373ffffffffffffffffffffffffffffffffffffffff1602179055506060820151816003015560808201518160040160006101000a81548173ffffffffffffffffffffffffffffffffffffffff021916908373ffffffffffffffffffffffffffffffffffffffff160217905550905050807fb0e0a660b4e50f26f0b7ce75c24655fc76cc66e3334a54ff410277229fa10bd460405180905060405180910390a25b505600a165627a7a723058207887bbf9908f4e3abb8960e61ed5b3a2d201d9c26e0f5918a36fe5b37980a6680029",
          "opcodes": "PUSH1 0x60 PUSH1 0x40 MSTORE PUSH1 0x60 PUSH1 0x40 MLOAD SWAP1 DUP2 ADD PUSH1 0x40 MSTORE DUP1 PUSH1 0x40 DUP2 MSTORE PUSH1 0x20 ADD PUSH32 0x6163333961663437393331313965653436626266663335316438636236623566 DUP2 MSTORE PUSH1 0x20 ADD PUSH32 0x3233646136303232323132366164643432363865323631313939613239323162 DUP2 MSTORE POP PUSH1 0x0 SWAP1 DUP1 MLOAD SWAP1 PUSH1 0x20 ADD SWAP1 PUSH3 0x78 SWAP3 SWAP2 SWAP1 PUSH3 0x202 JUMP JUMPDEST POP PUSH1 0x40 PUSH1 0x40 MLOAD SWAP1 DUP2 ADD PUSH1 0x40 MSTORE DUP1 PUSH1 0xB DUP2 MSTORE PUSH1 0x20 ADD PUSH32 0x43727970746F50756E6B73000000000000000000000000000000000000000000 DUP2 MSTORE POP PUSH1 0x2 SWAP1 DUP1 MLOAD SWAP1 PUSH1 0x20 ADD SWAP1 PUSH3 0xC7 SWAP3 SWAP2 SWAP1 PUSH3 0x202 JUMP JUMPDEST POP PUSH1 0x0 PUSH1 0x7 SSTORE PUSH1 0x0 PUSH1 0x8 PUSH1 0x0 PUSH2 0x100 EXP DUP2 SLOAD DUP2 PUSH1 0xFF MUL NOT AND SWAP1 DUP4 ISZERO ISZERO MUL OR SWAP1 SSTORE POP PUSH1 0x0 PUSH1 0x9 SSTORE JUMPDEST CALLER PUSH1 0x1 PUSH1 0x0 PUSH2 0x100 EXP DUP2 SLOAD DUP2 PUSH20 0xFFFFFFFFFFFFFFFFFFFFFFFFFFFFFFFFFFFFFFFF MUL NOT AND SWAP1 DUP4 PUSH20 0xFFFFFFFFFFFFFFFFFFFFFFFFFFFFFFFFFFFFFFFF AND MUL OR SWAP1 SSTORE POP PUSH2 0x2710 PUSH1 0x6 DUP2 SWAP1 SSTORE POP PUSH1 0x6 SLOAD PUSH1 0x9 DUP2 SWAP1 SSTORE POP PUSH1 0x40 PUSH1 0x40 MLOAD SWAP1 DUP2 ADD PUSH1 0x40 MSTORE DUP1 PUSH1 0xB DUP2 MSTORE PUSH1 0x20 ADD PUSH32 0x43525950544F50554E4B53000000000000000000000000000000000000000000 DUP2 MSTORE POP PUSH1 0x3 SWAP1 DUP1 MLOAD SWAP1 PUSH1 0x20 ADD SWAP1 PUSH3 0x18F SWAP3 SWAP2 SWAP1 PUSH3 0x202 JUMP JUMPDEST POP PUSH1 0x40 PUSH1 0x40 MLOAD SWAP1 DUP2 ADD PUSH1 0x40 MSTORE DUP1 PUSH1 0x2 DUP2 MSTORE PUSH1 0x20 ADD PUSH32 0xCFBE000000000000000000000000000000000000000000000000000000000000 DUP2 MSTORE POP PUSH1 0x4 SWAP1 DUP1 MLOAD SWAP1 PUSH1 0x20 ADD SWAP1 PUSH3 0x1DE SWAP3 SWAP2 SWAP1 PUSH3 0x202 JUMP JUMPDEST POP PUSH1 0x0 PUSH1 0x5 PUSH1 0x0 PUSH2 0x100 EXP DUP2 SLOAD DUP2 PUSH1 0xFF MUL NOT AND SWAP1 DUP4 PUSH1 0xFF AND MUL OR SWAP1 SSTORE POP JUMPDEST PUSH3 0x2B1 JUMP JUMPDEST DUP3 DUP1 SLOAD PUSH1 0x1 DUP2 PUSH1 0x1 AND ISZERO PUSH2 0x100 MUL SUB AND PUSH1 0x2 SWAP1 DIV SWAP1 PUSH1 0x0 MSTORE PUSH1 0x20 PUSH1 0x0 SHA3 SWAP1 PUSH1 0x1F ADD PUSH1 0x20 SWAP1 DIV DUP2 ADD SWAP3 DUP3 PUSH1 0x1F LT PUSH3 0x245 JUMPI DUP1 MLOAD PUSH1 0xFF NOT AND DUP4 DUP1 ADD OR DUP6 SSTORE PUSH3 0x276 JUMP JUMPDEST DUP3 DUP1 ADD PUSH1 0x1 ADD DUP6 SSTORE DUP3 ISZERO PUSH3 0x276 JUMPI SWAP2 DUP3 ADD JUMPDEST DUP3 DUP2 GT ISZERO PUSH3 0x275 JUMPI DUP3 MLOAD DUP3 SSTORE SWAP2 PUSH1 0x20 ADD SWAP2 SWAP1 PUSH1 0x1 ADD SWAP1 PUSH3 0x258 JUMP JUMPDEST JUMPDEST POP SWAP1 POP PUSH3 0x285 SWAP2 SWAP1 PUSH3 0x289 JUMP JUMPDEST POP SWAP1 JUMP JUMPDEST PUSH3 0x2AE SWAP2 SWAP1 JUMPDEST DUP1 DUP3 GT ISZERO PUSH3 0x2AA JUMPI PUSH1 0x0 DUP2 PUSH1 0x0 SWAP1 SSTORE POP PUSH1 0x1 ADD PUSH3 0x290 JUMP JUMPDEST POP SWAP1 JUMP JUMPDEST SWAP1 JUMP JUMPDEST PUSH2 0x2ED5 DUP1 PUSH3 0x2C1 PUSH1 0x0 CODECOPY PUSH1 0x0 RETURN STOP PUSH1 0x60 PUSH1 0x40 MSTORE CALLDATASIZE ISZERO PUSH2 0x15D JUMPI PUSH1 0x0 CALLDATALOAD PUSH29 0x100000000000000000000000000000000000000000000000000000000 SWAP1 DIV PUSH4 0xFFFFFFFF AND DUP1 PUSH4 0x6FDDE03 EQ PUSH2 0x15F JUMPI DUP1 PUSH4 0x88F11F3 EQ PUSH2 0x1F8 JUMPI DUP1 PUSH4 0x91DBFD2 EQ PUSH2 0x2A4 JUMPI DUP1 PUSH4 0x18160DDD EQ PUSH2 0x2BC JUMPI DUP1 PUSH4 0x23165B75 EQ PUSH2 0x2E2 JUMPI DUP1 PUSH4 0x313CE567 EQ PUSH2 0x30B JUMPI DUP1 PUSH4 0x39C5DDE6 EQ PUSH2 0x337 JUMPI DUP1 PUSH4 0x3CCFD60B EQ PUSH2 0x3CE JUMPI DUP1 PUSH4 0x51605D80 EQ PUSH2 0x3E0 JUMPI DUP1 PUSH4 0x52F29A25 EQ PUSH2 0x479 JUMPI DUP1 PUSH4 0x58178168 EQ PUSH2 0x49F JUMPI DUP1 PUSH4 0x5A3B7E42 EQ PUSH2 0x4FF JUMPI DUP1 PUSH4 0x6E743FA9 EQ PUSH2 0x598 JUMPI DUP1 PUSH4 0x70A08231 EQ PUSH2 0x611 JUMPI DUP1 PUSH4 0x7ECEDAC9 EQ PUSH2 0x65B JUMPI DUP1 PUSH4 0x8126C38A EQ PUSH2 0x66D JUMPI DUP1 PUSH4 0x8264FE98 EQ PUSH2 0x697 JUMPI DUP1 PUSH4 0x8B72A2EC EQ PUSH2 0x6AF JUMPI DUP1 PUSH4 0x95D89B41 EQ PUSH2 0x6EE JUMPI DUP1 PUSH4 0x979BC638 EQ PUSH2 0x787 JUMPI DUP1 PUSH4 0xA75A9049 EQ PUSH2 0x7A7 JUMPI DUP1 PUSH4 0xBF31196F EQ PUSH2 0x7E6 JUMPI DUP1 PUSH4 0xC0D6CE63 EQ PUSH2 0x82E JUMPI DUP1 PUSH4 0xC44193C3 EQ PUSH2 0x854 JUMPI DUP1 PUSH4 0xC81D1D5B EQ PUSH2 0x87D JUMPI DUP1 PUSH4 0xF3F43703 EQ PUSH2 0x89D JUMPI DUP1 PUSH4 0xF6EEFF1E EQ PUSH2 0x8E7 JUMPI JUMPDEST INVALID JUMPDEST CALLVALUE ISZERO PUSH2 0x167 JUMPI INVALID JUMPDEST PUSH2 0x16F PUSH2 0x907 JUMP JUMPDEST PUSH1 0x40 MLOAD DUP1 DUP1 PUSH1 0x20 ADD DUP3 DUP2 SUB DUP3 MSTORE DUP4 DUP2 DUP2 MLOAD DUP2 MSTORE PUSH1 0x20 ADD SWAP2 POP DUP1 MLOAD SWAP1 PUSH1 0x20 ADD SWAP1 DUP1 DUP4 DUP4 PUSH1 0x0 DUP4 EQ PUSH2 0x1BE JUMPI JUMPDEST DUP1 MLOAD DUP3 MSTORE PUSH1 0x20 DUP4 GT ISZERO PUSH2 0x1BE JUMPI PUSH1 0x20 DUP3 ADD SWAP2 POP PUSH1 0x20 DUP2 ADD SWAP1 POP PUSH1 0x20 DUP4 SUB SWAP3 POP PUSH2 0x19A JUMP JUMPDEST POP POP POP SWAP1 POP SWAP1 DUP2 ADD SWAP1 PUSH1 0x1F AND DUP1 ISZERO PUSH2 0x1EA JUMPI DUP1 DUP3 SUB DUP1 MLOAD PUSH1 0x1 DUP4 PUSH1 0x20 SUB PUSH2 0x100 EXP SUB NOT AND DUP2 MSTORE PUSH1 0x20 ADD SWAP2 POP JUMPDEST POP SWAP3 POP POP POP PUSH1 0x40 MLOAD DUP1 SWAP2 SUB SWAP1 RETURN JUMPDEST CALLVALUE ISZERO PUSH2 0x200 JUMPI INVALID JUMPDEST PUSH2 0x216 PUSH1 0x4 DUP1 DUP1 CALLDATALOAD SWAP1 PUSH1 0x20 ADD SWAP1 SWAP2 SWAP1 POP POP PUSH2 0x9A5 JUMP JUMPDEST PUSH1 0x40 MLOAD DUP1 DUP7 ISZERO ISZERO ISZERO ISZERO DUP2 MSTORE PUSH1 0x20 ADD DUP6 DUP2 MSTORE PUSH1 0x20 ADD DUP5 PUSH20 0xFFFFFFFFFFFFFFFFFFFFFFFFFFFFFFFFFFFFFFFF AND PUSH20 0xFFFFFFFFFFFFFFFFFFFFFFFFFFFFFFFFFFFFFFFF AND DUP2 MSTORE PUSH1 0x20 ADD DUP4 DUP2 MSTORE PUSH1 0x20 ADD DUP3 PUSH20 0xFFFFFFFFFFFFFFFFFFFFFFFFFFFFFFFFFFFFFFFF AND PUSH20 0xFFFFFFFFFFFFFFFFFFFFFFFFFFFFFFFFFFFFFFFF AND DUP2 MSTORE PUSH1 0x20 ADD SWAP6 POP POP POP POP POP POP PUSH1 0x40 MLOAD DUP1 SWAP2 SUB SWAP1 RETURN JUMPDEST PUSH2 0x2BA PUSH1 0x4 DUP1 DUP1 CALLDATALOAD SWAP1 PUSH1 0x20 ADD SWAP1 SWAP2 SWAP1 POP POP PUSH2 0xA28 JUMP JUMPDEST STOP JUMPDEST CALLVALUE ISZERO PUSH2 0x2C4 JUMPI INVALID JUMPDEST PUSH2 0x2CC PUSH2 0xCF6 JUMP JUMPDEST PUSH1 0x40 MLOAD DUP1 DUP3 DUP2 MSTORE PUSH1 0x20 ADD SWAP2 POP POP PUSH1 0x40 MLOAD DUP1 SWAP2 SUB SWAP1 RETURN JUMPDEST CALLVALUE ISZERO PUSH2 0x2EA JUMPI INVALID JUMPDEST PUSH2 0x309 PUSH1 0x4 DUP1 DUP1 CALLDATALOAD SWAP1 PUSH1 0x20 ADD SWAP1 SWAP2 SWAP1 DUP1 CALLDATALOAD SWAP1 PUSH1 0x20 ADD SWAP1 SWAP2 SWAP1 POP POP PUSH2 0xCFC JUMP JUMPDEST STOP JUMPDEST CALLVALUE ISZERO PUSH2 0x313 JUMPI INVALID JUMPDEST PUSH2 0x31B PUSH2 0x12AA JUMP JUMPDEST PUSH1 0x40 MLOAD DUP1 DUP3 PUSH1 0xFF AND PUSH1 0xFF AND DUP2 MSTORE PUSH1 0x20 ADD SWAP2 POP POP PUSH1 0x40 MLOAD DUP1 SWAP2 SUB SWAP1 RETURN JUMPDEST CALLVALUE ISZERO PUSH2 0x33F JUMPI INVALID JUMPDEST PUSH2 0x3CC PUSH1 0x4 DUP1 DUP1 CALLDATALOAD SWAP1 PUSH1 0x20 ADD SWAP1 DUP3 ADD DUP1 CALLDATALOAD SWAP1 PUSH1 0x20 ADD SWAP1 DUP1 DUP1 PUSH1 0x20 MUL PUSH1 0x20 ADD PUSH1 0x40 MLOAD SWAP1 DUP2 ADD PUSH1 0x40 MSTORE DUP1 SWAP4 SWAP3 SWAP2 SWAP1 DUP2 DUP2 MSTORE PUSH1 0x20 ADD DUP4 DUP4 PUSH1 0x20 MUL DUP1 DUP3 DUP5 CALLDATACOPY DUP3 ADD SWAP2 POP POP POP POP POP POP SWAP2 SWAP1 DUP1 CALLDATALOAD SWAP1 PUSH1 0x20 ADD SWAP1 DUP3 ADD DUP1 CALLDATALOAD SWAP1 PUSH1 0x20 ADD SWAP1 DUP1 DUP1 PUSH1 0x20 MUL PUSH1 0x20 ADD PUSH1 0x40 MLOAD SWAP1 DUP2 ADD PUSH1 0x40 MSTORE DUP1 SWAP4 SWAP3 SWAP2 SWAP1 DUP2 DUP2 MSTORE PUSH1 0x20 ADD DUP4 DUP4 PUSH1 0x20 MUL DUP1 DUP3 DUP5 CALLDATACOPY DUP3 ADD SWAP2 POP POP POP POP POP POP SWAP2 SWAP1 POP POP PUSH2 0x12BD JUMP JUMPDEST STOP JUMPDEST CALLVALUE ISZERO PUSH2 0x3D6 JUMPI INVALID JUMPDEST PUSH2 0x3DE PUSH2 0x137C JUMP JUMPDEST STOP JUMPDEST CALLVALUE ISZERO PUSH2 0x3E8 JUMPI INVALID JUMPDEST PUSH2 0x3F0 PUSH2 0x1465 JUMP JUMPDEST PUSH1 0x40 MLOAD DUP1 DUP1 PUSH1 0x20 ADD DUP3 DUP2 SUB DUP3 MSTORE DUP4 DUP2 DUP2 MLOAD DUP2 MSTORE PUSH1 0x20 ADD SWAP2 POP DUP1 MLOAD SWAP1 PUSH1 0x20 ADD SWAP1 DUP1 DUP4 DUP4 PUSH1 0x0 DUP4 EQ PUSH2 0x43F JUMPI JUMPDEST DUP1 MLOAD DUP3 MSTORE PUSH1 0x20 DUP4 GT ISZERO PUSH2 0x43F JUMPI PUSH1 0x20 DUP3 ADD SWAP2 POP PUSH1 0x20 DUP2 ADD SWAP1 POP PUSH1 0x20 DUP4 SUB SWAP3 POP PUSH2 0x41B JUMP JUMPDEST POP POP POP SWAP1 POP SWAP1 DUP2 ADD SWAP1 PUSH1 0x1F AND DUP1 ISZERO PUSH2 0x46B JUMPI DUP1 DUP3 SUB DUP1 MLOAD PUSH1 0x1 DUP4 PUSH1 0x20 SUB PUSH2 0x100 EXP SUB NOT AND DUP2 MSTORE PUSH1 0x20 ADD SWAP2 POP JUMPDEST POP SWAP3 POP POP POP PUSH1 0x40 MLOAD DUP1 SWAP2 SUB SWAP1 RETURN JUMPDEST CALLVALUE ISZERO PUSH2 0x481 JUMPI INVALID JUMPDEST PUSH2 0x489 PUSH2 0x1503 JUMP JUMPDEST PUSH1 0x40 MLOAD DUP1 DUP3 DUP2 MSTORE PUSH1 0x20 ADD SWAP2 POP POP PUSH1 0x40 MLOAD DUP1 SWAP2 SUB SWAP1 RETURN JUMPDEST CALLVALUE ISZERO PUSH2 0x4A7 JUMPI INVALID JUMPDEST PUSH2 0x4BD PUSH1 0x4 DUP1 DUP1 CALLDATALOAD SWAP1 PUSH1 0x20 ADD SWAP1 SWAP2 SWAP1 POP POP PUSH2 0x1509 JUMP JUMPDEST PUSH1 0x40 MLOAD DUP1 DUP3 PUSH20 0xFFFFFFFFFFFFFFFFFFFFFFFFFFFFFFFFFFFFFFFF AND PUSH20 0xFFFFFFFFFFFFFFFFFFFFFFFFFFFFFFFFFFFFFFFF AND DUP2 MSTORE PUSH1 0x20 ADD SWAP2 POP POP PUSH1 0x40 MLOAD DUP1 SWAP2 SUB SWAP1 RETURN JUMPDEST CALLVALUE ISZERO PUSH2 0x507 JUMPI INVALID JUMPDEST PUSH2 0x50F PUSH2 0x153C JUMP JUMPDEST PUSH1 0x40 MLOAD DUP1 DUP1 PUSH1 0x20 ADD DUP3 DUP2 SUB DUP3 MSTORE DUP4 DUP2 DUP2 MLOAD DUP2 MSTORE PUSH1 0x20 ADD SWAP2 POP DUP1 MLOAD SWAP1 PUSH1 0x20 ADD SWAP1 DUP1 DUP4 DUP4 PUSH1 0x0 DUP4 EQ PUSH2 0x55E JUMPI JUMPDEST DUP1 MLOAD DUP3 MSTORE PUSH1 0x20 DUP4 GT ISZERO PUSH2 0x55E JUMPI PUSH1 0x20 DUP3 ADD SWAP2 POP PUSH1 0x20 DUP2 ADD SWAP1 POP PUSH1 0x20 DUP4 SUB SWAP3 POP PUSH2 0x53A JUMP JUMPDEST POP POP POP SWAP1 POP SWAP1 DUP2 ADD SWAP1 PUSH1 0x1F AND DUP1 ISZERO PUSH2 0x58A JUMPI DUP1 DUP3 SUB DUP1 MLOAD PUSH1 0x1 DUP4 PUSH1 0x20 SUB PUSH2 0x100 EXP SUB NOT AND DUP2 MSTORE PUSH1 0x20 ADD SWAP2 POP JUMPDEST POP SWAP3 POP POP POP PUSH1 0x40 MLOAD DUP1 SWAP2 SUB SWAP1 RETURN JUMPDEST CALLVALUE ISZERO PUSH2 0x5A0 JUMPI INVALID JUMPDEST PUSH2 0x5B6 PUSH1 0x4 DUP1 DUP1 CALLDATALOAD SWAP1 PUSH1 0x20 ADD SWAP1 SWAP2 SWAP1 POP POP PUSH2 0x15DA JUMP JUMPDEST PUSH1 0x40 MLOAD DUP1 DUP6 ISZERO ISZERO ISZERO ISZERO DUP2 MSTORE PUSH1 0x20 ADD DUP5 DUP2 MSTORE PUSH1 0x20 ADD DUP4 PUSH20 0xFFFFFFFFFFFFFFFFFFFFFFFFFFFFFFFFFFFFFFFF AND PUSH20 0xFFFFFFFFFFFFFFFFFFFFFFFFFFFFFFFFFFFFFFFF AND DUP2 MSTORE PUSH1 0x20 ADD DUP3 DUP2 MSTORE PUSH1 0x20 ADD SWAP5 POP POP POP POP POP PUSH1 0x40 MLOAD DUP1 SWAP2 SUB SWAP1 RETURN JUMPDEST CALLVALUE ISZERO PUSH2 0x619 JUMPI INVALID JUMPDEST PUSH2 0x645 PUSH1 0x4 DUP1 DUP1 CALLDATALOAD PUSH20 0xFFFFFFFFFFFFFFFFFFFFFFFFFFFFFFFFFFFFFFFF AND SWAP1 PUSH1 0x20 ADD SWAP1 SWAP2 SWAP1 POP POP PUSH2 0x1637 JUMP JUMPDEST PUSH1 0x40 MLOAD DUP1 DUP3 DUP2 MSTORE PUSH1 0x20 ADD SWAP2 POP POP PUSH1 0x40 MLOAD DUP1 SWAP2 SUB SWAP1 RETURN JUMPDEST CALLVALUE ISZERO PUSH2 0x663 JUMPI INVALID JUMPDEST PUSH2 0x66B PUSH2 0x164F JUMP JUMPDEST STOP JUMPDEST CALLVALUE ISZERO PUSH2 0x675 JUMPI INVALID JUMPDEST PUSH2 0x67D PUSH2 0x16CA JUMP JUMPDEST PUSH1 0x40 MLOAD DUP1 DUP3 ISZERO ISZERO ISZERO ISZERO DUP2 MSTORE PUSH1 0x20 ADD SWAP2 POP POP PUSH1 0x40 MLOAD DUP1 SWAP2 SUB SWAP1 RETURN JUMPDEST PUSH2 0x6AD PUSH1 0x4 DUP1 DUP1 CALLDATALOAD SWAP1 PUSH1 0x20 ADD SWAP1 SWAP2 SWAP1 POP POP PUSH2 0x16DD JUMP JUMPDEST STOP JUMPDEST CALLVALUE ISZERO PUSH2 0x6B7 JUMPI INVALID JUMPDEST PUSH2 0x6EC PUSH1 0x4 DUP1 DUP1 CALLDATALOAD PUSH20 0xFFFFFFFFFFFFFFFFFFFFFFFFFFFFFFFFFFFFFFFF AND SWAP1 PUSH1 0x20 ADD SWAP1 SWAP2 SWAP1 DUP1 CALLDATALOAD SWAP1 PUSH1 0x20 ADD SWAP1 SWAP2 SWAP1 POP POP PUSH2 0x1C5B JUMP JUMPDEST STOP JUMPDEST CALLVALUE ISZERO PUSH2 0x6F6 JUMPI INVALID JUMPDEST PUSH2 0x6FE PUSH2 0x207A JUMP JUMPDEST PUSH1 0x40 MLOAD DUP1 DUP1 PUSH1 0x20 ADD DUP3 DUP2 SUB DUP3 MSTORE DUP4 DUP2 DUP2 MLOAD DUP2 MSTORE PUSH1 0x20 ADD SWAP2 POP DUP1 MLOAD SWAP1 PUSH1 0x20 ADD SWAP1 DUP1 DUP4 DUP4 PUSH1 0x0 DUP4 EQ PUSH2 0x74D JUMPI JUMPDEST DUP1 MLOAD DUP3 MSTORE PUSH1 0x20 DUP4 GT ISZERO PUSH2 0x74D JUMPI PUSH1 0x20 DUP3 ADD SWAP2 POP PUSH1 0x20 DUP2 ADD SWAP1 POP PUSH1 0x20 DUP4 SUB SWAP3 POP PUSH2 0x729 JUMP JUMPDEST POP POP POP SWAP1 POP SWAP1 DUP2 ADD SWAP1 PUSH1 0x1F AND DUP1 ISZERO PUSH2 0x779 JUMPI DUP1 DUP3 SUB DUP1 MLOAD PUSH1 0x1 DUP4 PUSH1 0x20 SUB PUSH2 0x100 EXP SUB NOT AND DUP2 MSTORE PUSH1 0x20 ADD SWAP2 POP JUMPDEST POP SWAP3 POP POP POP PUSH1 0x40 MLOAD DUP1 SWAP2 SUB SWAP1 RETURN JUMPDEST CALLVALUE ISZERO PUSH2 0x78F JUMPI INVALID JUMPDEST PUSH2 0x7A5 PUSH1 0x4 DUP1 DUP1 CALLDATALOAD SWAP1 PUSH1 0x20 ADD SWAP1 SWAP2 SWAP1 POP POP PUSH2 0x2118 JUMP JUMPDEST STOP JUMPDEST CALLVALUE ISZERO PUSH2 0x7AF JUMPI INVALID JUMPDEST PUSH2 0x7E4 PUSH1 0x4 DUP1 DUP1 CALLDATALOAD PUSH20 0xFFFFFFFFFFFFFFFFFFFFFFFFFFFFFFFFFFFFFFFF AND SWAP1 PUSH1 0x20 ADD SWAP1 SWAP2 SWAP1 DUP1 CALLDATALOAD SWAP1 PUSH1 0x20 ADD SWAP1 SWAP2 SWAP1 POP POP PUSH2 0x23F0 JUMP JUMPDEST STOP JUMPDEST CALLVALUE ISZERO PUSH2 0x7EE JUMPI INVALID JUMPDEST PUSH2 0x82C PUSH1 0x4 DUP1 DUP1 CALLDATALOAD SWAP1 PUSH1 0x20 ADD SWAP1 SWAP2 SWAP1 DUP1 CALLDATALOAD SWAP1 PUSH1 0x20 ADD SWAP1 SWAP2 SWAP1 DUP1 CALLDATALOAD PUSH20 0xFFFFFFFFFFFFFFFFFFFFFFFFFFFFFFFFFFFFFFFF AND SWAP1 PUSH1 0x20 ADD SWAP1 SWAP2 SWAP1 POP POP PUSH2 0x26C5 JUMP JUMPDEST STOP JUMPDEST CALLVALUE ISZERO PUSH2 0x836 JUMPI INVALID JUMPDEST PUSH2 0x83E PUSH2 0x28E4 JUMP JUMPDEST PUSH1 0x40 MLOAD DUP1 DUP3 DUP2 MSTORE PUSH1 0x20 ADD SWAP2 POP POP PUSH1 0x40 MLOAD DUP1 SWAP2 SUB SWAP1 RETURN JUMPDEST CALLVALUE ISZERO PUSH2 0x85C JUMPI INVALID JUMPDEST PUSH2 0x87B PUSH1 0x4 DUP1 DUP1 CALLDATALOAD SWAP1 PUSH1 0x20 ADD SWAP1 SWAP2 SWAP1 DUP1 CALLDATALOAD SWAP1 PUSH1 0x20 ADD SWAP1 SWAP2 SWAP1 POP POP PUSH2 0x28EA JUMP JUMPDEST STOP JUMPDEST CALLVALUE ISZERO PUSH2 0x885 JUMPI INVALID JUMPDEST PUSH2 0x89B PUSH1 0x4 DUP1 DUP1 CALLDATALOAD SWAP1 PUSH1 0x20 ADD SWAP1 SWAP2 SWAP1 POP POP PUSH2 0x2AF4 JUMP JUMPDEST STOP JUMPDEST CALLVALUE ISZERO PUSH2 0x8A5 JUMPI INVALID JUMPDEST PUSH2 0x8D1 PUSH1 0x4 DUP1 DUP1 CALLDATALOAD PUSH20 0xFFFFFFFFFFFFFFFFFFFFFFFFFFFFFFFFFFFFFFFF AND SWAP1 PUSH1 0x20 ADD SWAP1 SWAP2 SWAP1 POP POP PUSH2 0x2C91 JUMP JUMPDEST PUSH1 0x40 MLOAD DUP1 DUP3 DUP2 MSTORE PUSH1 0x20 ADD SWAP2 POP POP PUSH1 0x40 MLOAD DUP1 SWAP2 SUB SWAP1 RETURN JUMPDEST CALLVALUE ISZERO PUSH2 0x8EF JUMPI INVALID JUMPDEST PUSH2 0x905 PUSH1 0x4 DUP1 DUP1 CALLDATALOAD SWAP1 PUSH1 0x20 ADD SWAP1 SWAP2 SWAP1 POP POP PUSH2 0x2CA9 JUMP JUMPDEST STOP JUMPDEST PUSH1 0x3 DUP1 SLOAD PUSH1 0x1 DUP2 PUSH1 0x1 AND ISZERO PUSH2 0x100 MUL SUB AND PUSH1 0x2 SWAP1 DIV DUP1 PUSH1 0x1F ADD PUSH1 0x20 DUP1 SWAP2 DIV MUL PUSH1 0x20 ADD PUSH1 0x40 MLOAD SWAP1 DUP2 ADD PUSH1 0x40 MSTORE DUP1 SWAP3 SWAP2 SWAP1 DUP2 DUP2 MSTORE PUSH1 0x20 ADD DUP3 DUP1 SLOAD PUSH1 0x1 DUP2 PUSH1 0x1 AND ISZERO PUSH2 0x100 MUL SUB AND PUSH1 0x2 SWAP1 DIV DUP1 ISZERO PUSH2 0x99D JUMPI DUP1 PUSH1 0x1F LT PUSH2 0x972 JUMPI PUSH2 0x100 DUP1 DUP4 SLOAD DIV MUL DUP4 MSTORE SWAP2 PUSH1 0x20 ADD SWAP2 PUSH2 0x99D JUMP JUMPDEST DUP3 ADD SWAP2 SWAP1 PUSH1 0x0 MSTORE PUSH1 0x20 PUSH1 0x0 SHA3 SWAP1 JUMPDEST DUP2 SLOAD DUP2 MSTORE SWAP1 PUSH1 0x1 ADD SWAP1 PUSH1 0x20 ADD DUP1 DUP4 GT PUSH2 0x980 JUMPI DUP3 SWAP1 SUB PUSH1 0x1F AND DUP3 ADD SWAP2 JUMPDEST POP POP POP POP POP DUP2 JUMP JUMPDEST PUSH1 0xC PUSH1 0x20 MSTORE DUP1 PUSH1 0x0 MSTORE PUSH1 0x40 PUSH1 0x0 SHA3 PUSH1 0x0 SWAP2 POP SWAP1 POP DUP1 PUSH1 0x0 ADD PUSH1 0x0 SWAP1 SLOAD SWAP1 PUSH2 0x100 EXP SWAP1 DIV PUSH1 0xFF AND SWAP1 DUP1 PUSH1 0x1 ADD SLOAD SWAP1 DUP1 PUSH1 0x2 ADD PUSH1 0x0 SWAP1 SLOAD SWAP1 PUSH2 0x100 EXP SWAP1 DIV PUSH20 0xFFFFFFFFFFFFFFFFFFFFFFFFFFFFFFFFFFFFFFFF AND SWAP1 DUP1 PUSH1 0x3 ADD SLOAD SWAP1 DUP1 PUSH1 0x4 ADD PUSH1 0x0 SWAP1 SLOAD SWAP1 PUSH2 0x100 EXP SWAP1 DIV PUSH20 0xFFFFFFFFFFFFFFFFFFFFFFFFFFFFFFFFFFFFFFFF AND SWAP1 POP DUP6 JUMP JUMPDEST PUSH1 0x0 PUSH2 0x2710 DUP3 LT ISZERO ISZERO PUSH2 0xA3B JUMPI PUSH1 0x0 PUSH1 0x0 REVERT JUMPDEST PUSH1 0x8 PUSH1 0x0 SWAP1 SLOAD SWAP1 PUSH2 0x100 EXP SWAP1 DIV PUSH1 0xFF AND ISZERO ISZERO PUSH2 0xA57 JUMPI PUSH1 0x0 PUSH1 0x0 REVERT JUMPDEST PUSH1 0x0 PUSH1 0xA PUSH1 0x0 DUP5 DUP2 MSTORE PUSH1 0x20 ADD SWAP1 DUP2 MSTORE PUSH1 0x20 ADD PUSH1 0x0 SHA3 PUSH1 0x0 SWAP1 SLOAD SWAP1 PUSH2 0x100 EXP SWAP1 DIV PUSH20 0xFFFFFFFFFFFFFFFFFFFFFFFFFFFFFFFFFFFFFFFF AND PUSH20 0xFFFFFFFFFFFFFFFFFFFFFFFFFFFFFFFFFFFFFFFF AND EQ ISZERO PUSH2 0xAAF JUMPI PUSH1 0x0 PUSH1 0x0 REVERT JUMPDEST CALLER PUSH20 0xFFFFFFFFFFFFFFFFFFFFFFFFFFFFFFFFFFFFFFFF AND PUSH1 0xA PUSH1 0x0 DUP5 DUP2 MSTORE PUSH1 0x20 ADD SWAP1 DUP2 MSTORE PUSH1 0x20 ADD PUSH1 0x0 SHA3 PUSH1 0x0 SWAP1 SLOAD SWAP1 PUSH2 0x100 EXP SWAP1 DIV PUSH20 0xFFFFFFFFFFFFFFFFFFFFFFFFFFFFFFFFFFFFFFFF AND PUSH20 0xFFFFFFFFFFFFFFFFFFFFFFFFFFFFFFFFFFFFFFFF AND EQ ISZERO PUSH2 0xB1C JUMPI PUSH1 0x0 PUSH1 0x0 REVERT JUMPDEST PUSH1 0x0 CALLVALUE EQ ISZERO PUSH2 0xB2B JUMPI PUSH1 0x0 PUSH1 0x0 REVERT JUMPDEST PUSH1 0xD PUSH1 0x0 DUP4 DUP2 MSTORE PUSH1 0x20 ADD SWAP1 DUP2 MSTORE PUSH1 0x20 ADD PUSH1 0x0 SHA3 SWAP1 POP DUP1 PUSH1 0x3 ADD SLOAD CALLVALUE GT ISZERO ISZERO PUSH2 0xB53 JUMPI PUSH1 0x0 PUSH1 0x0 REVERT JUMPDEST PUSH1 0x0 DUP2 PUSH1 0x3 ADD SLOAD GT ISZERO PUSH2 0xBD6 JUMPI DUP1 PUSH1 0x3 ADD SLOAD PUSH1 0xE PUSH1 0x0 DUP4 PUSH1 0x2 ADD PUSH1 0x0 SWAP1 SLOAD SWAP1 PUSH2 0x100 EXP SWAP1 DIV PUSH20 0xFFFFFFFFFFFFFFFFFFFFFFFFFFFFFFFFFFFFFFFF AND PUSH20 0xFFFFFFFFFFFFFFFFFFFFFFFFFFFFFFFFFFFFFFFF AND PUSH20 0xFFFFFFFFFFFFFFFFFFFFFFFFFFFFFFFFFFFFFFFF AND DUP2 MSTORE PUSH1 0x20 ADD SWAP1 DUP2 MSTORE PUSH1 0x20 ADD PUSH1 0x0 SHA3 PUSH1 0x0 DUP3 DUP3 SLOAD ADD SWAP3 POP POP DUP2 SWAP1 SSTORE POP JUMPDEST PUSH1 0x80 PUSH1 0x40 MLOAD SWAP1 DUP2 ADD PUSH1 0x40 MSTORE DUP1 PUSH1 0x1 ISZERO ISZERO DUP2 MSTORE PUSH1 0x20 ADD DUP4 DUP2 MSTORE PUSH1 0x20 ADD CALLER PUSH20 0xFFFFFFFFFFFFFFFFFFFFFFFFFFFFFFFFFFFFFFFF AND DUP2 MSTORE PUSH1 0x20 ADD CALLVALUE DUP2 MSTORE POP PUSH1 0xD PUSH1 0x0 DUP5 DUP2 MSTORE PUSH1 0x20 ADD SWAP1 DUP2 MSTORE PUSH1 0x20 ADD PUSH1 0x0 SHA3 PUSH1 0x0 DUP3 ADD MLOAD DUP2 PUSH1 0x0 ADD PUSH1 0x0 PUSH2 0x100 EXP DUP2 SLOAD DUP2 PUSH1 0xFF MUL NOT AND SWAP1 DUP4 ISZERO ISZERO MUL OR SWAP1 SSTORE POP PUSH1 0x20 DUP3 ADD MLOAD DUP2 PUSH1 0x1 ADD SSTORE PUSH1 0x40 DUP3 ADD MLOAD DUP2 PUSH1 0x2 ADD PUSH1 0x0 PUSH2 0x100 EXP DUP2 SLOAD DUP2 PUSH20 0xFFFFFFFFFFFFFFFFFFFFFFFFFFFFFFFFFFFFFFFF MUL NOT AND SWAP1 DUP4 PUSH20 0xFFFFFFFFFFFFFFFFFFFFFFFFFFFFFFFFFFFFFFFF AND MUL OR SWAP1 SSTORE POP PUSH1 0x60 DUP3 ADD MLOAD DUP2 PUSH1 0x3 ADD SSTORE SWAP1 POP POP CALLER PUSH20 0xFFFFFFFFFFFFFFFFFFFFFFFFFFFFFFFFFFFFFFFF AND DUP3 PUSH32 0x5B859394FABAE0C1BA88BAFFE67E751AB5248D2E879028B8C8D6897B0519F56A CALLVALUE PUSH1 0x40 MLOAD DUP1 DUP3 DUP2 MSTORE PUSH1 0x20 ADD SWAP2 POP POP PUSH1 0x40 MLOAD DUP1 SWAP2 SUB SWAP1 LOG3 JUMPDEST POP POP JUMP JUMPDEST PUSH1 0x6 SLOAD DUP2 JUMP JUMPDEST PUSH1 0x0 PUSH1 0x0 PUSH1 0x0 PUSH2 0x2710 DUP6 LT ISZERO ISZERO PUSH2 0xD13 JUMPI PUSH1 0x0 PUSH1 0x0 REVERT JUMPDEST PUSH1 0x8 PUSH1 0x0 SWAP1 SLOAD SWAP1 PUSH2 0x100 EXP SWAP1 DIV PUSH1 0xFF AND ISZERO ISZERO PUSH2 0xD2F JUMPI PUSH1 0x0 PUSH1 0x0 REVERT JUMPDEST CALLER PUSH20 0xFFFFFFFFFFFFFFFFFFFFFFFFFFFFFFFFFFFFFFFF AND PUSH1 0xA PUSH1 0x0 DUP8 DUP2 MSTORE PUSH1 0x20 ADD SWAP1 DUP2 MSTORE PUSH1 0x20 ADD PUSH1 0x0 SHA3 PUSH1 0x0 SWAP1 SLOAD SWAP1 PUSH2 0x100 EXP SWAP1 DIV PUSH20 0xFFFFFFFFFFFFFFFFFFFFFFFFFFFFFFFFFFFFFFFF AND PUSH20 0xFFFFFFFFFFFFFFFFFFFFFFFFFFFFFFFFFFFFFFFF AND EQ ISZERO ISZERO PUSH2 0xD9D JUMPI PUSH1 0x0 PUSH1 0x0 REVERT JUMPDEST CALLER SWAP3 POP PUSH1 0xD PUSH1 0x0 DUP7 DUP2 MSTORE PUSH1 0x20 ADD SWAP1 DUP2 MSTORE PUSH1 0x20 ADD PUSH1 0x0 SHA3 SWAP2 POP PUSH1 0x0 DUP3 PUSH1 0x3 ADD SLOAD EQ ISZERO PUSH2 0xDC8 JUMPI PUSH1 0x0 PUSH1 0x0 REVERT JUMPDEST DUP4 DUP3 PUSH1 0x3 ADD SLOAD LT ISZERO PUSH2 0xDDA JUMPI PUSH1 0x0 PUSH1 0x0 REVERT JUMPDEST DUP2 PUSH1 0x2 ADD PUSH1 0x0 SWAP1 SLOAD SWAP1 PUSH2 0x100 EXP SWAP1 DIV PUSH20 0xFFFFFFFFFFFFFFFFFFFFFFFFFFFFFFFFFFFFFFFF AND PUSH1 0xA PUSH1 0x0 DUP8 DUP2 MSTORE PUSH1 0x20 ADD SWAP1 DUP2 MSTORE PUSH1 0x20 ADD PUSH1 0x0 SHA3 PUSH1 0x0 PUSH2 0x100 EXP DUP2 SLOAD DUP2 PUSH20 0xFFFFFFFFFFFFFFFFFFFFFFFFFFFFFFFFFFFFFFFF MUL NOT AND SWAP1 DUP4 PUSH20 0xFFFFFFFFFFFFFFFFFFFFFFFFFFFFFFFFFFFFFFFF AND MUL OR SWAP1 SSTORE POP PUSH1 0xB PUSH1 0x0 DUP5 PUSH20 0xFFFFFFFFFFFFFFFFFFFFFFFFFFFFFFFFFFFFFFFF AND PUSH20 0xFFFFFFFFFFFFFFFFFFFFFFFFFFFFFFFFFFFFFFFF AND DUP2 MSTORE PUSH1 0x20 ADD SWAP1 DUP2 MSTORE PUSH1 0x20 ADD PUSH1 0x0 SHA3 PUSH1 0x0 DUP2 SLOAD DUP1 SWAP3 SWAP2 SWAP1 PUSH1 0x1 SWAP1 SUB SWAP2 SWAP1 POP SSTORE POP PUSH1 0xB PUSH1 0x0 DUP4 PUSH1 0x2 ADD PUSH1 0x0 SWAP1 SLOAD SWAP1 PUSH2 0x100 EXP SWAP1 DIV PUSH20 0xFFFFFFFFFFFFFFFFFFFFFFFFFFFFFFFFFFFFFFFF AND PUSH20 0xFFFFFFFFFFFFFFFFFFFFFFFFFFFFFFFFFFFFFFFF AND PUSH20 0xFFFFFFFFFFFFFFFFFFFFFFFFFFFFFFFFFFFFFFFF AND DUP2 MSTORE PUSH1 0x20 ADD SWAP1 DUP2 MSTORE PUSH1 0x20 ADD PUSH1 0x0 SHA3 PUSH1 0x0 DUP2 SLOAD DUP1 SWAP3 SWAP2 SWAP1 PUSH1 0x1 ADD SWAP2 SWAP1 POP SSTORE POP DUP2 PUSH1 0x2 ADD PUSH1 0x0 SWAP1 SLOAD SWAP1 PUSH2 0x100 EXP SWAP1 DIV PUSH20 0xFFFFFFFFFFFFFFFFFFFFFFFFFFFFFFFFFFFFFFFF AND PUSH20 0xFFFFFFFFFFFFFFFFFFFFFFFFFFFFFFFFFFFFFFFF AND DUP4 PUSH20 0xFFFFFFFFFFFFFFFFFFFFFFFFFFFFFFFFFFFFFFFF AND PUSH32 0xDDF252AD1BE2C89B69C2B068FC378DAA952BA7F163C4A11628F55A4DF523B3EF PUSH1 0x1 PUSH1 0x40 MLOAD DUP1 DUP3 DUP2 MSTORE PUSH1 0x20 ADD SWAP2 POP POP PUSH1 0x40 MLOAD DUP1 SWAP2 SUB SWAP1 LOG3 PUSH1 0xA0 PUSH1 0x40 MLOAD SWAP1 DUP2 ADD PUSH1 0x40 MSTORE DUP1 PUSH1 0x0 ISZERO ISZERO DUP2 MSTORE PUSH1 0x20 ADD DUP7 DUP2 MSTORE PUSH1 0x20 ADD DUP4 PUSH1 0x2 ADD PUSH1 0x0 SWAP1 SLOAD SWAP1 PUSH2 0x100 EXP SWAP1 DIV PUSH20 0xFFFFFFFFFFFFFFFFFFFFFFFFFFFFFFFFFFFFFFFF AND PUSH20 0xFFFFFFFFFFFFFFFFFFFFFFFFFFFFFFFFFFFFFFFF AND DUP2 MSTORE PUSH1 0x20 ADD PUSH1 0x0 DUP2 MSTORE PUSH1 0x20 ADD PUSH1 0x0 PUSH20 0xFFFFFFFFFFFFFFFFFFFFFFFFFFFFFFFFFFFFFFFF AND DUP2 MSTORE POP PUSH1 0xC PUSH1 0x0 DUP8 DUP2 MSTORE PUSH1 0x20 ADD SWAP1 DUP2 MSTORE PUSH1 0x20 ADD PUSH1 0x0 SHA3 PUSH1 0x0 DUP3 ADD MLOAD DUP2 PUSH1 0x0 ADD PUSH1 0x0 PUSH2 0x100 EXP DUP2 SLOAD DUP2 PUSH1 0xFF MUL NOT AND SWAP1 DUP4 ISZERO ISZERO MUL OR SWAP1 SSTORE POP PUSH1 0x20 DUP3 ADD MLOAD DUP2 PUSH1 0x1 ADD SSTORE PUSH1 0x40 DUP3 ADD MLOAD DUP2 PUSH1 0x2 ADD PUSH1 0x0 PUSH2 0x100 EXP DUP2 SLOAD DUP2 PUSH20 0xFFFFFFFFFFFFFFFFFFFFFFFFFFFFFFFFFFFFFFFF MUL NOT AND SWAP1 DUP4 PUSH20 0xFFFFFFFFFFFFFFFFFFFFFFFFFFFFFFFFFFFFFFFF AND MUL OR SWAP1 SSTORE POP PUSH1 0x60 DUP3 ADD MLOAD DUP2 PUSH1 0x3 ADD SSTORE PUSH1 0x80 DUP3 ADD MLOAD DUP2 PUSH1 0x4 ADD PUSH1 0x0 PUSH2 0x100 EXP DUP2 SLOAD DUP2 PUSH20 0xFFFFFFFFFFFFFFFFFFFFFFFFFFFFFFFFFFFFFFFF MUL NOT AND SWAP1 DUP4 PUSH20 0xFFFFFFFFFFFFFFFFFFFFFFFFFFFFFFFFFFFFFFFF AND MUL OR SWAP1 SSTORE POP SWAP1 POP POP DUP2 PUSH1 0x3 ADD SLOAD SWAP1 POP PUSH1 0x80 PUSH1 0x40 MLOAD SWAP1 DUP2 ADD PUSH1 0x40 MSTORE DUP1 PUSH1 0x0 ISZERO ISZERO DUP2 MSTORE PUSH1 0x20 ADD DUP7 DUP2 MSTORE PUSH1 0x20 ADD PUSH1 0x0 PUSH20 0xFFFFFFFFFFFFFFFFFFFFFFFFFFFFFFFFFFFFFFFF AND DUP2 MSTORE PUSH1 0x20 ADD PUSH1 0x0 DUP2 MSTORE POP PUSH1 0xD PUSH1 0x0 DUP8 DUP2 MSTORE PUSH1 0x20 ADD SWAP1 DUP2 MSTORE PUSH1 0x20 ADD PUSH1 0x0 SHA3 PUSH1 0x0 DUP3 ADD MLOAD DUP2 PUSH1 0x0 ADD PUSH1 0x0 PUSH2 0x100 EXP DUP2 SLOAD DUP2 PUSH1 0xFF MUL NOT AND SWAP1 DUP4 ISZERO ISZERO MUL OR SWAP1 SSTORE POP PUSH1 0x20 DUP3 ADD MLOAD DUP2 PUSH1 0x1 ADD SSTORE PUSH1 0x40 DUP3 ADD MLOAD DUP2 PUSH1 0x2 ADD PUSH1 0x0 PUSH2 0x100 EXP DUP2 SLOAD DUP2 PUSH20 0xFFFFFFFFFFFFFFFFFFFFFFFFFFFFFFFFFFFFFFFF MUL NOT AND SWAP1 DUP4 PUSH20 0xFFFFFFFFFFFFFFFFFFFFFFFFFFFFFFFFFFFFFFFF AND MUL OR SWAP1 SSTORE POP PUSH1 0x60 DUP3 ADD MLOAD DUP2 PUSH1 0x3 ADD SSTORE SWAP1 POP POP DUP1 PUSH1 0xE PUSH1 0x0 DUP6 PUSH20 0xFFFFFFFFFFFFFFFFFFFFFFFFFFFFFFFFFFFFFFFF AND PUSH20 0xFFFFFFFFFFFFFFFFFFFFFFFFFFFFFFFFFFFFFFFF AND DUP2 MSTORE PUSH1 0x20 ADD SWAP1 DUP2 MSTORE PUSH1 0x20 ADD PUSH1 0x0 SHA3 PUSH1 0x0 DUP3 DUP3 SLOAD ADD SWAP3 POP POP DUP2 SWAP1 SSTORE POP DUP2 PUSH1 0x2 ADD PUSH1 0x0 SWAP1 SLOAD SWAP1 PUSH2 0x100 EXP SWAP1 DIV PUSH20 0xFFFFFFFFFFFFFFFFFFFFFFFFFFFFFFFFFFFFFFFF AND PUSH20 0xFFFFFFFFFFFFFFFFFFFFFFFFFFFFFFFFFFFFFFFF AND DUP4 PUSH20 0xFFFFFFFFFFFFFFFFFFFFFFFFFFFFFFFFFFFFFFFF AND DUP7 PUSH32 0x58E5D5A525E3B40BC15ABAA38B5882678DB1EE68BEFD2F60BAFE3A7FD06DB9E3 DUP6 PUSH1 0x3 ADD SLOAD PUSH1 0x40 MLOAD DUP1 DUP3 DUP2 MSTORE PUSH1 0x20 ADD SWAP2 POP POP PUSH1 0x40 MLOAD DUP1 SWAP2 SUB SWAP1 LOG4 JUMPDEST POP POP POP POP POP JUMP JUMPDEST PUSH1 0x5 PUSH1 0x0 SWAP1 SLOAD SWAP1 PUSH2 0x100 EXP SWAP1 DIV PUSH1 0xFF AND DUP2 JUMP JUMPDEST PUSH1 0x0 PUSH1 0x0 PUSH1 0x1 PUSH1 0x0 SWAP1 SLOAD SWAP1 PUSH2 0x100 EXP SWAP1 DIV PUSH20 0xFFFFFFFFFFFFFFFFFFFFFFFFFFFFFFFFFFFFFFFF AND PUSH20 0xFFFFFFFFFFFFFFFFFFFFFFFFFFFFFFFFFFFFFFFF AND CALLER PUSH20 0xFFFFFFFFFFFFFFFFFFFFFFFFFFFFFFFFFFFFFFFF AND EQ ISZERO ISZERO PUSH2 0x131E JUMPI PUSH1 0x0 PUSH1 0x0 REVERT JUMPDEST DUP4 MLOAD SWAP2 POP PUSH1 0x0 SWAP1 POP JUMPDEST DUP2 DUP2 LT ISZERO PUSH2 0x1375 JUMPI PUSH2 0x1367 DUP5 DUP3 DUP2 MLOAD DUP2 LT ISZERO ISZERO PUSH2 0x1340 JUMPI INVALID JUMPDEST SWAP1 PUSH1 0x20 ADD SWAP1 PUSH1 0x20 MUL ADD MLOAD DUP5 DUP4 DUP2 MLOAD DUP2 LT ISZERO ISZERO PUSH2 0x1358 JUMPI INVALID JUMPDEST SWAP1 PUSH1 0x20 ADD SWAP1 PUSH1 0x20 MUL ADD MLOAD PUSH2 0x23F0 JUMP JUMPDEST JUMPDEST DUP1 DUP1 PUSH1 0x1 ADD SWAP2 POP POP PUSH2 0x1327 JUMP JUMPDEST JUMPDEST POP POP POP POP JUMP JUMPDEST PUSH1 0x0 PUSH1 0x8 PUSH1 0x0 SWAP1 SLOAD SWAP1 PUSH2 0x100 EXP SWAP1 DIV PUSH1 0xFF AND ISZERO ISZERO PUSH2 0x139A JUMPI PUSH1 0x0 PUSH1 0x0 REVERT JUMPDEST PUSH1 0xE PUSH1 0x0 CALLER PUSH20 0xFFFFFFFFFFFFFFFFFFFFFFFFFFFFFFFFFFFFFFFF AND PUSH20 0xFFFFFFFFFFFFFFFFFFFFFFFFFFFFFFFFFFFFFFFF AND DUP2 MSTORE PUSH1 0x20 ADD SWAP1 DUP2 MSTORE PUSH1 0x20 ADD PUSH1 0x0 SHA3 SLOAD SWAP1 POP PUSH1 0x0 PUSH1 0xE PUSH1 0x0 CALLER PUSH20 0xFFFFFFFFFFFFFFFFFFFFFFFFFFFFFFFFFFFFFFFF AND PUSH20 0xFFFFFFFFFFFFFFFFFFFFFFFFFFFFFFFFFFFFFFFF AND DUP2 MSTORE PUSH1 0x20 ADD SWAP1 DUP2 MSTORE PUSH1 0x20 ADD PUSH1 0x0 SHA3 DUP2 SWAP1 SSTORE POP CALLER PUSH20 0xFFFFFFFFFFFFFFFFFFFFFFFFFFFFFFFFFFFFFFFF AND PUSH2 0x8FC DUP3 SWAP1 DUP2 ISZERO MUL SWAP1 PUSH1 0x40 MLOAD DUP1 SWAP1 POP PUSH1 0x0 PUSH1 0x40 MLOAD DUP1 DUP4 SUB DUP2 DUP6 DUP9 DUP9 CALL SWAP4 POP POP POP POP ISZERO ISZERO PUSH2 0x1461 JUMPI INVALID JUMPDEST JUMPDEST POP JUMP JUMPDEST PUSH1 0x0 DUP1 SLOAD PUSH1 0x1 DUP2 PUSH1 0x1 AND ISZERO PUSH2 0x100 MUL SUB AND PUSH1 0x2 SWAP1 DIV DUP1 PUSH1 0x1F ADD PUSH1 0x20 DUP1 SWAP2 DIV MUL PUSH1 0x20 ADD PUSH1 0x40 MLOAD SWAP1 DUP2 ADD PUSH1 0x40 MSTORE DUP1 SWAP3 SWAP2 SWAP1 DUP2 DUP2 MSTORE PUSH1 0x20 ADD DUP3 DUP1 SLOAD PUSH1 0x1 DUP2 PUSH1 0x1 AND ISZERO PUSH2 0x100 MUL SUB AND PUSH1 0x2 SWAP1 DIV DUP1 ISZERO PUSH2 0x14FB JUMPI DUP1 PUSH1 0x1F LT PUSH2 0x14D0 JUMPI PUSH2 0x100 DUP1 DUP4 SLOAD DIV MUL DUP4 MSTORE SWAP2 PUSH1 0x20 ADD SWAP2 PUSH2 0x14FB JUMP JUMPDEST DUP3 ADD SWAP2 SWAP1 PUSH1 0x0 MSTORE PUSH1 0x20 PUSH1 0x0 SHA3 SWAP1 JUMPDEST DUP2 SLOAD DUP2 MSTORE SWAP1 PUSH1 0x1 ADD SWAP1 PUSH1 0x20 ADD DUP1 DUP4 GT PUSH2 0x14DE JUMPI DUP3 SWAP1 SUB PUSH1 0x1F AND DUP3 ADD SWAP2 JUMPDEST POP POP POP POP POP DUP2 JUMP JUMPDEST PUSH1 0x7 SLOAD DUP2 JUMP JUMPDEST PUSH1 0xA PUSH1 0x20 MSTORE DUP1 PUSH1 0x0 MSTORE PUSH1 0x40 PUSH1 0x0 SHA3 PUSH1 0x0 SWAP2 POP SLOAD SWAP1 PUSH2 0x100 EXP SWAP1 DIV PUSH20 0xFFFFFFFFFFFFFFFFFFFFFFFFFFFFFFFFFFFFFFFF AND DUP2 JUMP JUMPDEST PUSH1 0x2 DUP1 SLOAD PUSH1 0x1 DUP2 PUSH1 0x1 AND ISZERO PUSH2 0x100 MUL SUB AND PUSH1 0x2 SWAP1 DIV DUP1 PUSH1 0x1F ADD PUSH1 0x20 DUP1 SWAP2 DIV MUL PUSH1 0x20 ADD PUSH1 0x40 MLOAD SWAP1 DUP2 ADD PUSH1 0x40 MSTORE DUP1 SWAP3 SWAP2 SWAP1 DUP2 DUP2 MSTORE PUSH1 0x20 ADD DUP3 DUP1 SLOAD PUSH1 0x1 DUP2 PUSH1 0x1 AND ISZERO PUSH2 0x100 MUL SUB AND PUSH1 0x2 SWAP1 DIV DUP1 ISZERO PUSH2 0x15D2 JUMPI DUP1 PUSH1 0x1F LT PUSH2 0x15A7 JUMPI PUSH2 0x100 DUP1 DUP4 SLOAD DIV MUL DUP4 MSTORE SWAP2 PUSH1 0x20 ADD SWAP2 PUSH2 0x15D2 JUMP JUMPDEST DUP3 ADD SWAP2 SWAP1 PUSH1 0x0 MSTORE PUSH1 0x20 PUSH1 0x0 SHA3 SWAP1 JUMPDEST DUP2 SLOAD DUP2 MSTORE SWAP1 PUSH1 0x1 ADD SWAP1 PUSH1 0x20 ADD DUP1 DUP4 GT PUSH2 0x15B5 JUMPI DUP3 SWAP1 SUB PUSH1 0x1F AND DUP3 ADD SWAP2 JUMPDEST POP POP POP POP POP DUP2 JUMP JUMPDEST PUSH1 0xD PUSH1 0x20 MSTORE DUP1 PUSH1 0x0 MSTORE PUSH1 0x40 PUSH1 0x0 SHA3 PUSH1 0x0 SWAP2 POP SWAP1 POP DUP1 PUSH1 0x0 ADD PUSH1 0x0 SWAP1 SLOAD SWAP1 PUSH2 0x100 EXP SWAP1 DIV PUSH1 0xFF AND SWAP1 DUP1 PUSH1 0x1 ADD SLOAD SWAP1 DUP1 PUSH1 0x2 ADD PUSH1 0x0 SWAP1 SLOAD SWAP1 PUSH2 0x100 EXP SWAP1 DIV PUSH20 0xFFFFFFFFFFFFFFFFFFFFFFFFFFFFFFFFFFFFFFFF AND SWAP1 DUP1 PUSH1 0x3 ADD SLOAD SWAP1 POP DUP5 JUMP JUMPDEST PUSH1 0xB PUSH1 0x20 MSTORE DUP1 PUSH1 0x0 MSTORE PUSH1 0x40 PUSH1 0x0 SHA3 PUSH1 0x0 SWAP2 POP SWAP1 POP SLOAD DUP2 JUMP JUMPDEST PUSH1 0x1 PUSH1 0x0 SWAP1 SLOAD SWAP1 PUSH2 0x100 EXP SWAP1 DIV PUSH20 0xFFFFFFFFFFFFFFFFFFFFFFFFFFFFFFFFFFFFFFFF AND PUSH20 0xFFFFFFFFFFFFFFFFFFFFFFFFFFFFFFFFFFFFFFFF AND CALLER PUSH20 0xFFFFFFFFFFFFFFFFFFFFFFFFFFFFFFFFFFFFFFFF AND EQ ISZERO ISZERO PUSH2 0x16AC JUMPI PUSH1 0x0 PUSH1 0x0 REVERT JUMPDEST PUSH1 0x1 PUSH1 0x8 PUSH1 0x0 PUSH2 0x100 EXP DUP2 SLOAD DUP2 PUSH1 0xFF MUL NOT AND SWAP1 DUP4 ISZERO ISZERO MUL OR SWAP1 SSTORE POP JUMPDEST JUMP JUMPDEST PUSH1 0x8 PUSH1 0x0 SWAP1 SLOAD SWAP1 PUSH2 0x100 EXP SWAP1 DIV PUSH1 0xFF AND DUP2 JUMP JUMPDEST PUSH1 0x0 PUSH1 0x0 PUSH1 0x0 PUSH1 0x8 PUSH1 0x0 SWAP1 SLOAD SWAP1 PUSH2 0x100 EXP SWAP1 DIV PUSH1 0xFF AND ISZERO ISZERO PUSH2 0x16FF JUMPI PUSH1 0x0 PUSH1 0x0 REVERT JUMPDEST PUSH1 0xC PUSH1 0x0 DUP6 DUP2 MSTORE PUSH1 0x20 ADD SWAP1 DUP2 MSTORE PUSH1 0x20 ADD PUSH1 0x0 SHA3 SWAP3 POP PUSH2 0x2710 DUP5 LT ISZERO ISZERO PUSH2 0x1725 JUMPI PUSH1 0x0 PUSH1 0x0 REVERT JUMPDEST DUP3 PUSH1 0x0 ADD PUSH1 0x0 SWAP1 SLOAD SWAP1 PUSH2 0x100 EXP SWAP1 DIV PUSH1 0xFF AND ISZERO ISZERO PUSH2 0x1743 JUMPI PUSH1 0x0 PUSH1 0x0 REVERT JUMPDEST PUSH1 0x0 DUP4 PUSH1 0x4 ADD PUSH1 0x0 SWAP1 SLOAD SWAP1 PUSH2 0x100 EXP SWAP1 DIV PUSH20 0xFFFFFFFFFFFFFFFFFFFFFFFFFFFFFFFFFFFFFFFF AND PUSH20 0xFFFFFFFFFFFFFFFFFFFFFFFFFFFFFFFFFFFFFFFF AND EQ ISZERO DUP1 ISZERO PUSH2 0x17DE JUMPI POP CALLER PUSH20 0xFFFFFFFFFFFFFFFFFFFFFFFFFFFFFFFFFFFFFFFF AND DUP4 PUSH1 0x4 ADD PUSH1 0x0 SWAP1 SLOAD SWAP1 PUSH2 0x100 EXP SWAP1 DIV PUSH20 0xFFFFFFFFFFFFFFFFFFFFFFFFFFFFFFFFFFFFFFFF AND PUSH20 0xFFFFFFFFFFFFFFFFFFFFFFFFFFFFFFFFFFFFFFFF AND EQ ISZERO JUMPDEST ISZERO PUSH2 0x17E9 JUMPI PUSH1 0x0 PUSH1 0x0 REVERT JUMPDEST DUP3 PUSH1 0x3 ADD SLOAD CALLVALUE LT ISZERO PUSH2 0x17FB JUMPI PUSH1 0x0 PUSH1 0x0 REVERT JUMPDEST PUSH1 0xA PUSH1 0x0 DUP6 DUP2 MSTORE PUSH1 0x20 ADD SWAP1 DUP2 MSTORE PUSH1 0x20 ADD PUSH1 0x0 SHA3 PUSH1 0x0 SWAP1 SLOAD SWAP1 PUSH2 0x100 EXP SWAP1 DIV PUSH20 0xFFFFFFFFFFFFFFFFFFFFFFFFFFFFFFFFFFFFFFFF AND PUSH20 0xFFFFFFFFFFFFFFFFFFFFFFFFFFFFFFFFFFFFFFFF AND DUP4 PUSH1 0x2 ADD PUSH1 0x0 SWAP1 SLOAD SWAP1 PUSH2 0x100 EXP SWAP1 DIV PUSH20 0xFFFFFFFFFFFFFFFFFFFFFFFFFFFFFFFFFFFFFFFF AND PUSH20 0xFFFFFFFFFFFFFFFFFFFFFFFFFFFFFFFFFFFFFFFF AND EQ ISZERO ISZERO PUSH2 0x188D JUMPI PUSH1 0x0 PUSH1 0x0 REVERT JUMPDEST DUP3 PUSH1 0x2 ADD PUSH1 0x0 SWAP1 SLOAD SWAP1 PUSH2 0x100 EXP SWAP1 DIV PUSH20 0xFFFFFFFFFFFFFFFFFFFFFFFFFFFFFFFFFFFFFFFF AND SWAP2 POP CALLER PUSH1 0xA PUSH1 0x0 DUP7 DUP2 MSTORE PUSH1 0x20 ADD SWAP1 DUP2 MSTORE PUSH1 0x20 ADD PUSH1 0x0 SHA3 PUSH1 0x0 PUSH2 0x100 EXP DUP2 SLOAD DUP2 PUSH20 0xFFFFFFFFFFFFFFFFFFFFFFFFFFFFFFFFFFFFFFFF MUL NOT AND SWAP1 DUP4 PUSH20 0xFFFFFFFFFFFFFFFFFFFFFFFFFFFFFFFFFFFFFFFF AND MUL OR SWAP1 SSTORE POP PUSH1 0xB PUSH1 0x0 DUP4 PUSH20 0xFFFFFFFFFFFFFFFFFFFFFFFFFFFFFFFFFFFFFFFF AND PUSH20 0xFFFFFFFFFFFFFFFFFFFFFFFFFFFFFFFFFFFFFFFF AND DUP2 MSTORE PUSH1 0x20 ADD SWAP1 DUP2 MSTORE PUSH1 0x20 ADD PUSH1 0x0 SHA3 PUSH1 0x0 DUP2 SLOAD DUP1 SWAP3 SWAP2 SWAP1 PUSH1 0x1 SWAP1 SUB SWAP2 SWAP1 POP SSTORE POP PUSH1 0xB PUSH1 0x0 CALLER PUSH20 0xFFFFFFFFFFFFFFFFFFFFFFFFFFFFFFFFFFFFFFFF AND PUSH20 0xFFFFFFFFFFFFFFFFFFFFFFFFFFFFFFFFFFFFFFFF AND DUP2 MSTORE PUSH1 0x20 ADD SWAP1 DUP2 MSTORE PUSH1 0x20 ADD PUSH1 0x0 SHA3 PUSH1 0x0 DUP2 SLOAD DUP1 SWAP3 SWAP2 SWAP1 PUSH1 0x1 ADD SWAP2 SWAP1 POP SSTORE POP CALLER PUSH20 0xFFFFFFFFFFFFFFFFFFFFFFFFFFFFFFFFFFFFFFFF AND DUP3 PUSH20 0xFFFFFFFFFFFFFFFFFFFFFFFFFFFFFFFFFFFFFFFF AND PUSH32 0xDDF252AD1BE2C89B69C2B068FC378DAA952BA7F163C4A11628F55A4DF523B3EF PUSH1 0x1 PUSH1 0x40 MLOAD DUP1 DUP3 DUP2 MSTORE PUSH1 0x20 ADD SWAP2 POP POP PUSH1 0x40 MLOAD DUP1 SWAP2 SUB SWAP1 LOG3 PUSH2 0x1A14 DUP5 PUSH2 0x2CA9 JUMP JUMPDEST CALLVALUE PUSH1 0xE PUSH1 0x0 DUP5 PUSH20 0xFFFFFFFFFFFFFFFFFFFFFFFFFFFFFFFFFFFFFFFF AND PUSH20 0xFFFFFFFFFFFFFFFFFFFFFFFFFFFFFFFFFFFFFFFF AND DUP2 MSTORE PUSH1 0x20 ADD SWAP1 DUP2 MSTORE PUSH1 0x20 ADD PUSH1 0x0 SHA3 PUSH1 0x0 DUP3 DUP3 SLOAD ADD SWAP3 POP POP DUP2 SWAP1 SSTORE POP CALLER PUSH20 0xFFFFFFFFFFFFFFFFFFFFFFFFFFFFFFFFFFFFFFFF AND DUP3 PUSH20 0xFFFFFFFFFFFFFFFFFFFFFFFFFFFFFFFFFFFFFFFF AND DUP6 PUSH32 0x58E5D5A525E3B40BC15ABAA38B5882678DB1EE68BEFD2F60BAFE3A7FD06DB9E3 CALLVALUE PUSH1 0x40 MLOAD DUP1 DUP3 DUP2 MSTORE PUSH1 0x20 ADD SWAP2 POP POP PUSH1 0x40 MLOAD DUP1 SWAP2 SUB SWAP1 LOG4 PUSH1 0xD PUSH1 0x0 DUP6 DUP2 MSTORE PUSH1 0x20 ADD SWAP1 DUP2 MSTORE PUSH1 0x20 ADD PUSH1 0x0 SHA3 SWAP1 POP CALLER PUSH20 0xFFFFFFFFFFFFFFFFFFFFFFFFFFFFFFFFFFFFFFFF AND DUP2 PUSH1 0x2 ADD PUSH1 0x0 SWAP1 SLOAD SWAP1 PUSH2 0x100 EXP SWAP1 DIV PUSH20 0xFFFFFFFFFFFFFFFFFFFFFFFFFFFFFFFFFFFFFFFF AND PUSH20 0xFFFFFFFFFFFFFFFFFFFFFFFFFFFFFFFFFFFFFFFF AND EQ ISZERO PUSH2 0x1C54 JUMPI DUP1 PUSH1 0x3 ADD SLOAD PUSH1 0xE PUSH1 0x0 CALLER PUSH20 0xFFFFFFFFFFFFFFFFFFFFFFFFFFFFFFFFFFFFFFFF AND PUSH20 0xFFFFFFFFFFFFFFFFFFFFFFFFFFFFFFFFFFFFFFFF AND DUP2 MSTORE PUSH1 0x20 ADD SWAP1 DUP2 MSTORE PUSH1 0x20 ADD PUSH1 0x0 SHA3 PUSH1 0x0 DUP3 DUP3 SLOAD ADD SWAP3 POP POP DUP2 SWAP1 SSTORE POP PUSH1 0x80 PUSH1 0x40 MLOAD SWAP1 DUP2 ADD PUSH1 0x40 MSTORE DUP1 PUSH1 0x0 ISZERO ISZERO DUP2 MSTORE PUSH1 0x20 ADD DUP6 DUP2 MSTORE PUSH1 0x20 ADD PUSH1 0x0 PUSH20 0xFFFFFFFFFFFFFFFFFFFFFFFFFFFFFFFFFFFFFFFF AND DUP2 MSTORE PUSH1 0x20 ADD PUSH1 0x0 DUP2 MSTORE POP PUSH1 0xD PUSH1 0x0 DUP7 DUP2 MSTORE PUSH1 0x20 ADD SWAP1 DUP2 MSTORE PUSH1 0x20 ADD PUSH1 0x0 SHA3 PUSH1 0x0 DUP3 ADD MLOAD DUP2 PUSH1 0x0 ADD PUSH1 0x0 PUSH2 0x100 EXP DUP2 SLOAD DUP2 PUSH1 0xFF MUL NOT AND SWAP1 DUP4 ISZERO ISZERO MUL OR SWAP1 SSTORE POP PUSH1 0x20 DUP3 ADD MLOAD DUP2 PUSH1 0x1 ADD SSTORE PUSH1 0x40 DUP3 ADD MLOAD DUP2 PUSH1 0x2 ADD PUSH1 0x0 PUSH2 0x100 EXP DUP2 SLOAD DUP2 PUSH20 0xFFFFFFFFFFFFFFFFFFFFFFFFFFFFFFFFFFFFFFFF MUL NOT AND SWAP1 DUP4 PUSH20 0xFFFFFFFFFFFFFFFFFFFFFFFFFFFFFFFFFFFFFFFF AND MUL OR SWAP1 SSTORE POP PUSH1 0x60 DUP3 ADD MLOAD DUP2 PUSH1 0x3 ADD SSTORE SWAP1 POP POP JUMPDEST JUMPDEST POP POP POP POP JUMP JUMPDEST PUSH1 0x0 PUSH1 0x8 PUSH1 0x0 SWAP1 SLOAD SWAP1 PUSH2 0x100 EXP SWAP1 DIV PUSH1 0xFF AND ISZERO ISZERO PUSH2 0x1C79 JUMPI PUSH1 0x0 PUSH1 0x0 REVERT JUMPDEST CALLER PUSH20 0xFFFFFFFFFFFFFFFFFFFFFFFFFFFFFFFFFFFFFFFF AND PUSH1 0xA PUSH1 0x0 DUP5 DUP2 MSTORE PUSH1 0x20 ADD SWAP1 DUP2 MSTORE PUSH1 0x20 ADD PUSH1 0x0 SHA3 PUSH1 0x0 SWAP1 SLOAD SWAP1 PUSH2 0x100 EXP SWAP1 DIV PUSH20 0xFFFFFFFFFFFFFFFFFFFFFFFFFFFFFFFFFFFFFFFF AND PUSH20 0xFFFFFFFFFFFFFFFFFFFFFFFFFFFFFFFFFFFFFFFF AND EQ ISZERO ISZERO PUSH2 0x1CE7 JUMPI PUSH1 0x0 PUSH1 0x0 REVERT JUMPDEST PUSH2 0x2710 DUP3 LT ISZERO ISZERO PUSH2 0x1CF8 JUMPI PUSH1 0x0 PUSH1 0x0 REVERT JUMPDEST PUSH1 0xC PUSH1 0x0 DUP4 DUP2 MSTORE PUSH1 0x20 ADD SWAP1 DUP2 MSTORE PUSH1 0x20 ADD PUSH1 0x0 SHA3 PUSH1 0x0 ADD PUSH1 0x0 SWAP1 SLOAD SWAP1 PUSH2 0x100 EXP SWAP1 DIV PUSH1 0xFF AND ISZERO PUSH2 0x1D2B JUMPI PUSH2 0x1D2A DUP3 PUSH2 0x2CA9 JUMP JUMPDEST JUMPDEST DUP3 PUSH1 0xA PUSH1 0x0 DUP5 DUP2 MSTORE PUSH1 0x20 ADD SWAP1 DUP2 MSTORE PUSH1 0x20 ADD PUSH1 0x0 SHA3 PUSH1 0x0 PUSH2 0x100 EXP DUP2 SLOAD DUP2 PUSH20 0xFFFFFFFFFFFFFFFFFFFFFFFFFFFFFFFFFFFFFFFF MUL NOT AND SWAP1 DUP4 PUSH20 0xFFFFFFFFFFFFFFFFFFFFFFFFFFFFFFFFFFFFFFFF AND MUL OR SWAP1 SSTORE POP PUSH1 0xB PUSH1 0x0 CALLER PUSH20 0xFFFFFFFFFFFFFFFFFFFFFFFFFFFFFFFFFFFFFFFF AND PUSH20 0xFFFFFFFFFFFFFFFFFFFFFFFFFFFFFFFFFFFFFFFF AND DUP2 MSTORE PUSH1 0x20 ADD SWAP1 DUP2 MSTORE PUSH1 0x20 ADD PUSH1 0x0 SHA3 PUSH1 0x0 DUP2 SLOAD DUP1 SWAP3 SWAP2 SWAP1 PUSH1 0x1 SWAP1 SUB SWAP2 SWAP1 POP SSTORE POP PUSH1 0xB PUSH1 0x0 DUP5 PUSH20 0xFFFFFFFFFFFFFFFFFFFFFFFFFFFFFFFFFFFFFFFF AND PUSH20 0xFFFFFFFFFFFFFFFFFFFFFFFFFFFFFFFFFFFFFFFF AND DUP2 MSTORE PUSH1 0x20 ADD SWAP1 DUP2 MSTORE PUSH1 0x20 ADD PUSH1 0x0 SHA3 PUSH1 0x0 DUP2 SLOAD DUP1 SWAP3 SWAP2 SWAP1 PUSH1 0x1 ADD SWAP2 SWAP1 POP SSTORE POP DUP3 PUSH20 0xFFFFFFFFFFFFFFFFFFFFFFFFFFFFFFFFFFFFFFFF AND CALLER PUSH20 0xFFFFFFFFFFFFFFFFFFFFFFFFFFFFFFFFFFFFFFFF AND PUSH32 0xDDF252AD1BE2C89B69C2B068FC378DAA952BA7F163C4A11628F55A4DF523B3EF PUSH1 0x1 PUSH1 0x40 MLOAD DUP1 DUP3 DUP2 MSTORE PUSH1 0x20 ADD SWAP2 POP POP PUSH1 0x40 MLOAD DUP1 SWAP2 SUB SWAP1 LOG3 DUP3 PUSH20 0xFFFFFFFFFFFFFFFFFFFFFFFFFFFFFFFFFFFFFFFF AND CALLER PUSH20 0xFFFFFFFFFFFFFFFFFFFFFFFFFFFFFFFFFFFFFFFF AND PUSH32 0x5AF636B70DA6819000C49F85B21FA82081C632069BB626F30932034099107D8 DUP5 PUSH1 0x40 MLOAD DUP1 DUP3 DUP2 MSTORE PUSH1 0x20 ADD SWAP2 POP POP PUSH1 0x40 MLOAD DUP1 SWAP2 SUB SWAP1 LOG3 PUSH1 0xD PUSH1 0x0 DUP4 DUP2 MSTORE PUSH1 0x20 ADD SWAP1 DUP2 MSTORE PUSH1 0x20 ADD PUSH1 0x0 SHA3 SWAP1 POP DUP3 PUSH20 0xFFFFFFFFFFFFFFFFFFFFFFFFFFFFFFFFFFFFFFFF AND DUP2 PUSH1 0x2 ADD PUSH1 0x0 SWAP1 SLOAD SWAP1 PUSH2 0x100 EXP SWAP1 DIV PUSH20 0xFFFFFFFFFFFFFFFFFFFFFFFFFFFFFFFFFFFFFFFF AND PUSH20 0xFFFFFFFFFFFFFFFFFFFFFFFFFFFFFFFFFFFFFFFF AND EQ ISZERO PUSH2 0x2074 JUMPI DUP1 PUSH1 0x3 ADD SLOAD PUSH1 0xE PUSH1 0x0 DUP6 PUSH20 0xFFFFFFFFFFFFFFFFFFFFFFFFFFFFFFFFFFFFFFFF AND PUSH20 0xFFFFFFFFFFFFFFFFFFFFFFFFFFFFFFFFFFFFFFFF AND DUP2 MSTORE PUSH1 0x20 ADD SWAP1 DUP2 MSTORE PUSH1 0x20 ADD PUSH1 0x0 SHA3 PUSH1 0x0 DUP3 DUP3 SLOAD ADD SWAP3 POP POP DUP2 SWAP1 SSTORE POP PUSH1 0x80 PUSH1 0x40 MLOAD SWAP1 DUP2 ADD PUSH1 0x40 MSTORE DUP1 PUSH1 0x0 ISZERO ISZERO DUP2 MSTORE PUSH1 0x20 ADD DUP4 DUP2 MSTORE PUSH1 0x20 ADD PUSH1 0x0 PUSH20 0xFFFFFFFFFFFFFFFFFFFFFFFFFFFFFFFFFFFFFFFF AND DUP2 MSTORE PUSH1 0x20 ADD PUSH1 0x0 DUP2 MSTORE POP PUSH1 0xD PUSH1 0x0 DUP5 DUP2 MSTORE PUSH1 0x20 ADD SWAP1 DUP2 MSTORE PUSH1 0x20 ADD PUSH1 0x0 SHA3 PUSH1 0x0 DUP3 ADD MLOAD DUP2 PUSH1 0x0 ADD PUSH1 0x0 PUSH2 0x100 EXP DUP2 SLOAD DUP2 PUSH1 0xFF MUL NOT AND SWAP1 DUP4 ISZERO ISZERO MUL OR SWAP1 SSTORE POP PUSH1 0x20 DUP3 ADD MLOAD DUP2 PUSH1 0x1 ADD SSTORE PUSH1 0x40 DUP3 ADD MLOAD DUP2 PUSH1 0x2 ADD PUSH1 0x0 PUSH2 0x100 EXP DUP2 SLOAD DUP2 PUSH20 0xFFFFFFFFFFFFFFFFFFFFFFFFFFFFFFFFFFFFFFFF MUL NOT AND SWAP1 DUP4 PUSH20 0xFFFFFFFFFFFFFFFFFFFFFFFFFFFFFFFFFFFFFFFF AND MUL OR SWAP1 SSTORE POP PUSH1 0x60 DUP3 ADD MLOAD DUP2 PUSH1 0x3 ADD SSTORE SWAP1 POP POP JUMPDEST JUMPDEST POP POP POP JUMP JUMPDEST PUSH1 0x4 DUP1 SLOAD PUSH1 0x1 DUP2 PUSH1 0x1 AND ISZERO PUSH2 0x100 MUL SUB AND PUSH1 0x2 SWAP1 DIV DUP1 PUSH1 0x1F ADD PUSH1 0x20 DUP1 SWAP2 DIV MUL PUSH1 0x20 ADD PUSH1 0x40 MLOAD SWAP1 DUP2 ADD PUSH1 0x40 MSTORE DUP1 SWAP3 SWAP2 SWAP1 DUP2 DUP2 MSTORE PUSH1 0x20 ADD DUP3 DUP1 SLOAD PUSH1 0x1 DUP2 PUSH1 0x1 AND ISZERO PUSH2 0x100 MUL SUB AND PUSH1 0x2 SWAP1 DIV DUP1 ISZERO PUSH2 0x2110 JUMPI DUP1 PUSH1 0x1F LT PUSH2 0x20E5 JUMPI PUSH2 0x100 DUP1 DUP4 SLOAD DIV MUL DUP4 MSTORE SWAP2 PUSH1 0x20 ADD SWAP2 PUSH2 0x2110 JUMP JUMPDEST DUP3 ADD SWAP2 SWAP1 PUSH1 0x0 MSTORE PUSH1 0x20 PUSH1 0x0 SHA3 SWAP1 JUMPDEST DUP2 SLOAD DUP2 MSTORE SWAP1 PUSH1 0x1 ADD SWAP1 PUSH1 0x20 ADD DUP1 DUP4 GT PUSH2 0x20F3 JUMPI DUP3 SWAP1 SUB PUSH1 0x1F AND DUP3 ADD SWAP2 JUMPDEST POP POP POP POP POP DUP2 JUMP JUMPDEST PUSH1 0x0 PUSH1 0x0 PUSH2 0x2710 DUP4 LT ISZERO ISZERO PUSH2 0x212D JUMPI PUSH1 0x0 PUSH1 0x0 REVERT JUMPDEST PUSH1 0x8 PUSH1 0x0 SWAP1 SLOAD SWAP1 PUSH2 0x100 EXP SWAP1 DIV PUSH1 0xFF AND ISZERO ISZERO PUSH2 0x2149 JUMPI PUSH1 0x0 PUSH1 0x0 REVERT JUMPDEST PUSH1 0x0 PUSH1 0xA PUSH1 0x0 DUP6 DUP2 MSTORE PUSH1 0x20 ADD SWAP1 DUP2 MSTORE PUSH1 0x20 ADD PUSH1 0x0 SHA3 PUSH1 0x0 SWAP1 SLOAD SWAP1 PUSH2 0x100 EXP SWAP1 DIV PUSH20 0xFFFFFFFFFFFFFFFFFFFFFFFFFFFFFFFFFFFFFFFF AND PUSH20 0xFFFFFFFFFFFFFFFFFFFFFFFFFFFFFFFFFFFFFFFF AND EQ ISZERO PUSH2 0x21A1 JUMPI PUSH1 0x0 PUSH1 0x0 REVERT JUMPDEST CALLER PUSH20 0xFFFFFFFFFFFFFFFFFFFFFFFFFFFFFFFFFFFFFFFF AND PUSH1 0xA PUSH1 0x0 DUP6 DUP2 MSTORE PUSH1 0x20 ADD SWAP1 DUP2 MSTORE PUSH1 0x20 ADD PUSH1 0x0 SHA3 PUSH1 0x0 SWAP1 SLOAD SWAP1 PUSH2 0x100 EXP SWAP1 DIV PUSH20 0xFFFFFFFFFFFFFFFFFFFFFFFFFFFFFFFFFFFFFFFF AND PUSH20 0xFFFFFFFFFFFFFFFFFFFFFFFFFFFFFFFFFFFFFFFF AND EQ ISZERO PUSH2 0x220E JUMPI PUSH1 0x0 PUSH1 0x0 REVERT JUMPDEST PUSH1 0xD PUSH1 0x0 DUP5 DUP2 MSTORE PUSH1 0x20 ADD SWAP1 DUP2 MSTORE PUSH1 0x20 ADD PUSH1 0x0 SHA3 SWAP2 POP CALLER PUSH20 0xFFFFFFFFFFFFFFFFFFFFFFFFFFFFFFFFFFFFFFFF AND DUP3 PUSH1 0x2 ADD PUSH1 0x0 SWAP1 SLOAD SWAP1 PUSH2 0x100 EXP SWAP1 DIV PUSH20 0xFFFFFFFFFFFFFFFFFFFFFFFFFFFFFFFFFFFFFFFF AND PUSH20 0xFFFFFFFFFFFFFFFFFFFFFFFFFFFFFFFFFFFFFFFF AND EQ ISZERO ISZERO PUSH2 0x2282 JUMPI PUSH1 0x0 PUSH1 0x0 REVERT JUMPDEST CALLER PUSH20 0xFFFFFFFFFFFFFFFFFFFFFFFFFFFFFFFFFFFFFFFF AND DUP4 PUSH32 0x6F30E1EE4D81DCC7A8A478577F65D2ED2EDB120565960AC45FE7C50551C87932 DUP5 PUSH1 0x3 ADD SLOAD PUSH1 0x40 MLOAD DUP1 DUP3 DUP2 MSTORE PUSH1 0x20 ADD SWAP2 POP POP PUSH1 0x40 MLOAD DUP1 SWAP2 SUB SWAP1 LOG3 DUP2 PUSH1 0x3 ADD SLOAD SWAP1 POP PUSH1 0x80 PUSH1 0x40 MLOAD SWAP1 DUP2 ADD PUSH1 0x40 MSTORE DUP1 PUSH1 0x0 ISZERO ISZERO DUP2 MSTORE PUSH1 0x20 ADD DUP5 DUP2 MSTORE PUSH1 0x20 ADD PUSH1 0x0 PUSH20 0xFFFFFFFFFFFFFFFFFFFFFFFFFFFFFFFFFFFFFFFF AND DUP2 MSTORE PUSH1 0x20 ADD PUSH1 0x0 DUP2 MSTORE POP PUSH1 0xD PUSH1 0x0 DUP6 DUP2 MSTORE PUSH1 0x20 ADD SWAP1 DUP2 MSTORE PUSH1 0x20 ADD PUSH1 0x0 SHA3 PUSH1 0x0 DUP3 ADD MLOAD DUP2 PUSH1 0x0 ADD PUSH1 0x0 PUSH2 0x100 EXP DUP2 SLOAD DUP2 PUSH1 0xFF MUL NOT AND SWAP1 DUP4 ISZERO ISZERO MUL OR SWAP1 SSTORE POP PUSH1 0x20 DUP3 ADD MLOAD DUP2 PUSH1 0x1 ADD SSTORE PUSH1 0x40 DUP3 ADD MLOAD DUP2 PUSH1 0x2 ADD PUSH1 0x0 PUSH2 0x100 EXP DUP2 SLOAD DUP2 PUSH20 0xFFFFFFFFFFFFFFFFFFFFFFFFFFFFFFFFFFFFFFFF MUL NOT AND SWAP1 DUP4 PUSH20 0xFFFFFFFFFFFFFFFFFFFFFFFFFFFFFFFFFFFFFFFF AND MUL OR SWAP1 SSTORE POP PUSH1 0x60 DUP3 ADD MLOAD DUP2 PUSH1 0x3 ADD SSTORE SWAP1 POP POP CALLER PUSH20 0xFFFFFFFFFFFFFFFFFFFFFFFFFFFFFFFFFFFFFFFF AND PUSH2 0x8FC DUP3 SWAP1 DUP2 ISZERO MUL SWAP1 PUSH1 0x40 MLOAD DUP1 SWAP1 POP PUSH1 0x0 PUSH1 0x40 MLOAD DUP1 DUP4 SUB DUP2 DUP6 DUP9 DUP9 CALL SWAP4 POP POP POP POP ISZERO ISZERO PUSH2 0x23EA JUMPI INVALID JUMPDEST JUMPDEST POP POP POP JUMP JUMPDEST PUSH1 0x1 PUSH1 0x0 SWAP1 SLOAD SWAP1 PUSH2 0x100 EXP SWAP1 DIV PUSH20 0xFFFFFFFFFFFFFFFFFFFFFFFFFFFFFFFFFFFFFFFF AND PUSH20 0xFFFFFFFFFFFFFFFFFFFFFFFFFFFFFFFFFFFFFFFF AND CALLER PUSH20 0xFFFFFFFFFFFFFFFFFFFFFFFFFFFFFFFFFFFFFFFF AND EQ ISZERO ISZERO PUSH2 0x244D JUMPI PUSH1 0x0 PUSH1 0x0 REVERT JUMPDEST PUSH1 0x8 PUSH1 0x0 SWAP1 SLOAD SWAP1 PUSH2 0x100 EXP SWAP1 DIV PUSH1 0xFF AND ISZERO PUSH2 0x2468 JUMPI PUSH1 0x0 PUSH1 0x0 REVERT JUMPDEST PUSH2 0x2710 DUP2 LT ISZERO ISZERO PUSH2 0x2479 JUMPI PUSH1 0x0 PUSH1 0x0 REVERT JUMPDEST DUP2 PUSH20 0xFFFFFFFFFFFFFFFFFFFFFFFFFFFFFFFFFFFFFFFF AND PUSH1 0xA PUSH1 0x0 DUP4 DUP2 MSTORE PUSH1 0x20 ADD SWAP1 DUP2 MSTORE PUSH1 0x20 ADD PUSH1 0x0 SHA3 PUSH1 0x0 SWAP1 SLOAD SWAP1 PUSH2 0x100 EXP SWAP1 DIV PUSH20 0xFFFFFFFFFFFFFFFFFFFFFFFFFFFFFFFFFFFFFFFF AND PUSH20 0xFFFFFFFFFFFFFFFFFFFFFFFFFFFFFFFFFFFFFFFF AND EQ ISZERO ISZERO PUSH2 0x26C0 JUMPI PUSH1 0x0 PUSH1 0xA PUSH1 0x0 DUP4 DUP2 MSTORE PUSH1 0x20 ADD SWAP1 DUP2 MSTORE PUSH1 0x20 ADD PUSH1 0x0 SHA3 PUSH1 0x0 SWAP1 SLOAD SWAP1 PUSH2 0x100 EXP SWAP1 DIV PUSH20 0xFFFFFFFFFFFFFFFFFFFFFFFFFFFFFFFFFFFFFFFF AND PUSH20 0xFFFFFFFFFFFFFFFFFFFFFFFFFFFFFFFFFFFFFFFF AND EQ ISZERO ISZERO PUSH2 0x25BC JUMPI PUSH1 0xB PUSH1 0x0 PUSH1 0xA PUSH1 0x0 DUP5 DUP2 MSTORE PUSH1 0x20 ADD SWAP1 DUP2 MSTORE PUSH1 0x20 ADD PUSH1 0x0 SHA3 PUSH1 0x0 SWAP1 SLOAD SWAP1 PUSH2 0x100 EXP SWAP1 DIV PUSH20 0xFFFFFFFFFFFFFFFFFFFFFFFFFFFFFFFFFFFFFFFF AND PUSH20 0xFFFFFFFFFFFFFFFFFFFFFFFFFFFFFFFFFFFFFFFF AND PUSH20 0xFFFFFFFFFFFFFFFFFFFFFFFFFFFFFFFFFFFFFFFF AND DUP2 MSTORE PUSH1 0x20 ADD SWAP1 DUP2 MSTORE PUSH1 0x20 ADD PUSH1 0x0 SHA3 PUSH1 0x0 DUP2 SLOAD DUP1 SWAP3 SWAP2 SWAP1 PUSH1 0x1 SWAP1 SUB SWAP2 SWAP1 POP SSTORE POP PUSH2 0x25D0 JUMP JUMPDEST PUSH1 0x9 PUSH1 0x0 DUP2 SLOAD DUP1 SWAP3 SWAP2 SWAP1 PUSH1 0x1 SWAP1 SUB SWAP2 SWAP1 POP SSTORE POP JUMPDEST DUP2 PUSH1 0xA PUSH1 0x0 DUP4 DUP2 MSTORE PUSH1 0x20 ADD SWAP1 DUP2 MSTORE PUSH1 0x20 ADD PUSH1 0x0 SHA3 PUSH1 0x0 PUSH2 0x100 EXP DUP2 SLOAD DUP2 PUSH20 0xFFFFFFFFFFFFFFFFFFFFFFFFFFFFFFFFFFFFFFFF MUL NOT AND SWAP1 DUP4 PUSH20 0xFFFFFFFFFFFFFFFFFFFFFFFFFFFFFFFFFFFFFFFF AND MUL OR SWAP1 SSTORE POP PUSH1 0xB PUSH1 0x0 DUP4 PUSH20 0xFFFFFFFFFFFFFFFFFFFFFFFFFFFFFFFFFFFFFFFF AND PUSH20 0xFFFFFFFFFFFFFFFFFFFFFFFFFFFFFFFFFFFFFFFF AND DUP2 MSTORE PUSH1 0x20 ADD SWAP1 DUP2 MSTORE PUSH1 0x20 ADD PUSH1 0x0 SHA3 PUSH1 0x0 DUP2 SLOAD DUP1 SWAP3 SWAP2 SWAP1 PUSH1 0x1 ADD SWAP2 SWAP1 POP SSTORE POP DUP2 PUSH20 0xFFFFFFFFFFFFFFFFFFFFFFFFFFFFFFFFFFFFFFFF AND PUSH32 0x8A0E37B73A0D9C82E205D4D1A3FF3D0B57CE5F4D7BCCF6BAC03336DC101CB7BA DUP3 PUSH1 0x40 MLOAD DUP1 DUP3 DUP2 MSTORE PUSH1 0x20 ADD SWAP2 POP POP PUSH1 0x40 MLOAD DUP1 SWAP2 SUB SWAP1 LOG2 JUMPDEST JUMPDEST POP POP JUMP JUMPDEST PUSH1 0x8 PUSH1 0x0 SWAP1 SLOAD SWAP1 PUSH2 0x100 EXP SWAP1 DIV PUSH1 0xFF AND ISZERO ISZERO PUSH2 0x26E1 JUMPI PUSH1 0x0 PUSH1 0x0 REVERT JUMPDEST CALLER PUSH20 0xFFFFFFFFFFFFFFFFFFFFFFFFFFFFFFFFFFFFFFFF AND PUSH1 0xA PUSH1 0x0 DUP6 DUP2 MSTORE PUSH1 0x20 ADD SWAP1 DUP2 MSTORE PUSH1 0x20 ADD PUSH1 0x0 SHA3 PUSH1 0x0 SWAP1 SLOAD SWAP1 PUSH2 0x100 EXP SWAP1 DIV PUSH20 0xFFFFFFFFFFFFFFFFFFFFFFFFFFFFFFFFFFFFFFFF AND PUSH20 0xFFFFFFFFFFFFFFFFFFFFFFFFFFFFFFFFFFFFFFFF AND EQ ISZERO ISZERO PUSH2 0x274F JUMPI PUSH1 0x0 PUSH1 0x0 REVERT JUMPDEST PUSH2 0x2710 DUP4 LT ISZERO ISZERO PUSH2 0x2760 JUMPI PUSH1 0x0 PUSH1 0x0 REVERT JUMPDEST PUSH1 0xA0 PUSH1 0x40 MLOAD SWAP1 DUP2 ADD PUSH1 0x40 MSTORE DUP1 PUSH1 0x1 ISZERO ISZERO DUP2 MSTORE PUSH1 0x20 ADD DUP5 DUP2 MSTORE PUSH1 0x20 ADD CALLER PUSH20 0xFFFFFFFFFFFFFFFFFFFFFFFFFFFFFFFFFFFFFFFF AND DUP2 MSTORE PUSH1 0x20 ADD DUP4 DUP2 MSTORE PUSH1 0x20 ADD DUP3 PUSH20 0xFFFFFFFFFFFFFFFFFFFFFFFFFFFFFFFFFFFFFFFF AND DUP2 MSTORE POP PUSH1 0xC PUSH1 0x0 DUP6 DUP2 MSTORE PUSH1 0x20 ADD SWAP1 DUP2 MSTORE PUSH1 0x20 ADD PUSH1 0x0 SHA3 PUSH1 0x0 DUP3 ADD MLOAD DUP2 PUSH1 0x0 ADD PUSH1 0x0 PUSH2 0x100 EXP DUP2 SLOAD DUP2 PUSH1 0xFF MUL NOT AND SWAP1 DUP4 ISZERO ISZERO MUL OR SWAP1 SSTORE POP PUSH1 0x20 DUP3 ADD MLOAD DUP2 PUSH1 0x1 ADD SSTORE PUSH1 0x40 DUP3 ADD MLOAD DUP2 PUSH1 0x2 ADD PUSH1 0x0 PUSH2 0x100 EXP DUP2 SLOAD DUP2 PUSH20 0xFFFFFFFFFFFFFFFFFFFFFFFFFFFFFFFFFFFFFFFF MUL NOT AND SWAP1 DUP4 PUSH20 0xFFFFFFFFFFFFFFFFFFFFFFFFFFFFFFFFFFFFFFFF AND MUL OR SWAP1 SSTORE POP PUSH1 0x60 DUP3 ADD MLOAD DUP2 PUSH1 0x3 ADD SSTORE PUSH1 0x80 DUP3 ADD MLOAD DUP2 PUSH1 0x4 ADD PUSH1 0x0 PUSH2 0x100 EXP DUP2 SLOAD DUP2 PUSH20 0xFFFFFFFFFFFFFFFFFFFFFFFFFFFFFFFFFFFFFFFF MUL NOT AND SWAP1 DUP4 PUSH20 0xFFFFFFFFFFFFFFFFFFFFFFFFFFFFFFFFFFFFFFFF AND MUL OR SWAP1 SSTORE POP SWAP1 POP POP DUP1 PUSH20 0xFFFFFFFFFFFFFFFFFFFFFFFFFFFFFFFFFFFFFFFF AND DUP4 PUSH32 0x3C7B682D5DA98001A9B8CBDA6C647D2C63D698A4184FD1D55E2CE7B66F5D21EB DUP5 PUSH1 0x40 MLOAD DUP1 DUP3 DUP2 MSTORE PUSH1 0x20 ADD SWAP2 POP POP PUSH1 0x40 MLOAD DUP1 SWAP2 SUB SWAP1 LOG3 JUMPDEST POP POP POP JUMP JUMPDEST PUSH1 0x9 SLOAD DUP2 JUMP JUMPDEST PUSH1 0x8 PUSH1 0x0 SWAP1 SLOAD SWAP1 PUSH2 0x100 EXP SWAP1 DIV PUSH1 0xFF AND ISZERO ISZERO PUSH2 0x2906 JUMPI PUSH1 0x0 PUSH1 0x0 REVERT JUMPDEST CALLER PUSH20 0xFFFFFFFFFFFFFFFFFFFFFFFFFFFFFFFFFFFFFFFF AND PUSH1 0xA PUSH1 0x0 DUP5 DUP2 MSTORE PUSH1 0x20 ADD SWAP1 DUP2 MSTORE PUSH1 0x20 ADD PUSH1 0x0 SHA3 PUSH1 0x0 SWAP1 SLOAD SWAP1 PUSH2 0x100 EXP SWAP1 DIV PUSH20 0xFFFFFFFFFFFFFFFFFFFFFFFFFFFFFFFFFFFFFFFF AND PUSH20 0xFFFFFFFFFFFFFFFFFFFFFFFFFFFFFFFFFFFFFFFF AND EQ ISZERO ISZERO PUSH2 0x2974 JUMPI PUSH1 0x0 PUSH1 0x0 REVERT JUMPDEST PUSH2 0x2710 DUP3 LT ISZERO ISZERO PUSH2 0x2985 JUMPI PUSH1 0x0 PUSH1 0x0 REVERT JUMPDEST PUSH1 0xA0 PUSH1 0x40 MLOAD SWAP1 DUP2 ADD PUSH1 0x40 MSTORE DUP1 PUSH1 0x1 ISZERO ISZERO DUP2 MSTORE PUSH1 0x20 ADD DUP4 DUP2 MSTORE PUSH1 0x20 ADD CALLER PUSH20 0xFFFFFFFFFFFFFFFFFFFFFFFFFFFFFFFFFFFFFFFF AND DUP2 MSTORE PUSH1 0x20 ADD DUP3 DUP2 MSTORE PUSH1 0x20 ADD PUSH1 0x0 PUSH20 0xFFFFFFFFFFFFFFFFFFFFFFFFFFFFFFFFFFFFFFFF AND DUP2 MSTORE POP PUSH1 0xC PUSH1 0x0 DUP5 DUP2 MSTORE PUSH1 0x20 ADD SWAP1 DUP2 MSTORE PUSH1 0x20 ADD PUSH1 0x0 SHA3 PUSH1 0x0 DUP3 ADD MLOAD DUP2 PUSH1 0x0 ADD PUSH1 0x0 PUSH2 0x100 EXP DUP2 SLOAD DUP2 PUSH1 0xFF MUL NOT AND SWAP1 DUP4 ISZERO ISZERO MUL OR SWAP1 SSTORE POP PUSH1 0x20 DUP3 ADD MLOAD DUP2 PUSH1 0x1 ADD SSTORE PUSH1 0x40 DUP3 ADD MLOAD DUP2 PUSH1 0x2 ADD PUSH1 0x0 PUSH2 0x100 EXP DUP2 SLOAD DUP2 PUSH20 0xFFFFFFFFFFFFFFFFFFFFFFFFFFFFFFFFFFFFFFFF MUL NOT AND SWAP1 DUP4 PUSH20 0xFFFFFFFFFFFFFFFFFFFFFFFFFFFFFFFFFFFFFFFF AND MUL OR SWAP1 SSTORE POP PUSH1 0x60 DUP3 ADD MLOAD DUP2 PUSH1 0x3 ADD SSTORE PUSH1 0x80 DUP3 ADD MLOAD DUP2 PUSH1 0x4 ADD PUSH1 0x0 PUSH2 0x100 EXP DUP2 SLOAD DUP2 PUSH20 0xFFFFFFFFFFFFFFFFFFFFFFFFFFFFFFFFFFFFFFFF MUL NOT AND SWAP1 DUP4 PUSH20 0xFFFFFFFFFFFFFFFFFFFFFFFFFFFFFFFFFFFFFFFF AND MUL OR SWAP1 SSTORE POP SWAP1 POP POP PUSH1 0x0 DUP3 PUSH32 0x3C7B682D5DA98001A9B8CBDA6C647D2C63D698A4184FD1D55E2CE7B66F5D21EB DUP4 PUSH1 0x40 MLOAD DUP1 DUP3 DUP2 MSTORE PUSH1 0x20 ADD SWAP2 POP POP PUSH1 0x40 MLOAD DUP1 SWAP2 SUB SWAP1 LOG3 JUMPDEST POP POP JUMP JUMPDEST PUSH1 0x8 PUSH1 0x0 SWAP1 SLOAD SWAP1 PUSH2 0x100 EXP SWAP1 DIV PUSH1 0xFF AND ISZERO ISZERO PUSH2 0x2B10 JUMPI PUSH1 0x0 PUSH1 0x0 REVERT JUMPDEST PUSH1 0x0 PUSH1 0x9 SLOAD EQ ISZERO PUSH2 0x2B21 JUMPI PUSH1 0x0 PUSH1 0x0 REVERT JUMPDEST PUSH1 0x0 PUSH1 0xA PUSH1 0x0 DUP4 DUP2 MSTORE PUSH1 0x20 ADD SWAP1 DUP2 MSTORE PUSH1 0x20 ADD PUSH1 0x0 SHA3 PUSH1 0x0 SWAP1 SLOAD SWAP1 PUSH2 0x100 EXP SWAP1 DIV PUSH20 0xFFFFFFFFFFFFFFFFFFFFFFFFFFFFFFFFFFFFFFFF AND PUSH20 0xFFFFFFFFFFFFFFFFFFFFFFFFFFFFFFFFFFFFFFFF AND EQ ISZERO ISZERO PUSH2 0x2B7A JUMPI PUSH1 0x0 PUSH1 0x0 REVERT JUMPDEST PUSH2 0x2710 DUP2 LT ISZERO ISZERO PUSH2 0x2B8B JUMPI PUSH1 0x0 PUSH1 0x0 REVERT JUMPDEST CALLER PUSH1 0xA PUSH1 0x0 DUP4 DUP2 MSTORE PUSH1 0x20 ADD SWAP1 DUP2 MSTORE PUSH1 0x20 ADD PUSH1 0x0 SHA3 PUSH1 0x0 PUSH2 0x100 EXP DUP2 SLOAD DUP2 PUSH20 0xFFFFFFFFFFFFFFFFFFFFFFFFFFFFFFFFFFFFFFFF MUL NOT AND SWAP1 DUP4 PUSH20 0xFFFFFFFFFFFFFFFFFFFFFFFFFFFFFFFFFFFFFFFF AND MUL OR SWAP1 SSTORE POP PUSH1 0xB PUSH1 0x0 CALLER PUSH20 0xFFFFFFFFFFFFFFFFFFFFFFFFFFFFFFFFFFFFFFFF AND PUSH20 0xFFFFFFFFFFFFFFFFFFFFFFFFFFFFFFFFFFFFFFFF AND DUP2 MSTORE PUSH1 0x20 ADD SWAP1 DUP2 MSTORE PUSH1 0x20 ADD PUSH1 0x0 SHA3 PUSH1 0x0 DUP2 SLOAD DUP1 SWAP3 SWAP2 SWAP1 PUSH1 0x1 ADD SWAP2 SWAP1 POP SSTORE POP PUSH1 0x9 PUSH1 0x0 DUP2 SLOAD DUP1 SWAP3 SWAP2 SWAP1 PUSH1 0x1 SWAP1 SUB SWAP2 SWAP1 POP SSTORE POP CALLER PUSH20 0xFFFFFFFFFFFFFFFFFFFFFFFFFFFFFFFFFFFFFFFF AND PUSH32 0x8A0E37B73A0D9C82E205D4D1A3FF3D0B57CE5F4D7BCCF6BAC03336DC101CB7BA DUP3 PUSH1 0x40 MLOAD DUP1 DUP3 DUP2 MSTORE PUSH1 0x20 ADD SWAP2 POP POP PUSH1 0x40 MLOAD DUP1 SWAP2 SUB SWAP1 LOG2 JUMPDEST POP JUMP JUMPDEST PUSH1 0xE PUSH1 0x20 MSTORE DUP1 PUSH1 0x0 MSTORE PUSH1 0x40 PUSH1 0x0 SHA3 PUSH1 0x0 SWAP2 POP SWAP1 POP SLOAD DUP2 JUMP JUMPDEST PUSH1 0x8 PUSH1 0x0 SWAP1 SLOAD SWAP1 PUSH2 0x100 EXP SWAP1 DIV PUSH1 0xFF AND ISZERO ISZERO PUSH2 0x2CC5 JUMPI PUSH1 0x0 PUSH1 0x0 REVERT JUMPDEST CALLER PUSH20 0xFFFFFFFFFFFFFFFFFFFFFFFFFFFFFFFFFFFFFFFF AND PUSH1 0xA PUSH1 0x0 DUP4 DUP2 MSTORE PUSH1 0x20 ADD SWAP1 DUP2 MSTORE PUSH1 0x20 ADD PUSH1 0x0 SHA3 PUSH1 0x0 SWAP1 SLOAD SWAP1 PUSH2 0x100 EXP SWAP1 DIV PUSH20 0xFFFFFFFFFFFFFFFFFFFFFFFFFFFFFFFFFFFFFFFF AND PUSH20 0xFFFFFFFFFFFFFFFFFFFFFFFFFFFFFFFFFFFFFFFF AND EQ ISZERO ISZERO PUSH2 0x2D33 JUMPI PUSH1 0x0 PUSH1 0x0 REVERT JUMPDEST PUSH2 0x2710 DUP2 LT ISZERO ISZERO PUSH2 0x2D44 JUMPI PUSH1 0x0 PUSH1 0x0 REVERT JUMPDEST PUSH1 0xA0 PUSH1 0x40 MLOAD SWAP1 DUP2 ADD PUSH1 0x40 MSTORE DUP1 PUSH1 0x0 ISZERO ISZERO DUP2 MSTORE PUSH1 0x20 ADD DUP3 DUP2 MSTORE PUSH1 0x20 ADD CALLER PUSH20 0xFFFFFFFFFFFFFFFFFFFFFFFFFFFFFFFFFFFFFFFF AND DUP2 MSTORE PUSH1 0x20 ADD PUSH1 0x0 DUP2 MSTORE PUSH1 0x20 ADD PUSH1 0x0 PUSH20 0xFFFFFFFFFFFFFFFFFFFFFFFFFFFFFFFFFFFFFFFF AND DUP2 MSTORE POP PUSH1 0xC PUSH1 0x0 DUP4 DUP2 MSTORE PUSH1 0x20 ADD SWAP1 DUP2 MSTORE PUSH1 0x20 ADD PUSH1 0x0 SHA3 PUSH1 0x0 DUP3 ADD MLOAD DUP2 PUSH1 0x0 ADD PUSH1 0x0 PUSH2 0x100 EXP DUP2 SLOAD DUP2 PUSH1 0xFF MUL NOT AND SWAP1 DUP4 ISZERO ISZERO MUL OR SWAP1 SSTORE POP PUSH1 0x20 DUP3 ADD MLOAD DUP2 PUSH1 0x1 ADD SSTORE PUSH1 0x40 DUP3 ADD MLOAD DUP2 PUSH1 0x2 ADD PUSH1 0x0 PUSH2 0x100 EXP DUP2 SLOAD DUP2 PUSH20 0xFFFFFFFFFFFFFFFFFFFFFFFFFFFFFFFFFFFFFFFF MUL NOT AND SWAP1 DUP4 PUSH20 0xFFFFFFFFFFFFFFFFFFFFFFFFFFFFFFFFFFFFFFFF AND MUL OR SWAP1 SSTORE POP PUSH1 0x60 DUP3 ADD MLOAD DUP2 PUSH1 0x3 ADD SSTORE PUSH1 0x80 DUP3 ADD MLOAD DUP2 PUSH1 0x4 ADD PUSH1 0x0 PUSH2 0x100 EXP DUP2 SLOAD DUP2 PUSH20 0xFFFFFFFFFFFFFFFFFFFFFFFFFFFFFFFFFFFFFFFF MUL NOT AND SWAP1 DUP4 PUSH20 0xFFFFFFFFFFFFFFFFFFFFFFFFFFFFFFFFFFFFFFFF AND MUL OR SWAP1 SSTORE POP SWAP1 POP POP DUP1 PUSH32 0xB0E0A660B4E50F26F0B7CE75C24655FC76CC66E3334A54FF410277229FA10BD4 PUSH1 0x40 MLOAD DUP1 SWAP1 POP PUSH1 0x40 MLOAD DUP1 SWAP2 SUB SWAP1 LOG2 JUMPDEST POP JUMP STOP LOG1 PUSH6 0x627A7A723058 SHA3 PUSH25 0x87BBF9908F4E3ABB8960E61ED5B3A2D201D9C26E0F5918A36F 0xe5 0xb3 PUSH26 0x80A6680029000000000000000000000000000000000000000000 "
        },
        "gasEstimates": {
          "creation": {
            "codeDepositCost": "2397800",
            "executionCost": "infinite",
            "totalCost": "infinite"
          },
          "external": {
            "acceptBidForPunk(uint256,uint256)": "240392",
            "allInitialOwnersAssigned()": "20977",
            "allPunksAssigned()": "761",
            "balanceOf(address)": "785",
            "buyPunk(uint256)": "262781",
            "decimals()": "541",
            "enterBidForPunk(uint256)": "105148",
            "getPunk(uint256)": "63910",
            "imageHash()": "infinite",
            "name()": "infinite",
            "nextPunkIndexToAssign()": "581",
            "offerPunkForSale(uint256,uint256)": "104262",
            "offerPunkForSaleToAddress(uint256,uint256,address)": "104256",
            "pendingWithdrawals(address)": "1049",
            "punkBids(uint256)": "1563",
            "punkIndexToAddress(uint256)": "750",
            "punkNoLongerForSale(uint256)": "88645",
            "punksOfferedForSale(uint256)": "1601",
            "punksRemainingToAssign()": "867",
            "setInitialOwner(address,uint256)": "64674",
            "setInitialOwners(address[],uint256[])": "infinite",
            "standard()": "infinite",
            "symbol()": "infinite",
            "totalSupply()": "449",
            "transferPunk(address,uint256)": "240849",
            "withdraw()": "infinite",
            "withdrawBidForPunk(uint256)": "infinite"
          }
        },
        "methodIdentifiers": {
          "acceptBidForPunk(uint256,uint256)": "23165b75",
          "allInitialOwnersAssigned()": "7ecedac9",
          "allPunksAssigned()": "8126c38a",
          "balanceOf(address)": "70a08231",
          "buyPunk(uint256)": "8264fe98",
          "decimals()": "313ce567",
          "enterBidForPunk(uint256)": "091dbfd2",
          "getPunk(uint256)": "c81d1d5b",
          "imageHash()": "51605d80",
          "name()": "06fdde03",
          "nextPunkIndexToAssign()": "52f29a25",
          "offerPunkForSale(uint256,uint256)": "c44193c3",
          "offerPunkForSaleToAddress(uint256,uint256,address)": "bf31196f",
          "pendingWithdrawals(address)": "f3f43703",
          "punkBids(uint256)": "6e743fa9",
          "punkIndexToAddress(uint256)": "58178168",
          "punkNoLongerForSale(uint256)": "f6eeff1e",
          "punksOfferedForSale(uint256)": "088f11f3",
          "punksRemainingToAssign()": "c0d6ce63",
          "setInitialOwner(address,uint256)": "a75a9049",
          "setInitialOwners(address[],uint256[])": "39c5dde6",
          "standard()": "5a3b7e42",
          "symbol()": "95d89b41",
          "totalSupply()": "18160ddd",
          "transferPunk(address,uint256)": "8b72a2ec",
          "withdraw()": "3ccfd60b",
          "withdrawBidForPunk(uint256)": "979bc638"
        }
      },
      "userdoc": {
        "methods": {}
      }
    }
  }
}